:020000040000FA
:100000000C9483000C94B4000C94B4000C94B400D1
:100010000C94B4000C94B4000C94B4000C94B40090
:100020000C94B4000C94B4000C94B4000C94B40080
:100030000C94B4000C94B4000C94B4000C94B40070
:100040000C94B4000C94B4000C94B4000C94B40060
:100050000C94B4000C94B4000C94B4000C940105FE
:100060000C94B4000C9485040C945B040C94B400C0
:100070000C94B4000C94B4000C94B4000C94B40030
:100080000C94B4000C94B4000C94B4000C94B40020
:100090000C9425040C94FB030C94B4000C94B40051
:1000A0000C94B4000C94B4000C94B4000C94B40000
:1000B0000C94B4000C94B4000C94B4000C94B400F0
:1000C0000C94B4000C94B4000C94B4000C94B400E0
:1000D0000C94B4000C94B4000C94B4000C94B400D0
:1000E0000C94B4000C94EF020C947E030C94310336
:1000F0000C94BE020C9482110C94E1020C94DE006C
:100100000C94CD02821111241FBECFEFD1E2DEBFCD
:10011000CDBF00E00CBF12E0A0E0B2E0EAE9FBE2F4
:1001200000E00BBF02C007900D92A63DB107D9F7C2
:1001300024E0A6EDB2E001C01D92A436B207E1F7BB
:1001400010E0C3E8D0E000E006C021970109802F4D
:10015000FE010E94B115C238D10780E00807A9F757
:100160000E944B050C94CB150C9400008091120456
:10017000813011F0823061F480911004909111046B
:10018000DC01ED91FC910284F385E02D1995089531
:1001900080E0089580911204813011F0823061F482
:1001A0008091100490911104DC01ED91FC91008488
:1001B000F185E02D1995089580E00895CF92DF92A2
:1001C000EF92FF920F931F93CF93DF936C017A010D
:1001D0008B01C0E0D0E0CE15DF0581F0D8016D9134
:1001E0008D01D601ED91FC910190F081E02DC601C9
:1001F0001995892B11F02196EECF7E01C701DF9171
:10020000CF911F910F91FF90EF90DF90CF900895C5
:100210000E94B9156115710579F0FB01019000206C
:10022000E9F73197AF01461B570BDC01ED91FC91CB
:100230000280F381E02D199480E090E00895CF9240
:10024000DF92EF92FF92CF93DF93EC016A017B0183
:10025000E889F98982E080834115514E6105710575
:10026000B1F060E079E08DE390E0A70196010E9493
:100270005615DA01C9010197A109B109B695A795EB
:10028000979587959C01211580E13807A8F0E889AA
:10029000F989108260E874E88EE190E0A701960188
:1002A0000E945615DA01C9010197A109B109B69555
:1002B000A795979587959C01EC85FD853083EE8504
:1002C000FF852083188EEC89FD8986E08083EA898A
:1002D000FB89808180618083EA89FB8980818860D5
:1002E0008083EA89FB89808180688083EA89FB8931
:1002F00080818F7D8083DF91CF91FF90EF90DF90A1
:10030000CF900895AB01BC018091120481508230DE
:1003100030F480911004909111040C941F01089501
:10032000CF92DF92EF92FF921F93CF93DF9300D093
:1003300000D0CDB7DEB70E94F5046B017C012CED37
:10034000C20E25E0D21EE11CF11C0E94CA008823C7
:1003500011F10E94B600F9CF153078F4E1E0F0E039
:10036000EC0FFD1FE10FF11D80831F5FE1E0F0E066
:10037000EC0FFD1FE10FF11D1082153069F48B8128
:100380008734D9F48C81873479F18C3489F58D8167
:100390008C3409F440C016E00E94F5046C157D050C
:1003A0008E059F05B0F50E94CA008823A9F30E941C
:1003B000B600843289F610E0EFCF823539F48C81B3
:1003C0008D3449F78D81833431F725C0863539F472
:1003D0008C81843501F78D818734E9F61CC08A351C
:1003E00079F48C818434B9F68D818134A1F613C0FF
:1003F000833589F68D81813471F0863561F60BC0C5
:10040000843549F68C81883531F68D81843519F62D
:1004100002C080E001C081E026960FB6F894DEBFEE
:100420000FBECDBFDF91CF911F91FF90EF90DF9076
:10043000CF9008958F929F92AF92BF920F931F9388
:10044000CF93DF93CDB7DEB7A1970FB6F894DEBF99
:100450000FBECDBF19A2423008F44AE08E010F5DF5
:100460001F4F842E912CA12CB12CA50194010E9428
:100470005615E62FB901CA0101501109EA3014F4EA
:10048000E05D01C0E95CD801EC93232B242B252BE4
:1004900061F7B80183E793E00E940A01A1960FB6C5
:1004A000F894DEBF0FBECDBFDF91CF911F910F91AA
:1004B000BF90AF909F908F900895682F70E080E07C
:1004C00090E04AE00C941A020C940A01BC0190914D
:1004D00012049150923030F48091100490911104E4
:1004E0000C94640208950F931F93CF93DF9300D071
:1004F00000D0CDB7DEB78C0186E0EFECF2E0DE0194
:10050000119601900D928A95E1F7F801980121501A
:100510003F4F81E09191992321F089272E173F07C2
:10052000C9F7982F92959F7020E3290F2A3310F472
:100530002A8302C0995C9A838F7090E3980F9A3354
:1005400010F49B8302C0895C8B8389EC92E00E944B
:100550006602C8010E946602CE0101960E946602F0
:1005600026960FB6F894DEBF0FBECDBFDF91CF91B8
:100570001F910F91089580E090E00895FC01538D44
:10058000448D252F30E0842F90E0821B930B54176D
:1005900010F0CF96089501970895FC01918D828DFA
:1005A000981761F0828DDF01A80FB11D5D968C91C7
:1005B000928D9F5F9F73928F90E008958FEF9FEFD2
:1005C0000895FC01918D828D981731F0828DE80F8E
:1005D000F11D858D90E008958FEF9FEF0895FC0148
:1005E000918D228D892F90E0805C9F4F821B910915
:1005F0008F739927089586ED92E00E94EF0221E023
:10060000892B09F420E0822F089583E793E00E946C
:10061000EF0221E0892B09F420E0822F0895FC01EC
:10062000848DDF01A80FB11DA35ABF4F2C91848D7B
:1006300090E001968F739927848FA689B7892C93B0
:10064000A089B1898C91837080648C93938D848D03
:10065000981306C00288F389E02D80818F7D808306
:100660000895EF92FF920F931F93CF93DF93EC01C6
:1006700081E0888F9B8D8C8D981305C0E889F9895E
:10068000808185FD26C0F62E0B8D10E00F5F1F4F79
:100690000F731127E02E8C8DE8120CC00FB607FCEB
:1006A000FACFE889F989808185FFF5CFCE010E94D4
:1006B0000F03F1CF8B8DFE01E80FF11DE35AFF4FC1
:1006C000F0829FB7F8940B8FEA89FB898081806262
:1006D0000AC09FB7F894EE89FF896083E889F98999
:1006E00080818370806480839FBF81E090E0DF9190
:1006F000CF911F910F91FF90EF900895CF93DF93CB
:10070000EC01888D8823C9F0EA89FB89808185FD09
:1007100005C0A889B9898C9186FD0FC00FB607FC6A
:10072000F5CF808185FFF2CFA889B9898C9185FFAB
:10073000EDCFCE010E940F03E7CFDF91CF91089557
:1007400080E090E0892B21F00E940503811121C0F7
:1007500080E090E0892B21F00E94FB0281111CC0F7
:1007600080E090E0892B41F080E090E0892B21F03F
:100770000E940000811113C080E090E0892BA1F05D
:1007800080E090E0892B81F00E94000081110AC076
:1007900008950E940000DCCF0E940000E1CF0E947B
:1007A0000000EACF0C94000008953FB7F8948091C0
:1007B000600490916104A0916204B091630426B535
:1007C000A89B05C02F3F19F00196A11DB11D3FBF89
:1007D000BA2FA92F982F8827820F911DA11DB11D17
:1007E000BC01CD0142E0660F771F881F991F4A9513
:1007F000D1F7089508951F920F920FB60F9211240A
:100800000BB60F922F933F934F935F936F937F930A
:100810008F939F93AF93BF93EF93FF9386ED92E0F7
:100820000E940F03FF91EF91BF91AF919F918F9124
:100830007F916F915F914F913F912F910F900BBEE0
:100840000F900FBE0F901F9018951F920F920FB62A
:100850000F9211240BB60F922F938F939F93EF93C8
:10086000FF93E091E602F091E7028081E091EC02D3
:10087000F091ED0282FD12C090818091EF028F5FB6
:100880008F732091F002821751F0E091EF02F0E0B7
:10089000EA52FD4F958F8093EF0201C08081FF9156
:1008A000EF919F918F912F910F900BBE0F900FBEE4
:1008B0000F901F9018951F920F920FB60F92112450
:1008C0000BB60F922F933F934F935F936F937F934A
:1008D0008F939F93AF93BF93EF93FF9383E793E03F
:1008E0000E940F03FF91EF91BF91AF919F918F9164
:1008F0007F916F915F914F913F912F910F900BBE20
:100900000F900FBE0F901F9018951F920F920FB669
:100910000F9211240BB60F922F938F939F93EF9307
:10092000FF93E0918303F09184038081E091890338
:10093000F0918A0382FD12C0908180918C038F5FB9
:100940008F7320918D03821751F0E0918C03F0E0BA
:10095000ED58FC4F958F80938C0301C08081FF91EF
:10096000EF919F918F912F910F900BBE0F900FBE23
:100970000F901F9018958F929F92AF92BF92CF9237
:10098000DF92EF92FF926B017C010E94D5034B0135
:100990005C01C114D104E104F104F1F00E94D5031B
:1009A000DC01CB0188199909AA09BB09883E93404B
:1009B000A105B10570F321E0C21AD108E108F108E0
:1009C00088EE880E83E0981EA11CB11CC114D104CE
:1009D000E104F10419F7DDCFFF90EF90DF90CF90A5
:1009E000BF90AF909F908F9008952FB7F89460912B
:1009F0005C0470915D0480915E0490915F042FBF50
:100A000008951F920F920FB60F9211242F933F93C8
:100A10008F939F93AF93BF9380915C0490915D04FB
:100A2000A0915E04B0915F0430915B0423E0230F3A
:100A30002D3720F40196A11DB11D05C026E8230F16
:100A40000296A11DB11D20935B0480935C049093DA
:100A50005D04A0935E04B0935F0480916004909164
:100A60006104A0916204B09163040196A11DB11DBF
:100A70008093600490936104A0936204B093630434
:100A8000BF91AF919F918F913F912F910F900FBE8A
:100A90000F901F901895CF93DF93CDB7DEB7CE564A
:100AA000D1090FB6F894DEBF0FBECDBF789484B5E0
:100AB000826084BD84B5816084BD85B5826085BD5A
:100AC00085B5816085BD80916E00816080936E00E8
:100AD00010928100809181008260809381008091DA
:100AE000810081608093810080918000816080938B
:100AF00080008091B10084608093B1008091B0004B
:100B000081608093B0008091910082608093910019
:100B1000809191008160809391008091900081602C
:100B2000809390008091A10082608093A1008091C9
:100B3000A10081608093A1008091A00081608093DA
:100B4000A000809121018260809321018091210188
:100B50008160809321018091200181608093200138
:100B600080917A00846080937A0080917A0082601C
:100B700080937A0080917A00816080937A008091DE
:100B80007A00806880937A001092C10040E855E2B4
:100B900060E070E083E793E00E941F0181E08093B2
:100BA000120486ED92E090931104809310040E9449
:100BB0009001811142C060E875E280E090E00E94FF
:100BC00082010E949001811138C060EC72E180E0E6
:100BD00090E00E9482010E94900181112EC060E08D
:100BE0007BE480E090E00E9482010E9490018111EC
:100BF00024C060E076E980E090E00E9482010E94DB
:100C0000900181111AC060E071EE80E090E00E94D6
:100C100082010E949001811110C060E072EC81E0BD
:100C200090E00E9482010E949001811106C060E85C
:100C300075E280E090E00E94820186ED92E0909360
:100C40004F0480934E0481E080935A0480935004B3
:100C500080911204882391F088E292E00E9473024E
:100C600064E670E080E090E00E94BB0460E875E21A
:100C700080E090E00E9482010E9490018091120425
:100C8000882379F085E0ECE7F2E0DE01119601902F
:100C90000D928A95E1F785E38C83CE0101960E943F
:100CA000730280911204882309F4D4C08EE1E1E834
:100CB000F2E0DE01119601900D928A95E1F785E050
:100CC00062968FAF629763961FAE639764961FAE6E
:100CD000649765961FAE659766961FAE6697679692
:100CE0001FAE679768961FAE689769961FAE6997A3
:100CF0006A961FAE6A976B961FAE6B976C961FAE87
:100D00006C974BE050E061E070E0CE018F5A9F4F4E
:100D10000E94BE15892B11F081E301C080E38C8312
:100D20004BE050E062E070E0CE018F5A9F4F0E948E
:100D3000BE15892B11F081E301C080E38E834BE067
:100D400050E063E070E0CE018F5A9F4F0E94BE15C5
:100D5000892B11F081E301C080E388874BE050E0EC
:100D600064E070E0CE018F5A9F4F0E94BE15892B20
:100D700011F081E301C080E38A874BE050E065E039
:100D800070E0CE018F5A9F4F0E94BE15892B11F043
:100D900081E301C080E38C874BE050E066E070E0C7
:100DA000CE018F5A9F4F0E94BE15892B11F081E30F
:100DB00001C080E38E874BE050E067E070E0CE0139
:100DC0008F5A9F4F0E94BE15892B11F081E301C0FD
:100DD00080E3888B4BE050E068E070E0CE018F5AF2
:100DE0009F4F0E94BE15892B11F081E301C080E363
:100DF0008A8B4BE050E069E070E0CE018F5A9F4F44
:100E00000E94BE15892B11F081E301C080E38C8B19
:100E10004BE050E06AE070E0CE018F5A9F4F0E9495
:100E2000BE15892B11F081E301C080E3888F4BE070
:100E300050E06BE070E0CE018F5A9F4F0E94BE15CC
:100E4000892B11F081E301C080E38D8FCE010196E3
:100E50000E94730280911204882379F085E0EFE903
:100E6000F2E0DE01119601900D928A95E1F781E39F
:100E70008C83CE0101960E94730280911204882314
:100E800091F088E0E0E0F2E0DE01119601900D9231
:100E90008A95E1F781E38C8380E38D838E83CE0195
:100EA00001960E94730280915A0481114CC01092E5
:100EB000220410922304109224041092250410920C
:100EC00026041092270410922804109229041092EC
:100ED0002B0410922A0410922E0410922F041092C8
:100EE0003004109231041092320410923F04109298
:100EF000400410924204109244041092460410924E
:100F000047041092490410924804C12CD12CF8E4F3
:100F1000EF2EF2E4FF2EC0923304D0923404E0921C
:100F20003504F0923604C0923704D0923804E0922F
:100F30003904F0923A04C0923B04D0923C04E0920F
:100F40003D04F0923E0410922104109220048AE2A3
:100F500080931704809319048093180480931A04D3
:100F600080931B0480931E0480931C0480931D04B3
:100F700010922C0410922D0480915004882309F4BF
:100F8000F0C01E0121E5220E311CD10111961C92E8
:100F9000119712961C92129713961C9213971496FF
:100FA0001C92149715961C920E94F504009151040E
:100FB0001091520420915304309154046B017C0130
:100FC000C00ED11EE21EF31EAF96CCAEDDAEEEAE6D
:100FD000FFAEAF9780914E0490914F04DC01ED91EC
:100FE000FC910680F781E02D1995812C912C5401FC
:100FF00010E000E0AB961FAEAB97412C512C3201B4
:10100000A3961FAEA3970E94F504AF96CCACDDACBF
:10101000EEACFFACAF976C157D058E059F0508F013
:1010200029C1809120049091210497FF64C322C1BB
:1010300080934604C394C092440463969FAD639723
:1010400064968FAD6497890F65969FAD6597890FFC
:1010500066969FAD6697890F67969FAD6797890FD4
:1010600080932C0490912D04891710F490932C04F4
:10107000C0902F04D0903004E0903104F0903204FE
:1010800020E030E044E353E4C701B6010E94C014FD
:10109000181684F4A701960160E070E084EB93E4F5
:1010A0000E94F41260932F047093300480933104F3
:1010B000909332048091200490912104009711F4C0
:1010C0000C944F1122E020931304113411F00C946E
:1010D000521110921304009711F40C94561122E04F
:1010E00020931404113411F00C945E111092140426
:1010F000009711F40C94641122E0209316042091BF
:101100001C04213411F40C946711243411F40C9450
:101110006711277F253411F41092160420911704CB
:10112000213314F00C946B1130911A04313411F402
:101130000C946B11892B11F40C946F1182E0809345
:10114000150480911904813411F40C94721180916A
:101150001A04813411F40C947211213314F010929A
:101160001504809142040E945D026DE272E083E703
:1011700093E00E946402809140040E945D026DE24F
:1011800072E083E793E00E94640280913F040E9432
:101190005D026AE372E083E793E00E94640280915B
:1011A00044040E945D0261E672E083E793E00E94DE
:1011B0006402809146040E945D0261E672E083E76A
:1011C00093E00E946402809147040E945D026FE2F6
:1011D00072E083E793E00E94640265E372E083E7D4
:1011E00093E00E946402E0914504F0E0EE0FFF1FDF
:1011F000E85FFD4F6081718183E793E00E946402A4
:1012000068E372E083E793E00E9464026CE372E0BB
:1012100083E793E00E94640260914A0470914B045A
:1012200080914C0490914D044AE00E941A0267E4B8
:1012300072E083E793E00E946402809113048823A4
:1012400031F06AE472E083E793E00E9464028091E7
:101250001404882331F063E672E083E793E00E9490
:10126000640262ED72E083E793E00E9464020E94F0
:10127000A00319CE80915904882309F444C08091B9
:101280001704813364F480911904813441F0809112
:101290001A04813421F080915A04811134C0C09025
:1012A0002604D0902704E0902804F090290420E040
:1012B00030E0A901C701B6010E94C01418162CF431
:1012C00020E030E040EF50E404C020E030E040EFA8
:1012D00050ECC701B6010E94F51220E030E040E773
:1012E00051E40E9466130E94D813072E000C880B4D
:1012F000990B0E94101460935504709356048093C8
:101300005704909358048091480490914904892B84
:1013100049F48091470490E08053984F909349049A
:1013200080934804E0914804F0914904AF01425B86
:1013300057409A01ADE6B1E00E9497156B017C0120
:10134000CA01A0E0B0E00196A11DB11D52E0B69522
:10135000A795979587955A95D1F770914604072FD1
:1013600010E041E050E0793010F440E050E09A01A4
:10137000200F311F35952795015011096EE1609FAF
:10138000A001619F500D1124240F351F8901330FD7
:10139000220B330B733048F0E370FF27EF2B49F437
:1013A000812C912C5401839409C0812C912C5401DF
:1013B00005C0E2E08E2E912CA12CB12CE0914004CE
:1013C0006091440470E061507109AB01770F660BC6
:1013D000770BC40ED51EE61EF71E8C0D9D1DAE1D8F
:1013E000BF1D800F911FA21FB31F9C01AD012819C3
:1013F00039094A095B0960E871E581E090E00E94E3
:1014000032154B015C012091420430E0A0E1BEE0C6
:101410000E9497156B017C012E2F30E0ACE3B0E009
:101420000E949715DC01CB018C0D9D1DAE1DBF1DCB
:1014300020913F04820F911DA11DB11D7501640112
:10144000C80ED91EEA1EFB1EC0924A04D0924B045D
:10145000E0924C04F0924D0410911D04113411F0EF
:101460001435D1F58090550490905604A0905704FF
:10147000B090580420E030E048EC52E4C501B401DB
:101480000E94C5140E94D81324E630E040E050E0EA
:101490000E9478159B01AC01A4E2B0E00E94A61561
:1014A0002B013C01C501B4010E94D8139B01AC0182
:1014B000A0E1BEE00E94A615460E571E681E791ECA
:1014C000C40CD51CE61CF71CC0924A04D0924B04F5
:1014D000E0924C04F0924D0480904A0490904B04AA
:1014E000A0904C04B0904D047CE3C72ED12CE12C8D
:1014F000F12CC501B401A70196010E945615609315
:101500003F04A5019401261B370B480B590BCA0158
:10151000B901A70196010E94561549015A01CA0155
:10152000B901A70196010E94561560934004A501D8
:101530009401261B370B480B590BCA01B901A701AF
:1015400096010E94561569017A01CA01B90128E184
:1015500030E040E050E00E945615609342046D3048
:1015600010F02CE001C020E0362F321B232F09F4AD
:101570002CE02093410431E02FEF260F2C3008F4AB
:1015800030E030934304A7019601261B370B480B2C
:10159000590BCA01B90128E130E040E050E00E9457
:1015A000561569017A01812C912C540124013501D1
:1015B0003FEF431A530A630A730AD501C401029626
:1015C000A11DB11D9C01AD0162E05695479537956F
:1015D00027956A95D1F7A6962CAF3DAF4EAF5FAF7A
:1015E000A697ADE6B1E0A30192010E94A615A696CA
:1015F0002CAD3DAD4EAD5FADA697260F371F481FF2
:10160000591FC216D306E406F50618F0530142012D
:10161000CDCFC701B6016C5F7F4F8F4F9F4F27E043
:1016200030E040E050E00E94561560934504ADE67E
:10163000B1E0A50194010E94A615C61AD70AE80ACE
:10164000F90A92E076946794579447949A95D1F763
:10165000C418D508E608F7083EE4831A38EF930A61
:101660009092490480924804C40164E670E00E94AC
:1016700042158093470443E084229924892811F479
:101680002DE101C02CE181E091E0822E912CA12C72
:10169000B12C482E512C612C712CB301A2014F5F4B
:1016A0005F4F6F4F7F4F4170492721E058E045164B
:1016B00051046104710408F020E0421729F08230DF
:1016C00041F4B501A40109C04FE150E060E070E0D1
:1016D00004C04EE150E060E070E021E0280FC41645
:1016E000D506E606F70608F4A3CCC41AD50AE60A1E
:1016F000F70A822FCECF80914E0490914F04DC01E7
:10170000ED91FC910084F185E02D1995892B09F468
:101710007ACC80914E0490914F04DC01ED91FC91C4
:101720000284F385E02D1995E82EB4E28B1305C0F1
:10173000812C912C540100E060CCEAE28E131CC095
:10174000812C912C54010E94F504AF96CCACDDACF9
:10175000EEACFFACAF976C157D058E059F0508F0CC
:1017600063C120E030E040E050E4C501B4010E94D4
:10177000611387FD2AC158C1BDE08B1709F443CC22
:10178000EAE08E1709F43FCC0827FCE28F1325C04E
:10179000A3962FADA3972F5FA3962FAFA3972531C5
:1017A00020F034E1A3963FAFA397E1E0F0E0EC0F27
:1017B000FD1FA396CFACA39744E0C49EE00DF11D9E
:1017C000112434971082118212821382812C912C61
:1017D0005401AB961FAEAB9716CC7EE2D72E8D117F
:1017E00008C0EDEC8E2EECEC9E2EA92CEDE3BE2E67
:1017F0000ACCA396FFACA397F11029C020E030E0FB
:1018000040EA50E4C501B4010E94611387FFFBCB9D
:10181000C501B4010E94DF13ECE5F0E0EC0FFD1F01
:10182000E60FF11DE08220E030E040E85FE3C50113
:10183000B4010E94F5124B015C010E94DF13ECE53C
:10184000F0E0EC0FFD1FE60FF11D1082DCCBA3963C
:10185000FFACA397CF2CD12C21E0C21AD10881E094
:1018600090E0A0E0B0E00C2C04C0880F991FAA1FE4
:10187000BB1F0A94D2F7482A592A6A2A7B2A3DE2DA
:10188000E31205C0B1E0AB96BFAFAB97BCCB20E095
:1018900030E0A901C501B4010E946113CC0CDD1C2C
:1018A000CC0CDD1C0E2C000CFF08811143C020E085
:1018B00030E040E251E4E1E0F0E0EC0FFD1FEC0D20
:1018C000FD1D60817181828193810E94C514AA9659
:1018D0006CAF7DAF8EAF9FAFAA97B7016053710910
:1018E000072E000C880B990B0E941014AB96EFACDE
:1018F000AB97EE2029F020E030E040E85FEB04C039
:1019000020E030E040E85FE3A1E0B0E0AC0FBD1FB5
:10191000CA0EDB1E0E94C514AA962CAD3DAD4EAD7D
:101920005FADAA970E94F512F601608371838283EE
:10193000938369CBE1E0F0E0EC0FFD1FEC0DFD1DA2
:101940002081318142815381AA962CAF3DAF4EAFA9
:101950005FAFAA97B70160537109072E000C880B7F
:10196000990B0E941014A50194010E94C514AB9616
:10197000EFACAB97EE2029F020E030E040E85FEBE1
:1019800004C020E030E040E85FE3A1E0B0E0AC0F4D
:10199000BD1FCA0EDB1E0E94C514AA962CAD3DAD1C
:1019A0004EAD5FADAA970E94F512F6016083718378
:1019B0008283938320E030E040E251E4C501B4012A
:1019C0000E9466134B015C011ECB80914E049091E6
:1019D0004F04DC01ED91FC910084F185E02D199517
:1019E000892B09F4B0CE80914E0490914F04DC0114
:1019F000ED91FC910284F385E02D1995F82E20E0FD
:101A000030E040E85FE3C501B4010E94F5124B01EC
:101A10005C011295107FB9E3BF1514F487E301C090
:101A200080E31F0D181B8FCE0113EDCA6F968FAD8B
:101A30006F97873409F088C0A0968FADA097873440
:101A400009F0E1C1A1968FADA197813409F0E3C1FE
:101A5000809120049091210480FF05C090689093AC
:101A600021048093200480912004909121048160BE
:101A7000909321048093200440FE06C069817A81FE
:101A80008B819C810E94371245FE09C06D897E8939
:101A90008F89988D0E94DF13605D6093170446FE66
:101AA00008C0698D7A8D8B8D9C8D0E94DF136093A9
:101AB0002D0447FE0CC08D8D9E8DAF8DB8A18093F7
:101AC000370490933804A0933904B0933A0480917A
:101AD0001704813324F480915A0481119CC141FE82
:101AE00012C029853A854B855C856D817E818F8109
:101AF00098850E94A212609322047093230480931D
:101B000024049093250443FE12C029893A894B8905
:101B10005C896D857E858F8598890E94A21260936D
:101B2000260470932704809328049093290450FE80
:101B300072C169A17AA18BA19CA10E94DF1370934D
:101B40002B0460932A0467C1823509F0F7C0A09680
:101B50008FADA0978D3409F0D2C3A1968FADA19718
:101B6000833409F0CCC3809120049091210482FF3A
:101B700005C09068909321048093200480912004F4
:101B8000909121048460909321048093200440FE6E
:101B900006C069817A818B819C810E94371250FE38
:101BA0005DC0C9A0DAA0EBA0FCA0C701B6010E94ED
:101BB000DF13AA966CAF7DAF8EAF9FAFAA9724E6D6
:101BC00030E040E050E00E94561560934704CA019F
:101BD000B90124E630E040E050E00E9456156093E1
:101BE0004604AA966CAD7DAD8EAD9FADAA9720E15F
:101BF00037E240E050E00E945615CA01B90124E6E0
:101C000030E040E050E00E9456156093440480911B
:101C10001D048A3219F486E580931D0480911D0409
:101C2000863561F420E030E0A901C701B6010E94C9
:101C30006113882319F084E480931D0480911D04AE
:101C4000843561F420E030E0A901C701B6010E94AB
:101C50006113882319F081E480931D0441FE09C0BB
:101C60006D817E818F8198850E94DF13605D609316
:101C70001A0453FE09C06DA57EA58FA598A90E94E0
:101C8000DF13605D60931B0454FE09C069A97AA943
:101C90008BA99CA90E94DF13605D60931E04809154
:101CA0001A04813421F080915A04811128C342FE24
:101CB00012C02D853E854F85588969857A858B852B
:101CC0009C850E94A2126093220470932304809347
:101CD00024049093250444FE12C02D893E894F8927
:101CE000588D69897A898B899C890E94A212609398
:101CF000260470932704809328049093290446FEB9
:101D00000EC026E53EE04DEE5FE3698D7A8D8B8D4A
:101D10009C8D0E94C5140E94DF1360932E0447FE21
:101D2000EEC28D8D9E8DAF8DB8A180932F049093C0
:101D30003004A0933104B0933204E1C2863509F037
:101D4000CAC1A0968FADA097843509F0D8C2A196DC
:101D50008FADA197873409F0D2C280912004909171
:101D6000210483FF05C09068909321048093200490
:101D700080912004909121048860909321048093A5
:101D8000200450FE09C069A17AA18BA19CA10E94E8
:101D9000DF13605D60931C0480911C04813451F05A
:101DA0009CEB980F923030F08D3421F080915A04E2
:101DB0008111A5C240FE0CC089819A81AB81BC8192
:101DC00080932F0490933004A0933104B093320495
:101DD00044FE0EC026E53EE04DEE5FE369897A8958
:101DE0008B899C890E94C5140E94DF1360932E0486
:101DF00046FE85C2698D7A8D8B8D9C8D0E94DF1386
:101E000060932E047CC28C3431F4A1968FADA197DF
:101E10008C3409F4FDC0A0968FADA097833509F0EE
:101E20006EC2A1968FADA1978435E1F48091200414
:101E30009091210486FF05C09068909321048093BF
:101E400020048091200490912104806490932104C7
:101E50008093200440FE06C069817A818B819C8139
:101E60000E943712A1968FADA197813409F088C0E6
:101E70002996CCACDDACEEACFFAC299720E030E08D
:101E800040E85FE3C701B6010E946113811111C0F0
:101E9000809120049091210487FF05C09068909361
:101EA0002104809320048091200490912104806873
:101EB00035C020E030E040E050E4C701B6010E94A8
:101EC0006113811111C0809120049091210490FF31
:101ED00005C0906890932104809320048091200491
:101EE0009091210491601AC020E030E040E450E479
:101EF000C701B6010E946113811114C080912004B2
:101F00009091210491FF05C09068909321048093E3
:101F100020048091200490912104926090932104E8
:101F20008093200456FE0CC089AD9AADABADBCAD1C
:101F30008093330490933404A0933504B093360413
:101F400057FE0EC021968CAD9DADAEADBFAD2197B5
:101F50008093370490933804A0933904B0933A04E3
:101F600060FE0EC025968CAD9DADAEADBFAD259784
:101F700080933B0490933C04A0933D04B0933E04B3
:101F8000A1968FADA197863509F0B9C18091200443
:101F9000909121049460909321048093200486E022
:101FA00062968FAF62976D968FAD6D97873479F497
:101FB0006E968FAD6E97803511F481E004C08C343D
:101FC00009F068C182E062968FAF62970EC08234DA
:101FD00061F46E968FAD6E97843439F484E0F3CF5C
:101FE000813519F485E0D1018C9342FE88C1F1015D
:101FF0008081863008F083C17101E80EF11C69858B
:102000007A858B859C850E94DF13D7016C9377C1FD
:10201000809120049091210481FF05C090689093E5
:1020200021048093200480912004909121048260F7
:10203000909321048093200444FE06C069897A8924
:102040008B899C890E94371245FE09C06D897E8963
:102050008F89988D0E94DF13605D6093190446FE9E
:1020600009C0698D7A8D8B8D9C8D0E94DF13605D18
:102070006093180480911904813421F080915A04EE
:102080008111C9CE40FE12C02D813E814F815885FD
:1020900069817A818B819C810E94A21260932204C3
:1020A00070932304809324049093250442FEB3CEBE
:1020B0002D853E854F85588969857A858B859C85D8
:1020C0000E94A21260932604709327048093280430
:1020D00090932904A0CE8A3509F095C0A0968FADC3
:1020E000A097843409F00BC1A1968FADA1978134DC
:1020F00009F005C1809120049091210484FF05C05E
:102100009068909321048093200480912004909102
:1021100021048061909321048093200440FE06C036
:1021200069817A818B819C810E94371241FE08C0AF
:102130006D817E818F8198850E94DF1360934404B6
:1021400042FE08C069857A858B859C850E94DF13D5
:102150006093460473016201E8E0CE22DD24EE24A0
:10216000FF2443FE0AC06D857E858F8598890E9475
:10217000DF137093490460934804D301C201867051
:102180009927AA27BB270697A105B10509F0B7C073
:10219000CD28CE28CF2809F4B2C080911D048A3200
:1021A00019F486E580931D0480911D04863589F419
:1021B00080914404882369F080914604882349F083
:1021C0008091480490914904892B19F084E480930C
:1021D0001D0480911D04843509F091C08091440450
:1021E000882309F48CC080914604882309F487C0B1
:1021F0008091480490914904892B09F480C081E4BE
:1022000080931D047CC0843449F5A0968FADA097BF
:10221000883409F074C0A1968FADA197863509F076
:102220006EC0809120049091210485FF05C09068C4
:1022300090932104809320048091200490912104A4
:102240008062909321048093200440FE58C06981ED
:102250007A818B819C810E94371251C0873409F4A6
:10226000DACD843509F04BC0A0968FADA0978835A4
:1022700009F045C0A1968FADA197843509F03FC004
:102280008091200490912104986090932104809380
:10229000200435C0813409F0A3CE83E094CE21E040
:1022A0000C946308143529F40C94690821E00C940B
:1022B00070080097D9F421E020931404143411F02D
:1022C0000C9478080C94760821E00C947D08109208
:1022D00016040C948908109216040C949A0881E054
:1022E0000C949F08109215040C94AD0822E02093E2
:1022F0001404143411F00C947D080C947608102FFB
:102300000C940308CF93DF93E6EDF2E01382128280
:1023100048EE53E060E070E0448355836683778342
:102320008AE192E0918380832DEC30E03587248729
:102330002CEC30E03787268728EC30E0318B208B7F
:1023400029EC30E0338B228B2AEC30E0358B248B68
:102350002EEC30E0378B268B118E128E138E148E5E
:10236000E3E7F3E013821282448355836683778325
:102370009183808385EC90E09587848784EC90E05E
:102380009787868780EC90E0918B808B81EC90E042
:10239000938B828B82EC90E0958B848B86EC90E023
:1023A000978B868B118E128E138E148EC3E1D4E020
:1023B000188219821A821B8289E0E0ECF2E0A7E120
:1023C000B4E001900D928A95E1F71E861D861F8666
:1023D000188A198A1A8A1B8A1C8A1D8A1E8A188ED4
:1023E0001F8A198E1A8E1B8E1C8E1D8E1E8E1F8E9E
:1023F00080E090E0ACECB1E488A399A3AAA3BBA3CE
:102400008CA39DA3AEA3BFA388A799A7AAA7BBA788
:102410001CA61DA61EA61FA618AA19AA1AAA1BAAA0
:102420001CAA1EAA1DAA1FAA18AE19AE1AAE1DAE6E
:1024300080ED97E0A0E0B0E08093510490935204C7
:10244000A0935304B093540480E090E0A0E4B0E47F
:102450008093550490935604A0935704B093580466
:102460001092590410921204DF91CF9108954F9267
:102470005F926F927F928F929F92AF92BF92CF9214
:10248000DF92EF92FF926B017C010E94DF132B0120
:102490003C0184E6882E912CA12CB12CC301B20101
:1024A000A50194010E94561560933F04CA01B90129
:1024B000A50194010E94561560934004C301B20126
:1024C00020E137E240E050E00E945615CA01B90110
:1024D000A50194010E9456156093420480911D0449
:1024E0008A3219F486E580931D0480911D04863597
:1024F00061F420E030E0A901C701B6010E94611338
:10250000882319F084E580931D0480911D04843490
:1025100061F420E030E0A901C701B6010E94611317
:10252000882319F081E480931D04FF90EF90DF90E1
:10253000CF90BF90AF909F908F907F906F905F9063
:102540004F9008954F925F926F927F928F929F92D9
:10255000AF92BF92CF92DF92EF92FF922B013C019C
:1025600049015A010E94DF1324E630E040E050E0C8
:102570000E945615CA01B9010E940E146B017C011C
:1025800020E030E048EC52E40E94C5149B01AC010D
:10259000C301B2010E94F41220E030E040E752E4AF
:1025A0000E9466139B01AC01C701B6010E94F5129F
:1025B0006B017C01C501B4010E94DF136B7F6332A4
:1025C00021F4F7FAF094F7F8F094C701B601FF9000
:1025D000EF90DF90CF90BF90AF909F908F907F90C3
:1025E0006F905F904F9008955058BB27AA270E9484
:1025F0000C130C9486140E94781438F00E947F14F7
:1026000020F039F49F3F19F426F40C9475140EF45D
:10261000E095E7FB0C946F14E92F0E94971458F390
:10262000BA17620773078407950720F079F4A6F5B7
:102630000C94B9140EF4E0950B2EBA2FA02D0B01BB
:10264000B90190010C01CA01A0011124FF27591BF7
:1026500099F0593F50F4503E68F11A16F040A22FFD
:10266000232F342F4427585FF3CF4695379527956E
:10267000A795F0405395C9F77EF41F16BA0B620B6D
:10268000730B840BBAF09150A1F0FF0FBB1F661FB4
:10269000771F881FC2F70EC0BA0F621F731F841FF7
:1026A00048F4879577956795B795F7959E3F08F01D
:1026B000B0CF9395880F08F09927EE0F97958795DF
:1026C00008950E944B1408F481E008950E947A1343
:1026D0000C9486140E947F1458F00E94781440F0E5
:1026E00029F45F3F29F00C946F1451110C94BA1423
:1026F0000C9475140E94971468F39923B1F3552331
:1027000091F3951B550BBB27AA2762177307840704
:1027100038F09F5F5F4F220F331F441FAA1FA9F39A
:1027200035D00E2E3AF0E0E832D091505040E69588
:10273000001CCAF72BD0FE2F29D0660F771F881FE9
:10274000BB1F261737074807AB07B0E809F0BB0BDC
:10275000802DBF01FF2793585F4F3AF09E3F5105F0
:1027600078F00C946F140C94BA145F3FE4F3983E25
:10277000D4F3869577956795B795F7959F5FC9F7D9
:10278000880F911D9695879597F90895E1E0660F5A
:10279000771F881FBB1F621773078407BA0720F0D3
:1027A000621B730B840BBA0BEE1F88F7E09508953C
:1027B0000E94DF136894B1110C94BA1408950E941A
:1027C0009F1488F09F5798F0B92F9927B751B0F010
:1027D000E1F0660F771F881F991F1AF0BA95C9F7A5
:1027E00014C0B13091F00E94B914B1E008950C9476
:1027F000B914672F782F8827B85F39F0B93FCCF329
:10280000869577956795B395D9F73EF49095809521
:10281000709561957F4F8F4F9F4F0895E89409C041
:1028200097FB3EF490958095709561957F4F8F4F03
:102830009F4F9923A9F0F92F96E9BB279395F69519
:10284000879577956795B795F111F8CFFAF4BB0F97
:1028500011F460FF1BC06F5F7F4F8F4F9F4F16C0FB
:10286000882311F096E911C0772321F09EE8872F85
:10287000762F05C0662371F096E8862F70E060E041
:102880002AF09A95660F771F881FDAF7880F9695BA
:10289000879597F90895990F0008550FAA0BE0E85E
:1028A000FEEF16161706E807F907C0F01216130612
:1028B000E407F50798F0621B730B840B950B39F452
:1028C0000A2661F0232B242B252B21F408950A26B8
:1028D00009F4A140A6958FEF811D811D089597F9F8
:1028E0009F6780E870E060E008959FEF80EC0895B6
:1028F00000240A94161617061806090608950024DF
:102900000A9412161306140605060895092E039458
:10291000000C11F4882352F0BB0F40F4BF2B11F4CC
:1029200060FF04C06F5F7F4F8F4F9F4F089557FD2B
:102930009058440F551F59F05F3F71F04795880F2D
:1029400097FB991F61F09F3F79F0879508951216C4
:1029500013061406551FF2CF4695F1DF08C0161670
:1029600017061806991FF1CF869571056105089421
:102970000895E894BB2766277727CB0197F9089538
:102980000E944B1408F48FEF08950E94D8140C9401
:1029900086140E94781438F00E947F1420F095234A
:1029A00011F00C946F140C94751411240C94BA1437
:1029B0000E94971470F3959FC1F3950F50E0551F37
:1029C000629FF001729FBB27F00DB11D639FAA2784
:1029D000F00DB11DAA1F649F6627B00DA11D661FD3
:1029E000829F2227B00DA11D621F739FB00DA11DF4
:1029F000621F839FA00D611D221F749F3327A00DAE
:102A0000611D231F849F600D211D822F762F6A2F49
:102A100011249F5750409AF0F1F088234AF0EE0FAE
:102A2000FF1FBB1F661F771F881F91505040A9F7DB
:102A30009E3F510580F00C946F140C94BA145F3FC4
:102A4000E4F3983ED4F3869577956795B795F79517
:102A5000E7959F5FC1F7FE2B880F911D969587958F
:102A600097F90895DB018F939F930E94A615BF915C
:102A7000AF91A29F800D911DA39F900DB29F900DCD
:102A800011240895AA1BBB1B51E107C0AA1FBB1F3D
:102A9000A617B70710F0A61BB70B881F991F5A95EA
:102AA000A9F780959095BC01CD010895A1E21A2E59
:102AB000AA1BBB1BFD010DC0AA1FBB1FEE1FFF1FE2
:102AC000A217B307E407F50720F0A21BB30BE40B32
:102AD000F50B661F771F881F991F1A9469F7609579
:102AE0007095809590959B01AC01BD01CF01089533
:102AF000052E97FB1EF400940E948F1557FD07D0FA
:102B00000E94561507FC03D04EF40C948F15509577
:102B10004095309521953F4F4F4F5F4F08959095C9
:102B20008095709561957F4F8F4F9F4F0895A29F1D
:102B3000B001B39FC001A39F700D811D1124911D91
:102B4000B29F700D811D1124911D08950E9497154B
:102B5000A59F900DB49F900DA49F800D911D1124F1
:102B60000895EE0FFF1F881F8BBF0790F691E02D91
:102B7000199481E090E0F8940C94CB15FC0141503D
:102B8000504030F001900616D1F73197CF010895EB
:102B9000882799270895F894FFCF30322C00000041
:102BA0000000A402A802AC02B002B402B802BC0247
:102BB000000000003103DE00BE027E03EF02CD0202
:102BC000E10230312C31003A00796561722E00202B
:102BD0002800292C2000556E697854696D653A20CB
:102BE00000732E00205468652074696D6520697338
:102BF00020756E72656C6961626C652E0020546888
:102C000065206461746520697320756E72656C69F6
:102C100061626C652E0030342C300030332C302C47
:102C2000302C302C302C302C302C302C302C302CC4
:102C3000302C302C2C302C300031312C300053759E
:102C40006E004D6F6E0054756500576564005468E2
:102C5000750046726900536174002A2A2A2A2A2ABA
:102C60002A2A002450434153002A2D2D0D0A00002A
:020000040003F7
:10E000000D9489F10D94B2F10D94B2F10D94B2F129
:10E010000D94B2F10D94B2F10D94B2F10D94B2F1F0
:10E020000D94B2F10D94B2F10D94B2F10D94B2F1E0
:10E030000D94B2F10D94B2F10D94B2F10D94B2F1D0
:10E040000D94B2F10D94B2F10D94B2F10D94B2F1C0
:10E050000D94B2F10D94B2F10D94B2F10D94B2F1B0
:10E060000D94B2F10D94B2F10D94B2F10D94B2F1A0
:10E070000D94B2F10D94B2F10D94B2F10D94B2F190
:10E080000D94B2F10D94B2F10D94B2F10D94B2F180
:10E090000D94B2F10D94B2F10D94B2F10D94B2F170
:10E0A0000D94B2F10D94B2F10D94B2F10D94B2F160
:10E0B0000D94B2F10D94B2F10D94B2F10D94B2F150
:10E0C0000D94B2F10D94B2F10D94B2F10D94B2F140
:10E0D0000D94B2F10D94B2F10D94B2F10D94B2F130
:10E0E0000D94B2F141546D656761323536300041AF
:10E0F000726475696E6F206578706C6F72657220DE
:10E1000073746B3530305632206279204D4C530099
:10E11000426F6F746C6F616465723E004875683F52
:10E1200000436F6D70696C6564206F6E203D200048
:10E130004350552054797065202020203D20005FF9
:10E140005F4156525F415243485F5F3D2000415658
:10E1500052204C696243205665723D20004743437C
:10E160002056657273696F6E203D20004350552024
:10E1700049442020202020203D20004C6F7720663D
:10E18000757365202020203D20004869676820665F
:10E190007573652020203D200045787420667573D6
:10E1A00065202020203D20004C6F636B2066757336
:10E1B000652020203D20004D617220203720323024
:10E1C000313300312E362E3800342E332E350056A2
:10E1D00023202020414444522020206F7020636F70
:10E1E00064652020202020696E73747275637469E1
:10E1F0006F6E2061646472202020496E74657272B3
:10E20000757074006E6F20766563746F7200726A49
:10E210006D702020006A6D70200057686174207056
:10E220006F72743A00506F7274206E6F7420737541
:10E2300070706F72746564004D7573742062652030
:10E2400061206C6574746572002000577269747483
:10E25000696E672045450052656164696E672045B7
:10E26000450045452065727220636E743D00504F35
:10E27000525400303D5A65726F2061646472003FF1
:10E280003D43505520737461747300403D454550C3
:10E29000524F4D207465737400423D426C696E6B41
:10E2A000204C454400453D44756D70204545505215
:10E2B0004F4D00463D44756D7020464C415348001B
:10E2C000483D48656C70004C3D4C69737420492F83
:10E2D0004F20506F72747300513D51756974005234
:10E2E0003D44756D702052414D00563D73686F7707
:10E2F00020696E7465727275707420566563746FF0
:10E30000727300593D506F727420626C696E6B00BD
:10E310002A0011241FBECFEFD1E2DEBFCDBF01E046
:10E320000CBF12E0A0E0B2E0EEE1FDEF03E00BBFB6
:10E3300002C007900D92A030B107D9F712E0A0E01B
:10E34000B2E001C01D92AE30B107E1F70F9460F367
:10E350000D948DFE01E20EBF0FEF0DBF11241FBE05
:10E360000D9460F30D9400F020E030E040ED57E0B4
:10E3700005C0FA013197F1F72F5F3F4F2817390792
:10E38000C0F308959C01260F311DC901A0E0B0E043
:10E390002F5F3F4FABBFFC018791882361F08093D3
:10E3A000C6008091C00086FFFCCF8091C0008064D1
:10E3B0008093C000EACF08958DE08093C6008091DD
:10E3C000C00086FFFCCF8091C00080648093C000B5
:10E3D0008AE08093C6008091C00086FFFCCF8091C8
:10E3E000C00080648093C00008950F94C2F10F9420
:10E3F000DCF10895FC019081992359F09093C600B7
:10E400008091C00086FFFCCF8091C0008064809323
:10E41000C0003196992379F70895282F982F929567
:10E420009F70892F805D8A3308F0895F8093C600D2
:10E430008091C00086FFFCCF8091C00080648093F3
:10E44000C000822F8F70982F905D9A3308F0995FEB
:10E450009093C6008091C00086FFFCCF8091C000E1
:10E4600080648093C00008959C01FB01853691056E
:10E470001CF46330710594F0C90164E670E00F94F8
:10E480002EFE605D7F4F6093C6008091C00086FFC6
:10E49000FCCF8091C00080648093C0002B30310598
:10E4A00014F43297B4F0C90164E670E00F942EFEC4
:10E4B0006AE070E00F942EFE605D7F4F6093C600AF
:10E4C0008091C00086FFFCCF8091C0008064809363
:10E4D000C000C9016AE070E00F942EFEC0968093E0
:10E4E000C6008091C00086FFFCCF8091C000806490
:10E4F0008093C00008951F93182F8EE692EE60E07F
:10E500000F94C2F11093C6008091C00086FFFCCF2B
:10E510008091C00080648093C0000F94DCF11F9153
:10E5200008952F923F924F925F926F927F928F92B7
:10E530009F92AF92BF92CF92DF92EF92FF920F9392
:10E540001F93DF93CF93CDB7DEB762970FB6F894E2
:10E55000DEBF0FBECDBF382E622ECA01DB015C01CB
:10E560006D01772420E2222E2E010894411C511CBB
:10E570008BC081E0A81680E0B80681E0C80680E084
:10E58000D80628F0C601AA27BB270F940DF2BB2797
:10E59000AD2D9C2D8B2D0F940DF28A2D0F940DF225
:10E5A0002092C6008091C00086FFFCCF8091C00001
:10E5B00080648093C0009DE29093C6008091C0006B
:10E5C00086FFFCCF8091C00080648093C0002092C1
:10E5D000C6008091C00086FFFCCF8091C00080649F
:10E5E0008093C00019828601750188249924A1E0D6
:10E5F0003A1651F03A1620F0B2E03B1661F409C029
:10E600000BBFF701779007C0C7010F9477FE782EF4
:10E6100002C0F7017080872D0F940DF22092C60082
:10E620008091C00086FFFCCF8091C0008064809301
:10E63000C000872D8052F401EF70F0708F3520F408
:10E64000E40DF51D708204C0E40DF51D8EE280839B
:10E650000894E11CF11C011D111D0894811C911CE2
:10E6600090E18916910409F0C2CF80E190E0A0E02A
:10E67000B0E0A80EB91ECA1EDB1E198AC2010F9493
:10E68000FAF10F94DCF16A94662009F072CF629679
:10E690000FB6F894DEBF0FBECDBFCF91DF911F91B3
:10E6A0000F91FF90EF90DF90CF90BF90AF909F9031
:10E6B0008F907F906F905F904F903F902F90089534
:10E6C0002F923F924F925F926F927F928F929F9282
:10E6D000AF92BF92CF92DF92EF92FF920F931F9370
:10E6E000DF93CF93CDB7DEB7CD53D1400FB6F894BB
:10E6F000DEBF0FBECDBF01E20EBF0FEF0DBF94B75F
:10E70000F894A89514BE80916000886180936000A1
:10E7100010926000789493FF05C0E0910002F091A0
:10E7200001021995279A2F9A8091C00082608093E8
:10E73000C00080E18093C40088E18093C1000000A4
:10E74000EE24FF24870144E0A42EB12CCC24DD2448
:10E7500024C0C5010197F1F70894E11CF11C011DCB
:10E76000111D21E2E2162EE4F20620E0020720E06D
:10E77000120718F031E0C32ED12CC801B70127ECE5
:10E780003BE140E050E00F9441FE611571058105C9
:10E79000910519F485B1805885B98091C00087FD35
:10E7A00003C0C114D104A9F2A6014F5F5F4FC25E3E
:10E7B000DE4F59834883CE51D140C25EDE4F8881FF
:10E7C0009981CE51D140019711F00D9410FEC05D9A
:10E7D000DE4F19821882C053D14060E0C15DDE4F28
:10E7E0001882CF52D14088249924C35DDE4F19820C
:10E7F0001882CD52D140C05EDE4F188219821A8233
:10E800001B82C052D140CE5CDE4F188219821A8220
:10E810001B82C253D140EE24FF2487010BBFF701B6
:10E8200007911691C45CDE4F19830883CC53D14005
:10E830000D940BFEC25EDE4F28813981CE51D1404E
:10E840002130310509F52091C600C25EDE4F1982E4
:10E850001882CE51D14022C02F5F3F4F4F4F5F4FA4
:10E86000213082E138078AE7480780E0580780F0C6
:10E87000C45CDE4FE881F981CC53D140EF5FFF4F9C
:10E8800019F0EE27FF27099420E030E040E050E047
:10E890008091C00087FFE0CF2091C600C35DDE4FAE
:10E8A00048815981CD52D1404F5F5F4FC35DDE4FEC
:10E8B00059834883CD52D140213209F063C64A3092
:10E8C000510508F05FC60894811C911C53E0851621
:10E8D000910409F059C600E010E018C081E280936D
:10E8E000C6008091C00086FFFCCF8091C00080648C
:10E8F0008093C0002F5F3F4F2931310579F70F9486
:10E90000DCF10F5F1F4F0530110519F020E030E0FA
:10E91000E5CF10920A0210920B0210920C02109294
:10E920000D02109206021092070210920802109235
:10E930000902109202021092030210920402109235
:10E9400005028FEE90EE60E00F94F5F180E191EE1C
:10E9500060E00F94C2F18091C00087FFFCCF9091DE
:10E96000C600903608F09F759032B8F09093C600BC
:10E970008091C00086FFFCCF8091C00080648093AE
:10E98000C000A0E2A093C6008091C00086FFFCCF2B
:10E990008091C00080648093C000983409F4D7C18E
:10E9A0009934B8F4923409F459C1933458F490333B
:10E9B00019F1903308F4E3C59F33A1F1903409F0C5
:10E9C000DEC5BDC0953409F470C1963409F0D7C5D1
:10E9D00098C1923509F42BC2933538F49C3409F46C
:10E9E000F5C1913509F0CBC518C2963509F445C279
:10E9F000993509F0C4C567C483E792EE62E00F94CD
:10EA0000F5F110920602109207021092080210927D
:10EA1000090210920A0210920B0210920C0210923C
:10EA20000D0213C18FE792EE62E00F94F5F18FEEC5
:10EA300090EE60E00F94F5F181E291EE60E00F94CA
:10EA4000C2F187EB91EE60E00F94F5F180E391EE77
:10EA500060E00F94C2F184EE90EE60E00F94F5F167
:10EA60008FE391EE60E00F94C2F186E090E061E008
:10EA700070E00F9434F20F94DCF18DE591EE60E0DC
:10EA80000F94C2F189EC91EE60E00F94F5F18EE401
:10EA900091EE60E00F94C2F183EC91EE60E00F9490
:10EAA000F5F18CE691EE60E00F94C2F18EE10F94E7
:10EAB0000DF288E90F940DF281E00F940DF20F949E
:10EAC000DCF18BE791EE60E00F94C2F119E0E0E039
:10EAD000F0E010935700E4918E2F0F940DF20F94F5
:10EAE000DCF18AE891EE60E00F94C2F1E3E0F0E03F
:10EAF00010935700E4918E2F0F940DF20F94DCF1D8
:10EB000089E991EE60E00F94C2F1E2E0F0E0109349
:10EB10005700E4918E2F0F940DF20F94DCF188EAE8
:10EB200091EE60E00F94C2F1E1E0F0E01093570045
:10EB30001491812F0F940DF20F94DCF107CF8BE825
:10EB400092EE62E00F94F5F18BE492EE60E00F94A8
:10EB5000F5F10F94DCF100E010E019C0C8016F2D51
:10EB60000F947FFEFF2031F489E492EE60E00F9471
:10EB7000C2F10BC0F092C6008091C00086FFFCCFAE
:10EB80008091C00080648093C0000F5F1F4FC80158
:10EB900081519F41A0E0B0E0ABBFFC01F790BAE229
:10EBA000FB1621F0E2E000301E07C1F60F94DCF105
:10EBB0000F94DCF187E592EE60E00F94F5F10F948D
:10EBC000DCF1CC24DD2400E010E01EC0C8010F946D
:10EBD00077FEF82E882331F489E492EE60E00F94FA
:10EBE000C2F10BC08093C6008091C00086FFFCCFAD
:10EBF0008091C00080648093C000FE1419F00894D6
:10EC0000C11CD11C0F5F1F4FC80181519F41A0E063
:10EC1000B0E0ABBFFC01E790FAE2EF1621F022E092
:10EC20000030120799F60F94DCF10F94DCF182E6C4
:10EC300092EE60E00F94C2F1C60161E070E00F94C3
:10EC400034F20F94DCF10F94DCF110920202109276
:10EC50000302109204021092050278CE89E992EE26
:10EC600062E00F94F5F1279A2F9A16C02F9880E052
:10EC700090E0E0EDF7E03197F1F7019684369105E9
:10EC8000C1F72F9A80E090E0E0EDF7E03197F1F7DF
:10EC9000019684369105C1F78091C00087FFE6CFC9
:10ECA0008091C00087FFFCCF64C485EA92EE62E0E9
:10ECB0000F94F5F140910202509103026091040219
:10ECC0007091050281E020E10F9491F2809102029F
:10ECD00090910302A0910402B091050280509F4FD1
:10ECE000AF4FBF4F8093020290930302A0930402A0
:10ECF000B093050280509041A040B04008F426CE69
:10ED0000A4CF83EB92EE62E00F94F5F140910602FE
:10ED100050910702609108027091090280E020E1A1
:10ED20000F9491F28091060290910702A09108023F
:10ED3000B091090280509F4FAF4FBF4F80930602A2
:10ED400090930702A0930802B0930902FFCD80ECD4
:10ED500092EE62E00F94F5F183E792EE60E00F949B
:10ED6000F5F18FE792EE60E00F94F5F18BE892EE0B
:10ED700060E00F94F5F189E992EE60E00F94F5F10F
:10ED800085EA92EE60E00F94F5F183EB92EE60E09D
:10ED90000F94F5F180EC92EE60E00F94F5F187ECC2
:10EDA00092EE60E00F94F5F188ED92EE60E00F9442
:10EDB000F5F18FED92EE60E00F94F5F18AEE92EEB0
:10EDC00060E00F94F5F183E093EEBDCD87EC92EE19
:10EDD00062E00F94F5F181E40F947BF282E40F94EA
:10EDE0007BF283E40F947BF284E40F947BF285E45E
:10EDF0000F947BF286E40F947BF287E40F947BF20E
:10EE000088E40F947BF28AE40F947BF28BE40F94F6
:10EE10007BF28CE40F947BF299CD88ED92EE62E068
:10EE20000F94F5F1772473948824992409C48FED05
:10EE300092EE62E00F94F5F140910A0250910B02BC
:10EE400060910C0270910D0282E020E10F9491F22A
:10EE500080910A0290910B02A0910C02B0910D02D8
:10EE600080509F4FAF4FBF4F80930A0290930B0289
:10EE7000A0930C02B0930D0269CD8AEE92EE62E08F
:10EE80000F94F5F184EE90EE60E00F94F5F18FECC5
:10EE900091EE60E00F94F5F1662477244301CC5D98
:10EEA000DE4F19821882C452D140D401C301B695F5
:10EEB000A79597958795CA5DDE4F88839983AA8326
:10EEC000BB83C652D140CC5DDE4FA881B981C4520C
:10EED000D1401196CC5DDE4FB983A883C452D14096
:10EEE000CD0162E070E00F9434F2B0E2B093C6005E
:10EEF0008091C00086FFFCCF8091C0008064809329
:10EF0000C000EDE2E093C6008091C00086FFFCCF18
:10EF10008091C00080648093C000F0E2F093C6004E
:10EF20008091C00086FFFCCF8091C00080648093F8
:10EF3000C000CA5DDE4FE880F9800A811B81C6529D
:10EF4000D140BB27A12F902F8F2D0F940DF2CA5DBA
:10EF5000DE4F8881C652D1400F940DF2B0E2FB2EF5
:10EF6000F092C6008091C00086FFFCCF8091C00067
:10EF700080648093C0000DE30093C6008091C000C0
:10EF800086FFFCCF8091C00080648093C00010E2B7
:10EF90001093C6008091C00086FFFCCF8091C00016
:10EFA00080648093C0008BBEF3012791C65DDE4F65
:10EFB0002883CA52D140A22EBB24CC24DD2408943D
:10EFC000611C711C811C911C8BBEF3018791282E42
:10EFD0003324442455240894611C711C811C911C09
:10EFE0008BBEF3013791C55DDE4F3883CB52D140E4
:10EFF0000894611C711C811C911C8BBEF30147910C
:10F00000C45DDE4F4883CC52D140ADEFEA2EAFEF66
:10F01000FA2EAFEF0A2FAFEF1A2F6E0C7F1C801E57
:10F02000911E142D032DF22CEE24EA0CFB1C0C1D5A
:10F030001D1D0F940DF220E22093C6008091C000A8
:10F0400086FFFCCF8091C00080648093C000C65DC5
:10F05000DE4F8881CA52D1400F940DF230E23093D6
:10F06000C6008091C00086FFFCCF8091C000806404
:10F070008093C000C45DDE4F8881CC52D1400F9494
:10F080000DF240E24093C6008091C00086FFFCCFA5
:10F090008091C00080648093C000C55DDE4F888190
:10F0A000CB52D1400F940DF250E25093C6008091A4
:10F0B000C00086FFFCCF8091C00080648093C000B8
:10F0C0008FEFE8168FEFF80680E0080780E018075A
:10F0D00031F484E092EE60E00F94C2F1DFC0D80119
:10F0E000C7018070907CA070B0708050904CA040A0
:10F0F000B040D1F52FEF3FE340E050E0E222F322B1
:10F1000004231523CA5DDE4FA880B980CA80DB8046
:10F11000C652D140AE0CBF1CC01ED11EAA0CBB1CD7
:10F12000CC1CDD1C8EE092EE60E00F94C2F1BB2798
:10F13000A12F902F8F2D0F940DF28E2D0F940DF285
:10F1400030E23093C6008091C00086FFFCCF8091F2
:10F15000C00080648093C0004EE34093C60080915D
:10F16000C00086FFFCCF87C08EE09EEFA0E0B0E03D
:10F17000E822F9220A231B239CE0E91694E9F90608
:10F1800090E0090790E0190709F088C0C45DDE4FE0
:10F19000A881CC52D140EA2EFF2400E010E0102FCD
:10F1A0000F2DFE2CEE24C55DDE4FB881CB52D14031
:10F1B000EB0EF11C011D111DD601C501817090706F
:10F1C000A070B070DC0199278827E80EF91E0A1F8D
:10F1D0001B1F20EF30E040E050E0A222B322C42207
:10F1E000D52241E1AA0CBB1CCC1CDD1C4A95D1F7F1
:10F1F000EA0CFB1C0C1D1D1D81E090E0A0E0B0E0BE
:10F20000282239224A225B2235E1220C331C441C7D
:10F21000551C3A95D1F7E20CF31C041D151D57013E
:10F220006801AA0CBB1CCC1CDD1C85E192EE60E0E1
:10F230000F94C2F1C801AA27BB270F940DF2BB2778
:10F24000A12F902F8F2D0F940DF28E2D0F940DF274
:10F2500090E29093C6008091C00086FFFCCF809121
:10F26000C00080648093C000AEE3A093C60080918C
:10F27000C00086FFFCCF8091C00080648093C000F6
:10F28000C601AA27BB270F940DF2BB27AD2D9C2DDD
:10F290008B2D0F940DF28A2D0F940DF20F94DCF14B
:10F2A000CC5DDE4FE881F981C452D140F99709F471
:10F2B0004DCBF4E0EF2EF12C012D112D6E0C7F1CA7
:10F2C000801E911EF2CD83E093EE62E00F94F5F183
:10F2D0008AE192EE60E00F94C2F18091C00087FF56
:10F2E000FCCF1091C6001F751093C6008091C0001E
:10F2F00086FFFCCF8091C00080648093C0000F9493
:10F30000DCF1812F81548A3108F036C1163409F4BA
:10F3100095C0173490F4133409F44EC0143430F40B
:10F320001134F1F0123409F01DC130C0143409F465
:10F3300059C0153409F016C16BC01A3409F4C4C0A1
:10F340001B3438F4173409F48FC0183409F00AC19B
:10F35000A1C01B3409F4D2C01C3409F003C1E8C0B9
:10F360008FEF81B90DC082B1809582B980E090E0C5
:10F37000E0EDF7E03197F1F70196883C9105C1F790
:10F380008091C00087FFEFCF12B8EFC08FEF84B934
:10F390000DC085B1809585B980E090E0E0EDF7E0A3
:10F3A0003197F1F70196883C9105C1F78091C00033
:10F3B00087FFEFCF15B8D9C08FEF87B90DC088B1DF
:10F3C000809588B980E090E0E0EDF7E03197F1F7C3
:10F3D0000196883C9105C1F78091C00087FFEFCF6F
:10F3E00018B8C3C08FEF8AB90DC08BB180958BB9A7
:10F3F00080E090E0E0EDF7E03197F1F70196883C8E
:10F400009105C1F78091C00087FFEFCF1BB8ADC059
:10F410008FEF8DB90DC08EB180958EB980E090E0F0
:10F42000E0EDF7E03197F1F70196883C9105C1F7DF
:10F430008091C00087FFEFCF1EB897C08FEF80BBD1
:10F440000DC081B3809581BB80E090E0E0EDF7E0F6
:10F450003197F1F70196883C9105C1F78091C00082
:10F4600087FFEFCF11BA81C08FEF83BB0DC084B38C
:10F47000809584BB80E090E0E0EDF7E03197F1F714
:10F480000196883C9105C1F78091C00087FFEFCFBE
:10F4900014BA6BC08FEF809301010FC080910201FD
:10F4A00080958093020180E090E0E0EDF7E03197F5
:10F4B000F1F70196883C9105C1F78091C00087FF64
:10F4C000EDCF1092020151C08FEF809304010FC065
:10F4D0008091050180958093050180E090E0E0ED4A
:10F4E000F7E03197F1F70196883C9105C1F78091DB
:10F4F000C00087FFEDCF1092050137C08FEF8093DA
:10F5000007010FC08091080180958093080180E079
:10F5100090E0E0EDF7E03197F1F70196883C910536
:10F52000C1F78091C00087FFEDCF109208011DC088
:10F530008FEF80930A010FC080910B01809580931B
:10F540000B0180E090E0E0EDF7E03197F1F70196F4
:10F55000883C9105C1F78091C00087FFEDCF1092E4
:10F560000B0103C085E292EEEEC98091C00087FFD7
:10F57000FCCF8091C600EAC988E392EEE4C98CE131
:10F5800091EEE1C988249924933011F1943028F444
:10F59000913089F09230B8F408C0953061F195301F
:10F5A000F0F0963009F048C043C02B3109F042C951
:10F5B00091E06BE13FC96227C15DDE4F2883CF52E6
:10F5C000D14092E037C9B22FA0E0622793E032C960
:10F5D000822F90E0A82BB92B622794E02BC92E3004
:10F5E00009F039C3622795E0C05DDE4F19821882A9
:10F5F000C053D1401FC9E1E0F0E0EC0FFD1FC05D3A
:10F60000DE4F08811981C053D140E00FF11F2083E4
:10F610000F5F1F4FC05DDE4F19830883C053D14079
:10F6200062270A171B0709F005C9D80196E002C92D
:10F63000261709F010C303C0973009F0FBC87724E0
:10F640009981933109F412C19431C8F4963009F4C8
:10F65000D8C0973050F4923009F406C1933009F4C1
:10F660006DC0913009F059C253C0913109F477C08F
:10F67000923108F0BBC0903109F04FC2F5C098310B
:10F6800009F487C0993150F4953109F4EFC09531F0
:10F6900008F4C6C1963109F040C2C2C19A3109F4DA
:10F6A0006CC09A3108F491C09B3109F45BC09D3164
:10F6B00009F033C29D81903359F48F81882311F46E
:10F6C0009EE11CC0813011F091E018C098E916C08D
:10F6D000892F807591F0903539F4E0E0F0E089E011
:10F6E0008093570094910AC0983539F4E3E0F0E034
:10F6F00089E080935700949101C090E01A821B82A8
:10F700008D818C831D829E831F8227E030E009C299
:10F710001A8288E08B8381E48C8386E58D8382E581
:10F720008E8389E48F8383E5888780E589878FE5E9
:10F730008A8782E38B872BE030E0F3C18A818139AD
:10F7400041F0823941F0803911F48FE005C080E04A
:10F7500003C082E001C08AE01A828B8344C0772410
:10F76000739482C08D81882311F48EE12CC0813086
:10F7700011F081E028C088E926C01A82E1E0F0E0BB
:10F7800089E08093570084918B831C8224E030E0D1
:10F79000C8C18B81803589F48C81883039F4E2E0EE
:10F7A000F0E089E08093570084910DC0E0E0F0E044
:10F7B00089E080935700849106C0E3E0F0E089E09F
:10F7C0008093570084911A82DFCF8D81836C99E0FA
:10F7D000E1E0F0E0082E90935700E89507B600FCB2
:10F7E000FDCF1A821B8223E030E09BC180EC8A832C
:10F7F000CE5CDE4F188219821A821B82C253D1401E
:10F800008EC18A8190E0A0E0B0E0582F44273327D2
:10F8100022278B8190E0A0E0B0E0DC0199278827C7
:10F82000282B392B4A2B5B2B8D8190E0A0E0B0E098
:10F83000282B392B4A2B5B2B8C8190E0A0E0B0E089
:10F84000BA2FA92F982F8827282B392B4A2B5B2BCF
:10F85000220F331F441F551FC05EDE4F288339839C
:10F860004A835B83C052D1401A8259C13A81C95C34
:10F87000DE4F3883C753D140CA5CDE4F1882C6536F
:10F88000D1408B81C82EDD24CA5CDE4F488159816E
:10F89000C653D140C42AD52A933109F082C0CE5C28
:10F8A000DE4F88819981AA81BB81C253D1408050AB
:10F8B000904CA340B04030F583E0CE5CDE4FE88052
:10F8C000F9800A811B81C253D140F70100935B008C
:10F8D00080935700E89507B600FCFDCFCE5CDE4F65
:10F8E000088119812A813B81C253D14000501F4FAA
:10F8F0002F4F3F4FCE5CDE4F088319832A833B8313
:10F90000C253D140C05EDE4F488159816A817B81FC
:10F91000C052D140DE011B9631E08C9111962C91A2
:10F9200011971296C75CDE4F2883C953D140C85C3B
:10F93000DE4F1882C853D14090E0C85CDE4FE881AA
:10F94000F981C853D1408E2B9F2B0C01FA01609393
:10F950005B0030935700E89511244E5F5F4F6F4F67
:10F960007F4F0EEFE02E0FEFF02ECE0CDF1CC114F8
:10F97000D10499F685E0C05EDE4F088119812A81A5
:10F980003B81C052D140F80120935B008093570027
:10F99000E89507B600FCFDCF81E180935700E8951C
:10F9A00035C0C05EDE4F88819981AA81BB81C0527B
:10F9B000D140B695A795979587957C018601ABE0D8
:10F9C000AA2EB12CAC0EBD1E0BC0D5016D915D01F0
:10F9D000C7010F947FFE0894E11CF11C01501040F8
:10F9E0000115110591F7A60160E070E0440F551F65
:10F9F000661F771FC05EDE4FE880F9800A811B8199
:10FA0000C052D1404E0D5F1D601F711F1A82C05E33
:10FA1000DE4F488359836A837B83C052D1407FC0C5
:10FA2000FA80C55CDE4FF882CB53D140C65CDE4F16
:10FA30001882CA53D1408B81C82EDD24C65CDE4FAC
:10FA400008811981CA53D140C02AD12A1A828981DA
:10FA5000BE016D5F7F4F843121F59601C05EDE4FA0
:10FA6000E880F9800A811B81C052D1400BBFF701A9
:10FA700087919691DB018C9311969C936E5F7F4FDB
:10FA8000D801C7010296A11DB11DC05EDE4F88835B
:10FA90009983AA83BB83C052D14022503040F1F6F3
:10FAA00036C0C05EDE4F288139814A815B81C052F9
:10FAB000D1400894C108D108760100E010E0089414
:10FAC000C11CD11C0894E11CF11C011D111DE20E8A
:10FAD000F31E041F151F21BDBB27A52F942F832FB5
:10FAE00082BD2F5F3F4F4F4F5F4FF89A80B5DB01CC
:10FAF0008D93BD012E153F054007510761F7C05E8C
:10FB0000DE4F288339834A835B83C052D1409601FC
:10FB10002D5F3F4FFB01108204C080EC8A8322E0FE
:10FB200030E08BE18093C6008091C00086FFFCCF5F
:10FB30008091C00080648093C000C15DDE4FF88179
:10FB4000CF52D140F093C6008091C00086FFFCCF19
:10FB50008091C00080648093C000432F3093C60022
:10FB60008091C00086FFFCCF8091C00080648093AC
:10FB7000C000922F2093C6008091C00086FFFCCF6A
:10FB80008091C00080648093C0008EE08093C600A6
:10FB90008091C00086FFFCCF8091C000806480937C
:10FBA000C00065E1C15DDE4FE880CF52D1406E25D7
:10FBB00069276427FE01319610C090819093C6009A
:10FBC0008091C00086FFFCCF31968091C000806498
:10FBD0008093C0006927215030402115310569F715
:10FBE0006093C6008091C00086FFFCCF8091C0006A
:10FBF00080648093C00085B1805885B9772081F4F6
:10FC0000C15DDE4F0881CF52D1400F5FC15DDE4F35
:10FC10000883CF52D14090E0A0E0B0E00D941AF4F8
:10FC200027982F9880E090E020ED37E0F901319798
:10FC3000F1F7019684369105C9F700008091C00064
:10FC40008D7F8093C00081E180935700E895EE2777
:10FC5000FF270994FFCF90E00D941AF497FB092E2B
:10FC600007260AD077FD04D02ED006D000201AF443
:10FC7000709561957F4F0895F6F7909581959F4F08
:10FC80000895A1E21A2EAA1BBB1BFD010DC0AA1FDD
:10FC9000BB1FEE1FFF1FA217B307E407F50720F0F5
:10FCA000A21BB30BE40BF50B661F771F881F991F70
:10FCB0001A9469F760957095809590959B01AC01B9
:10FCC000BD01CF010895AA1BBB1B51E107C0AA1FAC
:10FCD000BB1FA617B70710F0A61BB70B881F991FED
:10FCE0005A95A9F780959095BC01CD010895F99991
:10FCF000FECF92BD81BDF89A992780B50895262F31
:10FD0000F999FECF1FBA92BD81BD20BD0FB6F89400
:0EFD1000FA9AF99A0FBE01960895F894FFCF63
:00000001FF
