:020000040800F2
:1000000040150020B9580008C1580008C55800081C
:10001000C9580008CD580008D15800080000000059
:10002000000000000000000000000000D55800089B
:10003000D958000800000000DD580008E158000809
:10004000E5580008E9580008ED580008F158000884
:10005000F5580008F9580008FD5800080159000833
:1000600005590008095900080D59000811590008E0
:1000700015590008195900081D5900082159000890
:1000800025590008295900082D5900083159000840
:1000900035590008395900083D59000841590008F0
:1000A00045590008495900084D59000851590008A0
:1000B00055590008595900085D5900086159000850
:1000C00065590008695900086D5900087159000800
:1000D00075590008795900087D59000881590008B0
:1000E00085590008895900088D5900089159000860
:1000F00095590008995900089D590008A159000810
:10010000A5590008BD500008AD590008B1590008B4
:10011000B5590008B9590008BD590008C15900086F
:10012000C5590008C9590008CD590008C550000834
:1001300030B404000D0013005A1E002B04D02B789D
:1001400023706D1C641CF6E730BC704710B40400CB
:1001500013005A1E002B02D02170641CF8E710BC5B
:10016000704770B4040025000E00002013005A1ED2
:10017000002B07D028783378C31A761C6D1C180022
:10018000002BF3D070BC70470278002A04D00278AC
:100190008A4201D0401CF7E70078704770B5040030
:1001A0002079002822D0206B050001232A0014F1B9
:1001B0003401607801F06FFE002801D0012016E0C4
:1001C00000202071606A281AE16988420ED2E07826
:1001D0000600022E0AD3E069451901232A0014F112
:1001E0003401607801F057FE761EF2E7002070BD02
:1001F00038B504000D00206B854212D02000FFF7B7
:10020000CDFF002801D001200CE001232A0014F1C9
:100210003401607801F01CFE002801D0012001E0CB
:100220002563002032BD38B504002000FFF7B6FF7B
:1002300005002800C0B200285FD12078032853D1E0
:100240006079012850D14FF40072002114F134007C
:10025000FFF77CFF552084F83202AA2084F833028D
:10026000522084F83400522084F83500612084F84C
:100270003600412084F83700722084F8180272207A
:1002800084F81902412084F81A02612084F81B02C4
:10029000206984F81C02206980B2000A84F81D02DB
:1002A0002069000C84F81E022069000E84F81F02E9
:1002B000E06884F82002E06880B2000A84F8210235
:1002C000E068000C84F82202E068000E84F8230243
:1002D000206A401C20630123226B14F134016078F2
:1002E00001F0D9FD0020607100220021607801F04A
:1002F000F5FD002801D0012005002800C0B232BD64
:100300000200891E9069801E814201D3002004E012
:100310009378D06A03FB010108007047F8B5040028
:100320000D00022D02D3A069854201D3012061E0B6
:100330002078012804D05BD303283ED02AD357E08D
:10034000280010EB50000700616A11EB57212000D4
:10035000FFF74EFF00284BD1F805C00D204490F860
:10036000340006007F1C616A11EB57212000FFF763
:100370003FFF00283CD1F805C00D204490F8340020
:1003800056EA0026E80701D5360901E03605360DA4
:1003900030002FE0616A11EB15212000FFF728FFE4
:1003A000002825D16800C005C00D204434304178B4
:1003B000007850EA012080B21CE0616A11EBD5118F
:1003C0002000FFF715FF002812D1A800C005C00DBE
:1003D000204410F13401CA788878000450EA0260A1
:1003E0004A7850EA02200978084320F0704001E082
:1003F0005FF0FF30F2BD2DE9F84304000D00160058
:10040000022D02D3A069854202D35FF0020988E081
:100410002078012805D0C0F0808003285BD043D32A
:100420007BE0280010EB50008046616A11EB5821F8
:100430002000FFF7DDFE81464846C0B200286ED19D
:100440005FEAC850C00D204434300700E80705D5E6
:10045000387810F00F0050EA061000E030003870D5
:1004600018F1010801202071616A11EB5821200068
:10047000FFF7BEFE81464846C0B200284FD15FEA72
:10048000C850C00D204434300700E80702D53000C2
:10049000000907E0387810F0F0003100090A11F087
:1004A0000F01084338703AE0616A11EB1521200012
:1004B000FFF79EFE81464846C0B200282FD1680053
:1004C000C005C00D2044343007003E70300080B2BB
:1004D000000A787023E0616A11EBD5112000FFF764
:1004E00087FE81464846C0B2002818D1A800C00542
:1004F000C00D204434300700F878000610F070403A
:1005000006433E70300080B2000A78703000000C64
:10051000B8703000000EF87001E05FF002090120B1
:1005200020714846C0B2BDE8F283F8B505000E0060
:10053000022E02D3A869864201D302272CE00027AD
:10054000A869864228D231002800FFF7E7FE0400A0
:10055000002C21D0012C02D1022007001CE014F154
:10056000010F02D10120070016E00022310028000F
:10057000FFF741FF07003800C0B200280CD12869FE
:1005800010F1010F06D02869401C2861687950F0ED
:10059000010068712600D3E73800C0B2F2BD2DE932
:1005A000F84307000C00002C08D1FE68002E02D092
:1005B000B869864211D3012006000EE02100380000
:1005C000FFF7ACFE0500022D01D2012053E0B8690F
:1005D000854201D228004EE02600B04618F10108FD
:1005E000B869804505D302208046464501D20020E7
:1005F00041E041463800FFF791FE0500002D0BD188
:100600007FF0704241463800FFF7F5FE81464846CC
:10061000C0B2002813D10AE015F1010F01D0012D5D
:1006200001D1280027E0B045D8D1002023E0002CDC
:1006300005D0424621003800FFF7DDFE81464846DE
:10064000C0B200280DD1C7F80C80386910F1010F35
:1006500010D03869401E3861787950F00100787107
:1006600008E04846C0B2012802D15FF0FF3801E03F
:100670005FF001084046BDE8F28330B403000A0091
:10068000586A001D1400640A1D68AD78B4FBF5F4C7
:1006900005682900051D002901D1002008E08C42D1
:1006A00003D228680419200002E0641A281DEFE72D
:1006B00030BC7047F8B505000E00EE80AC68012C28
:1006C00003D028688069844201D302204EE0002CC8
:1006D00006D128680078032802D12868806A0400BF
:1006E000002C10D1EC6030002968098980B2884262
:1006F00001D302203AE02868806A310089B210EB09
:100700001110286128E02868807880B20001070075
:100710003000390080B289B2884213D321002868A2
:10072000FFF7FCFD040014F1010F01D101201DE0D1
:10073000022C03D328688069844201D3022015E08B
:10074000F61BE5E7EC6021002868FFF7D9FD3100D2
:1007500089B210EB111028612868310089B211F0BC
:100760000F0149010844343068610020F2BD2DE9D1
:10077000F04106000C00F7887F1C380080B200288A
:1007800002D03069002801D1042089E0380010F03F
:100790000F0F7AD13069401C3061F068002807D112
:1007A00038003168098980B288426ED3042077E02E
:1007B000380080B231688978491E11EA101F64D16F
:1007C000F1683068FFF7AAFD0500022D01D2022072
:1007D00066E015F1010F01D1012061E03068806908
:1007E00085424CD3002C01D1042059E0F1683068D7
:1007F000FFF7D5FE0500002D01D1072050E0012DA7
:1008000001D102204CE015F1010F01D1012047E098
:100810003068FFF7C3FC002801D0012040E04FF40E
:100820000072002130683430FFF790FC29003068F6
:10083000FFF766FD316808635FF0000840463168E5
:100840008978C0B2884211D20120316808713068BD
:10085000FFF7A4FC002801D0012021E03068006BE4
:10086000401C3168086318F10108E7E73068006B45
:100870005FFA88F8B0EB08083068C0F83080F5609F
:1008800029003068FFF73CFD3061F780306839009F
:1008900089B211F00F014901084434307061002021
:1008A000BDE8F081F8B504000D0000212000FFF73D
:1008B00001FF07003800C0B2002821D10020060047
:1008C00021692068FFF794FC07003800C0B20028B7
:1008D00016D160690078E52803D0606900780028A7
:1008E00003D1761CAE4202D10AE0002006000121AD
:1008F0002000FFF73CFF07003800C0B20028DFD01F
:100900003800C0B2042801D1072007003800C0B267
:10091000F2BD10B40200CB7E887E50EA032080B284
:100920001378032B06D14B7D0C7D54EA0324A4B22B
:1009300050EA044010BC704781760A0092B2120A55
:10094000C2760A00120C02750A00120C92B2120A48
:10095000427570472DE9F84304000D0095F80080BA
:1009600038F04008B8F101080D2000FB08F85FF0EE
:1009700000090127DFF86C0A10F8091029444978AA
:1009800010F80900285C50EA01200600380080B207
:10099000002814D0300080B201F01CFB0700B8F131
:1009A000FF0F0AD234F8180001F014FB18F1010807
:1009B000390089B280B2814209D000201AE03000AB
:1009C00080B24FF6FF71884201D0002012E019F189
:1009D0000109B9F10D0FCDD32878400609D53800AB
:1009E00080B2002805D034F81800002801D000207B
:1009F00000E00120BDE8F283F0B402000C7814F0AE
:100A00003F04641E0D20444300250126DFF8D4096D
:100A1000475D0F447F78405D085C50EA0720030083
:100A2000300080B2002808D0FF2C01D300201AE04B
:100A30001E0022F81460641C07E0180080B24FF614
:100A4000FF77B84201D000200DE06D1C0D2DDDD3E5
:100A50000878400606D5FF2C01D3002003E00020D3
:100A600022F814000120F0BC7047F0B54B730F243E
:100A7000CC7200240C7300248C760024CC761500F4
:100A8000EDB26D1E0D24654300263700BFB24FF650
:100A9000FF74B4461FFA8CFCA44503D030F815C08F
:100AA00066466D1CDFF83CC91CF807E001F80E60D3
:100AB0001CF807C08C44B6461FFA8EFE5FEA1E2E55
:100AC0008CF801E0B4461FFA8CFCBCF1000F01D198
:100AD000A44666467F1C0D2FD9D3B4461FFA8CFC62
:100AE000A44503D030F81540002C01D152F040024B
:100AF0000A70F0BD2DE9FC4104000D001600984677
:100B00000B2229002000FFF713FB404680B2062885
:100B10000BDB404680B2400810EBC838308810EB41
:100B20000808B61C30880028F3D10720414689B256
:100B3000102291FBF2F302FB131130310F00390048
:100B4000C9B23A2900DBFF1D6A461754401E1FFA3E
:100B500088F8102198FBF1F8414689B20029E5D1C7
:100B60007E2111540021814204D2635C202B01D0EC
:100B7000491CF8E70B00591C082803D212F800C0E2
:100B8000401C01E05FF0200C04F803C00829F1D3F9
:100B9000BDE8F381030000200B210200D2B252080D
:100BA00012EBC0101A7810185B1C491E0029F4D1F2
:100BB000C0B270472DE9F84F040000212000FFF774
:100BC00079FD07003800C0B2002802D03800C0B25A
:100BD00075E04FF0FF09C846C34621692068FFF75A
:100BE00007FB07003800C0B2002866D16069050025
:100BF000287882465046C0B2002802D1042007005F
:100C00005BE0E87A10F03F0006005046C0B2E528ED
:100C100005D0300705D53000C0B20F2801D0CB4633
:100C200042E03000C0B20F2822D1E06900283BD05A
:100C30005FEA4A6006D5687B80461AF0BF0AD34651
:100C4000E088208450465946C0B2C9B288420DD1CE
:100C50004046697BC0B2884208D12900E069FFF7AD
:100C600079FE002802D0BBF1010B1DE0CB461BE052
:100C70005846C0B2002808D1404600902800FFF72F
:100C800089FF0099C9B2814217D0CB464FF6FF7059
:100C90002084A069C07AC00706D40B22A16928006D
:100CA000FFF75FFA002808D000212000FFF75FFD62
:100CB00007003800C0B200288FD03800C0B2BDE8AD
:100CC000F28F2DE9F84F04000D004FF0FF0AD146D6
:100CD00057465FF0040B2069002865D02169206821
:100CE000FFF786FA83465846C0B200285CD1606997
:100CF0000600307880464046C0B2002802D1042069
:100D0000834651E0F07A10F03F008DF80000404635
:100D1000C0B2E52809D09DF80000082801D10120C3
:100D200000E00020C0B2A84201D0D14633E09DF8D7
:100D300000000F281FD15FEA486006D5707B0700CE
:100D400018F0BF08C146E088208440464946C0B23A
:100D5000C9B288420DD13800717BC0B2884208D137
:100D60003100E069FFF748FE002802D0B9F101091F
:100D700011E0D1460FE04846C0B2002807D1BA467C
:100D80003000FFF707FF5FFA8AFA824502D04FF67C
:100D9000FF70208408E000212000FFF7E8FC834674
:100DA0005846C0B2002896D05846C0B2002801D09C
:100DB000002020615846C0B2BDE8F28F2DE9FE4FF9
:100DC0000400A769D4F81C800C2239006846FFF79C
:100DD000AFF9E94699F80B00800601D50620ACE092
:100DE00099F80B00C0072CD50020F8720020E061B4
:100DF00001200500280080B2642810DA2B009BB285
:100E0000424669463800FFF775FE2000FFF7D2FE24
:100E100083465846C0B2002801D16D1CEAE728007D
:100E200080B2642801D1072087E05846C0B2042868
:100E300002D05846C0B280E099F80B00F872C4F8AE
:100E40001C8099F80B00800710D5002005002800B1
:100E500080B238F81000002801D06D1CF7E7280098
:100E600080B219300D2190FBF1F901E05FF001092A
:100E7000494689B22000FFF715FD82465046C0B2B0
:100E8000002838D1B9F10109484680B2002832D093
:100E9000E188B1EB090189B22000FFF70BFC824623
:100EA0005046C0B2002826D1A069FFF773FE0600A5
:100EB00021692068FFF79CF982465046C0B200289D
:100EC00019D13300DBB24A46D2B26169E069FFF75B
:100ED000CCFD01202168087100212000FFF747FCAC
:100EE00082465046C0B2002805D1B9F101094846F2
:100EF00080B20028DCD15046C0B200281BD1216945
:100F00002068FFF775F982465046C0B2002812D11A
:100F1000202200216069FFF719F90B22A16960699D
:100F2000FFF706F9A069C07A10F01800616908732C
:100F30000120216808715046C0B2BDE8FE8F70B52F
:100F40000400E588208C4FF6FF71884201D129000A
:100F500000E0218C89B22000FFF7ACFB06003000D6
:100F6000C0B2002822D121692068FFF741F90600AC
:100F70003000C0B2002813D1E5206169087001205B
:100F800021680871E088290089B2884208D20021CE
:100F90002000FFF7ECFB06003000C0B20028E2D0D2
:100FA0003000C0B2042801D1022006003000C0B2D7
:100FB00070BD2DE9F34F81B00298066830782F2874
:100FC00002D030785C2801D1761CF7E70198C76918
:100FD0000024A04616F808B018F10108584680B25F
:100FE000202807DB584680B22F2803D0584680B20D
:100FF0005C2808D106EB080002990860584680B2C8
:10100000202827DA23E0FF2C01D3062035E10BF05E
:10101000FF0B0121584680B200F0ACFF050028000C
:1010200080B2002801D1062027E1280080B2802864
:1010300009DA290089B2DFF80008FFF7A5F80028CF
:1010400001D0062019E127F81450641CC2E75FF0B4
:10105000040A01E05FF0000A012C05D107EB44000F
:1010600030F8020C2E280DD0022C22D107EB4400C0
:1010700030F8020C2E281CD107EB440030F8040C89
:101080002E2816D1002027F8140000210B2909D2A0
:10109000A14201D22E2000E02020019A92695054F2
:1010A000491CF3E75AF02000019A9269505400203D
:1010B000E3E0002C0ED007EB440030F8020C83462E
:1010C000584680B2202803D0584680B22E2801D13D
:1010D000641EEEE7002C01D10620CEE0002027F8A8
:1010E00014000B22202101988069FFF72FF80025BA
:1010F00037F81500202803D037F815002E2801D125
:101100006D1CF5E7002D01D05AF0030A002C07D022
:1011100007EB440030F8020C2E2801D0641EF5E7DE
:101120005FF00008C1460820009037F8150083469C
:101130006D1C584680B200286BD0584680B22028DB
:1011400005D0584680B22E2804D1A54202D05AF0CC
:10115000030AEAE70098804501D2A54213D100981E
:101160000B2802D15AF0030A53E0A54201D05AF0ED
:10117000030AAC424DD32500082080460B20009086
:101180005FEA8909D1E7584680B2802812DB002146
:10119000584680B200F0EEFE8346584680B20028E2
:1011A00006D0DFF898061FFA8BFB584410F880BC75
:1011B0005AF0020A584680B2002807D0594689B230
:1011C000DFF87C06FEF7E0FF002804D05F208346AE
:1011D0005AF0030A16E0584680B2412806DB58460A
:1011E00080B25B2802DA59F002090BE0584680B25F
:1011F000612807DB584680B27B2803DA59F00109E1
:10120000BBF1200B0198806900F808B018F10108C3
:101210008BE7019880690078E52803D105200199C2
:10122000896908700098082801D15FEA8909484651
:10123000C0B210F00C000C2805D04846C0B210F027
:101240000300032801D15AF0020A5FEA8A700FD422
:101250004846C0B210F00300012801D15AF0100A2C
:101260004846C0B210F00C00042801D15AF0080A18
:101270000198806980F80BA00020BDE8FE8F020075
:101280005FF0FF3318001168002912D01168097847
:101290003039080009280AD2116849783A2906D15C
:1012A0001168891C1160012803DB180001E000218E
:1012B00008007047F2B50400009800782F2803D08A
:1012C000009800785C2805D10098401C0090002010
:1012D000A06002E020684069A060009800782028A3
:1012E00007D200212000FFF7E5F90500002060612A
:1012F00037E069462000FFF75CFE05002800C0B219
:1013000000282ED12000FFF755FC0500A069C07A07
:1013100007002800C0B2002813D02800C0B204285B
:101320000ED1B80608D50020A060002060617807C3
:10133000DFD50020050003E0780701D40520050073
:101340000FE078070DD460690600F07AC00602D479
:101350000520050005E031002068FFF7DAFAA060FB
:10136000C7E72800C0B2F2BD38B504000D00002068
:1013700020715FF0FF30206329002000FEF738FF66
:10138000002801D003202BE094F8330294F83212A5
:1013900051EA002189B24AF65520814201D002204B
:1013A0001EE0DFF8A01494F86C0094F86B20120291
:1013B00052EA004294F86A0002438A4201D10020B6
:1013C0000EE094F8880094F88720120252EA004256
:1013D00094F8860002438A4201D1002000E00120F7
:1013E00032BD00007C5800082DE9F74F86B0002080
:1013F000069908600798FFF742FF019001980028BE
:1014000001D50B20CEE1DFF84004019950F82150BE
:10141000002D01D10C20C5E1069805602878002830
:101420000FD0687800F011FD0400E00709D49DF8A2
:101430002000002803D0600701D50A20B2E1002077
:10144000B0E10020287001986870687800F0FAFC1C
:101450008DF800009DF80000C00701D50320A1E130
:101460009DF82000002805D09DF80000400701D518
:101470000A2097E1002421002800FFF775FF80462D
:101480004046C0B2012832D10021042917D20801F8
:10149000284410F5F972107900280AD0D07A937A8E
:1014A0001B0453EA0063507A53EA0023107A034383
:1014B00000E0002302A840F82130491CE5E700269F
:1014C000002E00D0761E02A850F826000400002C42
:1014D00004D021002800FFF747FF00E002208046EB
:1014E0004046C0B2002802D0761C042EEBD3404602
:1014F000C0B2032801D1012054E14046C0B2002807
:1015000001D00D204EE195F8400095F83F1051EACA
:10151000002189B2B1F5007F01D00D2042E195F89C
:101520004B0095F84A1051EA002189B200290ED1EA
:1015300095F85B0095F85A20120452EA006295F87B
:10154000590052EA002295F8580002431100E9615F
:1015500095F84400E870E878012804D0E87802287B
:1015600001D00D201EE1E8784143029195F8410039
:10157000A870A878002804D0A878A978491E084245
:1015800001D00D200EE195F8460095F8451051EA7E
:1015900000212981287A10F00F0F01D00D2001E1E0
:1015A00095F8480095F8476056EA0026B6B2002E36
:1015B0000ED195F8570095F85610090451EA0061CC
:1015C00095F8550051EA002195F8540001430E00AA
:1015D00095F8430095F8429059EA0029484680B2B0
:1015E000002801D10D20DDE0CA461FFA8AFA0298D0
:1015F00010EB0A0A28891AEB101A564501D20D2061
:10160000D0E0B6EB0A00A978B0FBF1F7002F01D1CA
:101610000D20C7E05FF0010B40F6F670874201D362
:10162000022083464FF6F670874201D3032083469B
:10163000B81CA8612C62484680B2001968621AEB97
:101640000400E8625846C0B2032817D12889002850
:1016500001D00D20A6E095F8630095F8621009040A
:1016600051EA006195F8610051EA002195F86000A7
:101670000143A962A8695FEA800819E02889002867
:1016800001D10D208EE0696A02984118A96258467E
:10169000C0B2022803D1A8695FEA400808E0A9693E
:1016A0000320414395F8188018F0010818EB510801
:1016B000E86908F2FF11B0EB512F01D20D2071E063
:1016C0005FF0FF3028612869E86080206871584623
:1016D000C0B203285BD195F8650095F8641051EA13
:1016E000002189B2012952D1611C2800FEF780FD3A
:1016F00000284CD10020687195F8330295F8321219
:1017000051EA00214AF6552089B281423FD195F82D
:10171000370095F83610090451EA006195F8350054
:1017200051EA002195F834000143484881422ED106
:1017300095F81B0295F81A12090451EA006195F810
:10174000190251EA002195F81802014340488142EC
:101750001DD195F81F0295F81E12090451EA006187
:1017600095F81D0251EA002195F81C0201432961F8
:1017700095F8230295F82212090451EA006195F8C0
:10178000210251EA002195F820020143E96085F821
:1017900000B030480188491C01800088E8800020A2
:1017A0006861002009B0BDE8F08F38B505002C0055
:1017B000002C0BD02068002808D020680078002872
:1017C00004D02068C088A188884201D0092008E0A0
:1017D0002068407800F039FBC00701D5032000E005
:1017E000002032BD73B5150001A8FFF748FD0600C3
:1017F000002E01D50B201EE0134951F82640002C85
:1018000001D0002020700098002802D00020009A0B
:101810001070009841F826000098002803D0280096
:10182000C0B2012801D0002005E0002201A96846CD
:10183000FFF7DAFDC0B276BD8C580008905700085B
:10184000B05800084641540004050020525261413E
:1018500072724161380500202DE9F24F8CB004000E
:101860009146002C01D10920D4E00020206019F01D
:101870001F0919F0FE020CA96846FFF7B5FD804666
:101880004046C0B2002840F0C3804FF4007000F022
:10189000C1FB0600002E01D11120BBE0079609A86C
:1018A00006900C996846FFF705FD804605980500EF
:1018B0004046C0B2002803D1002D01D10620804649
:1018C00019F01C0F5FD04046C0B200280CD0404633
:1018D000C0B2042803D16846FFF770FA804659F079
:1018E0000809059805000BE0E87A10F0110F02D006
:1018F0000720804604E05FEA497001D50820804651
:101900004046C0B2002850D15FEA09704DD500F0C2
:101910008DFB824685F80EA0504680B2000AE8731F
:101920005046000C28745046000E68740020E8727F
:1019300000202877002068770020A8770020E8772B
:1019400029000098FEF7E5FF070000212800FEF7B8
:10195000F3FF012000990871002F26D00098D0F8DD
:1019600030B039000098FEF7E0FD80464046C0B236
:1019700000281AD1781E0099C86059460098FEF7D1
:1019800037FC804611E04046C0B200280DD1E87A0D
:10199000C00602D50420804607E05FEA897004D5BE
:1019A000E87AC00701D5072080464046C0B200282B
:1019B00008D15FEA097001D559F020090098006B41
:1019C000E0612562300000F02BFB4046C0B20028E9
:1019D0001ED184F806900020E07129000098FEF7DF
:1019E00098FF2061E87FA97F090451EA0061687FC0
:1019F00051EA0021287F0143E1600020A06000201F
:101A0000A06100206062009820602068C088A080EB
:101A10004046C0B20DB0BDE8F08F2DE9F24F82B064
:101A2000824614001E00DDF8089000203060504609
:101A3000FFF7BBFE8DF801009DF80100002802D0E1
:101A40009DF8010002E19AF80700002802D09AF8F8
:101A50000700FBE09AF80600C00701D40720F5E074
:101A6000DAF80C10DAF80800091A01910198A0427E
:101A700001D201980400002C00F0E780DAF8080099
:101A8000C00540F0BF80DAF80800400ADAF800101C
:101A90008978491E08408DF800009DF80000002854
:101AA0002AD1DAF80800002803D1DAF8100007007C
:101AB00011E0DAF82400002806D0DAF808105046C1
:101AC000FEF7DBFD070006E0DAF81410DAF8000094
:101AD000FEF724FC0700022F04D202208AF8070038
:101AE0000220B3E017F1010F04D101208AF80700AA
:101AF0000120ABE0CAF81470DAF81410DAF800002C
:101B0000FEF7FEFB0100002904D102208AF807003D
:101B100002209BE08B469DF8000010EB0B0B200091
:101B2000400A0500002D3CD0DAF8000080789DF8CE
:101B300000106918884206D2DAF8000081789DF812
:101B40000000091A0D002B005A464946DAF8000039
:101B5000407800F07DF9002804D001208AF80700C1
:101B6000012073E09AF80600400614D5DAF8180050
:101B7000B0EB0B00A8420ED24FF400721AF128010C
:101B8000DAF81830B3EB0B034FF40070434309EB62
:101B90000300FEF7CDFA4FF4007000FB05F080461D
:101BA00045E0DAF8180058452AD09AF806004006B1
:101BB00016D50123DAF818201AF12801DAF8000006
:101BC000407800F068F9002804D001208AF8070066
:101BD00001203BE09AF8060010F0BF008AF80600EA
:101BE00001235A461AF12801DAF80000407800F083
:101BF0002FF9002804D001208AF80700012025E0F1
:101C0000CAF818B0DAF80800C005C00DD0F50070A9
:101C10008046444500D2A0464246DAF80800C00596
:101C2000C00D504410F128014846FEF781FAC14426
:101C3000DAF8080018EB0000CAF80800306818EB62
:101C400000003060B4EB080415E70020BDE8FE8F0B
:101C5000F8B504002000FFF7A8FD07003800C0B267
:101C6000002851D1A07980064ED5A07940060FD525
:101C70000123A26914F128012068407800F00BF9D3
:101C8000002801D0012041E0A07910F0BF00A07130
:101C9000E1692068FEF7ACFA07003800C0B20028FE
:101CA00032D1206A0600F07A50F02000F072E0682D
:101CB0003077E06880B2000A7077E068000CB07797
:101CC000E068000EF07721693000FEF735FE00F085
:101CD000ADF90500B575280080B2000AF07528003E
:101CE000000C30762800000E70760020B0740020C2
:101CF000F074A07910F0DF00A07101202168087154
:101D00002068FEF790FA07003800C0B2F2BD10B5A7
:101D100004002000FFF79CFF0100C9B2002901D197
:101D200000212160C0B210BDF1B596B0012216A904
:101D30006846FFF759FB07003800C0B200287DD184
:101D40004FF4007000F066F90600002E01D111205A
:101D500076E0079609A8069016996846FFF7AAFA52
:101D600007003800C0B2002805D10698C07A800666
:101D700001D5062007003800C0B200285BD10598C5
:101D80000400002C02D10620070004E0E07AC0071E
:101D900001D50720070021000098FEF7BAFD0500D5
:101DA0003800C0B200282BD1E07AC00628D5022D19
:101DB00002D20220070023E0242269460CA8FEF785
:101DC000B7F90E9502210CA8FEF774FC0700380045
:101DD000C0B2002814D100210CA8FEF772FF070042
:101DE0003800C0B2002803D000984069854201D174
:101DF000072007003800C0B2042801D100200700E6
:101E00003800C0B2002816D16846FFF798F80700DE
:101E10003800C0B200280ED1002D04D0290000984F
:101E2000FEF783FB07003800C0B2002803D10098FA
:101E3000FEF7F9F90700300000F0F2F83800C0B200
:101E400017B0F0BD0100002070470100002070476E
:101E5000FEB504000D0016001F00012F0CD14FF439
:101E60000070009072020023280000F0C3FD00F013
:101E7000C0F90028FBD10CE001974FF400700090EE
:101E800072020023280000F038FE00F0B2F90028AA
:101E9000FBD10020FEBDFEB504000D0016001F00A2
:101EA000012F0CD14FF40070009072020023280023
:101EB00000F0B8FE00F09DF90028FBD10CE001977E
:101EC0004FF40070009072020023280000F032FFEF
:101ED00000F08FF90028FBD10020FEBDF8B596B0C8
:101EE00004000D00160001272800C0B2002805D00C
:101EF000022813D005D3032816D01AE000200700CB
:101F000017E0684600F031FBDDE91201400A40EAC3
:101F1000C150490A3060002007000AE04FF4007009
:101F200030600020070004E04FF4007030600020B3
:101F300007003800C0B217B0F0BD30B4002513E080
:101F400050F8042BD30744BFA9F101039A18091FC5
:101F5000042942F8045BFAD213468C0744BF15806B
:101F60009B1CC90748BF1D7050F8041B0029E7D10E
:101F700030BC704730B40200100080B2802801DA13
:101F8000100024E000290FD0100080B2B0F5807F4F
:101F900001DB00201BE01C4813009BB200EB430058
:101FA000B0F58070008812E0002003009BB2802B07
:101FB0000ADA1300144C0500ADB234F815409BB298
:101FC000A34201D0401CF0E7803000F0FF0080B257
:101FD00030BC704710B400220C4B33F812100029AB
:101FE00007D0010033F8124089B2A14201D0521C3F
:101FF000F2E733F81210002903D0054830F8120038
:10200000FFE780B210BC704790560008D05200081D
:10201000B054000810B50400200002F069F910BDAA
:1020200010B50400200002F03FFD10BD00207047F5
:1020300080B50121302002F047FD4FF4F850ADF893
:10204000000003208DF8020018208DF80300694677
:10205000DFF8BC0B02F04AFD0420ADF80000694631
:10206000DFF8B00B02F042FD01214FF4806002F076
:102070001DFD0121022002F019FD01BD78B58BB0D4
:1020800004000D00DFF8900B02F0DEFDDFF88C6B32
:102090000021300002F0BEFDDFF8840B00900194B7
:1020A00010200290280080080390002004908020D7
:1020B00005904FF4007006904FF4006007900020E8
:1020C00008904FF40050099000200A9069463000B3
:1020D00002F082FD01220221300002F0A9FD01215F
:1020E000300002F097FD0CB070BD78B58BB00400E5
:1020F0000D00DFF8240B02F0A7FDDFF8206B0021B4
:10210000300002F087FDDFF8180B009001940020EA
:102110000290280080080390002004908020059001
:102120004FF4007006904FF4006007900020089074
:102130004FF40050099000200A906946300002F0E8
:102140004BFD01220221300002F072FD012130001E
:1021500002F060FD0CB070BD1CB500208DF80000D1
:10216000FFF766FF02F07CFD00F073F88DF80000C9
:102170009DF80000002802D09DF8000038E000F033
:1021800059F98DF800009DF80000002802D09DF854
:1021900000002DE0DFF8900B032101700021416069
:1021A000002181600021C1600021016100214161A5
:1021B00002F072FDDFF8744B200000F0D6F98DF8C4
:1021C00000009DF80000002806D1B4F85400000477
:1021D00000F0FAFB8DF800009DF80000002805D102
:1021E0004FF4006000F09EFB8DF800009DF80000A9
:1021F00016BD10B5042400F00FF801000800C0B2AD
:10220000042801D1002006E00800C0B2FF2801D157
:10221000022000E0012010BD80B50020009000F0F9
:1022200010F801280BD1684600F04EFE002801D0BE
:10223000FF2005E00098400A10F00F0000E0FF20AA
:1022400002BD81B001208DF800009DF8000001B0B2
:1022500070472DE9F84300208DF800000025002686
:1022600000240027DFF8C00AB2210170002141607C
:10227000002181600021C1600021016100214161D4
:1022800002F00AFD032002F021FD012002F019FDF9
:10229000DFF89C8A0020C8F800000020C8F804007D
:1022A0000020C8F808000020C8F80C004FF480692E
:1022B000C8F81090404602F02AFD00F098FE8DF814
:1022C00000009DF80000002802D09DF80000AFE05B
:1022D0004FF4D570C8F800000820C8F8040040206A
:1022E000C8F808000020C8F80C00C8F81090404654
:1022F00002F00DFD00F094FE8DF800009DF8000046
:10230000002807D10120DFF8B01B08605FF0804093
:10231000070015E00020C8F800003720C8F80400C6
:102320004020C8F808000020C8F80C00C8F8109039
:10233000404602F0ECFC372000F0A2FE8DF80000D1
:102340000020C8F800003720C8F804004020C8F872
:1023500008000020C8F80C00C8F81090404602F0B1
:10236000D6FC372000F08CFE8DF800009DF80000B0
:1023700000285BD1002C47D14FF6FF70864243D234
:102380000020C8F800003720C8F804004020C8F832
:1023900008000020C8F80C00C8F81090404602F071
:1023A000B6FC372000F06CFE8DF800009DF80000B0
:1023B000002802D09DF800003AE0DFF8F80A384320
:1023C000C8F800002920C8F804004020C8F8080018
:1023D0000020C8F80C00C8F81090404602F097FCA6
:1023E00000F0D3FE8DF800009DF80000002802D018
:1023F0009DF800001CE0002002F0A1FC0500280070
:10240000C00F0400761CB5E74FF6FF70864205D377
:102410001B208DF800009DF8000009E015F08045B4
:10242000002D03D00220DFF8901A08609DF800000C
:10243000BDE8F2837CB500240120ADF8000002F075
:102440004EFC002802D12520C0B28DE0DFF8685A8A
:10245000286804282AD0DFF8D8080021016002216A
:102460004160C02181600021C1604FF48061016141
:1024700002F04DFC00F0A4FE04002000C0B20028D1
:1024800002D02000C0B26FE0DFF8306A002002F016
:1024900056FC3060042002F052FC7060082002F00C
:1024A0004EFCB0600C2002F04AFCF0602868002866
:1024B00008D02868012805D02868062802D0286896
:1024C00002281AD1DFF86808002101600321416069
:1024D000402181600021C1604FF48061016102F000
:1024E00016FC6946032000F08FFE04002000C0B2F5
:1024F000002802D02000C0B236E02868042831D07D
:10250000BDF80000DFF8B8190860DFF82408BDF84E
:1025100000100904016009214160C021816000218F
:10252000C1604FF48061016102F0F1FB00F048FEF0
:1025300004002000C0B2002802D02000C0B213E086
:10254000DFF88059002002F0FAFB2860042002F036
:10255000F6FB6860082002F0F2FBA8600C2002F095
:10256000EEFBE8600020C0B276BD2DE9F84F010017
:1025700000208DF801000024DFF83C59286881F81C
:102580005600DFF83C090068A1F85400DFF8340970
:102590000668360E3200D2B292090A70C6F3830280
:1025A0004A7016F003028A7007683F0CCF70D0F8AB
:1025B00000C05FEA1C2C81F804C0D0F800E081F86C
:1025C00005E0D0F804805FEA18684246D2B21201F2
:1025D000CA80D0F804905FEA1949CB884A46D2B243
:1025E0001209D2B21343CB8019F00F020A7242686B
:1025F000120A1300DBB2DB094B72C2F380138B7239
:10260000C2F34013CB72C2F300130B7300234B735E
:102610002B68002B02D02B68012B5DD11300DBB29D
:102620009B0213F440630B61D0F804E00B6974461D
:10263000E4B253EA84030B61D0F808C05FEA1C6C73
:102640000C696346DBB29B09DBB21C430C61CCF323
:10265000C2030B751CF007034B7583681B0C1C0031
:10266000E4B264098C75C3F38204CC755C0014F089
:1026700006040C768468240A22000D7E1400E4B25D
:1026800055EAD4150D760C69641C0025C1E9124584
:102690005FF0010AD1E912670C7EA41C1AFA04F457
:1026A000E517A4FB068904FB079905FB0699C1E918
:1026B000128991F908401AFA04FAC1F850A0D1E938
:1026C00012670C6D0025A4FB068904FB079905FB26
:1026D0000699C1E9128928E02B68022B25D14668AA
:1026E0003300DBB21B0413F47C130B6187683F0ECD
:1026F0000B693C00E4B253EA04230B61D0F808C034
:102700005FEA1C4C0C696346DBB21C430C618368B6
:102710001B0A1A000C69641C5FF400235C4300254B
:10272000C1E912454FF400730B65C2F380134B7679
:10273000530013F07E038B7683688DF800308B7E18
:102740009DF80040E4B253EAD4138B769DF8003034
:1027500013F07F03CB76C3681B0E1C00E4B2E409C0
:102760000C77C3F341144C77C3F382048C779C003D
:1027700014F00C04CC77C468240CCE7F2500EDB295
:1027800056EA9516CE77C4F3401581F820500025FF
:1027900081F8215014F0010581F82250C5682D0AF6
:1027A0002E00F6B2F60981F82360C5F3801681F891
:1027B0002460C5F3401681F82560C5F3001681F842
:1027C0002660C5F3810681F8276015F0030681F8BD
:1027D0002860C0688DF800009DF80000C0B2400875
:1027E00081F82900012081F82A00DFF8D0663068DE
:1027F000000E8DF800009DF8000081F82C00306874
:10280000000C8DF800009DF800000002C8853068BB
:10281000000A8DF80000CF8D9DF800000743CF859A
:1028200030688DF800009DF80000000608637068AD
:10283000000E8DF80000086B9DF8007050EA07400C
:1028400008637068000C8DF80000086B9DF800703C
:1028500050EA072008637068000A8DF800000F6BCB
:102860009DF8000007430F6370688DF800009DF825
:10287000000081F83400B7683F0E81F83570D6F853
:1028800008E05FEA1E4E7046C0B200068863D6F8C4
:1028900008805FEA1828886BC4465FFA8CFC50EA0F
:1028A0000C408863B0688DF80000886B9DF800C00C
:1028B00050EA0C208863D6F80CC05FEA1C6CD1F893
:1028C00038906046C0B250EA0909C1F83890D6F88D
:1028D0000C905FEA194991F83CA04846C0B25AEA08
:1028E000101A81F83CA04846C0B2000210F4706093
:1028F000C887D6F80CA05FEA1A2AB1F83EB0504655
:10290000C0B250EA0B0BA1F83EB0F6683000C0B27E
:10291000400881F84000012081F841009DF8010045
:10292000BDE8F28F38B504000025DFF88C15086883
:10293000032802D12720C0B245E00868002805D04E
:102940000868012802D0086802283AD1B4F5805FEF
:1029500002D12720C0B236E0B4F5006F19D10120B2
:1029600000F0A2FC05002800C0B2002829D1DFF841
:10297000B803032101700021416000218160002122
:10298000C1604FF4006101610021416102F084F9EE
:1029900017E0002000F088FC05002800C0B20028E5
:1029A0000FD1DFF884030321017000214160002171
:1029B00081600021C160002101610021416102F0BC
:1029C0006BF92800C0B232BD38B504000025DFF82D
:1029D0006003046007214160402181600021C160E3
:1029E0004FF48061016102F092F9072000F048FB8A
:1029F000C0B232BD2DE9F84F070014001D000A9E39
:102A00005FF000080020DFF8681608700020DFF88B
:102A1000641608600020DFF8601608600020DFF808
:102A20005C160860DFF890040068022806D14FF4B5
:102A300000700600640A44EAC5546D0ADFF8F0929B
:102A4000300080B2C9F800001020C9F8040040200E
:102A5000C9F808000020C9F80C004FF4806AC9F8D2
:102A600010A0484602F053F9102000F009FB8346FD
:102A70005846C0B2002802D05846C0B23BE0DFF84A
:102A800020085FF0FF310160310089B24160902180
:102A900081600221C160002101610121416102F0D8
:102AA00052F9C9F800401120C9F804004020C9F8C3
:102AB00008000020C9F80C00C9F810A0484602F030
:102AC00026F9112000F0DCFA80464046C0B200280A
:102AD00002D04046C0B20EE0012140F22A3002F09E
:102AE00003F9012002F00EF9310089B23800FFF736
:102AF000FCFA4046C0B2BDE8F28F2DE9F84F07005E
:102B000014001D000A9EDDF82C8000208DF80000C6
:102B10000020DFF85C1508700020DFF85815086009
:102B20000120DFF8541508600020DFF85015086018
:102B3000DFF884030068022806D14FF40070060015
:102B4000640A44EAC5546D0ADFF8E491300080B2AB
:102B5000C9F800001020C9F804004020C9F8080096
:102B60000020C9F80C004FF4806AC9F810A048464C
:102B700002F0CDF8102000F083FA83465846C0B228
:102B8000002802D05846C0B23FE0DFF814075FF0DB
:102B9000FF310160310089B201FB08F141609021F1
:102BA00081600221C160002101610121416102F0C7
:102BB000CAF8C9F800401220C9F804004020C9F83A
:102BC00008000020C9F80C00C9F810A0484602F01F
:102BD0009EF8122000F054FA81464846C0B2002800
:102BE00002D04846C0B210E0012140F22A3002F083
:102BF0007BF8012002F086F8310089B201FB08F170
:102C00003800FFF772FA4846C0B2BDE8F28F000004
:102C1000001001400014014000F000104404024084
:102C2000808001402DE9F84F070014001D000A9E26
:102C30005FF000080020DFF8381408700020DFF88B
:102C4000341408600020DFF8301408600020DFF83A
:102C50002C14086098480068022806D14FF40070D0
:102C60000600640A44EAC5546D0ADFF8C4903000D7
:102C700080B2C9F800001020C9F804004020C9F84B
:102C800008000020C9F80C004FF4806AC9F810A0B1
:102C9000484602F03CF8102000F0F2F9834658460E
:102CA000C0B2002802D05846C0B23BE0C9F800408C
:102CB0001820C9F804004020C9F808000020C9F80D
:102CC0000C00C9F810A0484602F021F8182000F0C6
:102CD000D7F980464046C0B2002802D04046C0B274
:102CE00020E0DFF8BC055FF0FF310160310089B200
:102CF0004160902181600021C160002101610121BA
:102D0000416102F020F8012140F22A3001F0ECFF8D
:102D1000310089B23800FFF7B1F9012001F0F2FF6C
:102D20004046C0B2BDE8F28F880400203004002085
:102D3000D00400202DE9F14F14001D000A9E0B9FC6
:102D40005FF000080020DFF8281308700020DFF88B
:102D5000241308600120DFF8201308600020DFF84A
:102D60001C13086054480068022806D14FF4007014
:102D70000600640A44EAC5546D0ADFF8689630001C
:102D800080B2C9F800001020C9F804004020C9F83A
:102D900008000020C9F80C004FF4806AC9F810A0A0
:102DA000484601F0B4FF102000F06AF98346584607
:102DB000C0B2002802D05846C0B278E0404800684F
:102DC0000004C9F800003720C9F804004020C9F801
:102DD00008000020C9F80C00C9F810A0484601F00E
:102DE00096FF372000F04CF980464046C0B20028DC
:102DF00002D04046C0B25AE0C9F800701720C9F8A6
:102E000004004020C9F808000020C9F80C00C9F8E7
:102E100010A0484601F07BFF172000F031F98346EF
:102E20005846C0B2002802D05846C0B23FE0C9F8A8
:102E300000401920C9F804004020C9F8080000200B
:102E4000C9F80C00C9F810A0484601F060FF19202D
:102E500000F016F980464046C0B2002802D0404635
:102E6000C0B224E0DFF838045FF0FF3101603100C8
:102E700089B201FB07F14160902181600021C160AE
:102E8000002101610121416101F05DFF012140F25A
:102E90002A3001F029FF012001F034FF310089B20E
:102EA00001FB07F10098FFF7E9F84046C0B2BDE822
:102EB000F28F00000000108020050020F4040020A4
:102EC00024050020E404002070B504000025002C37
:102ED00002D12620C0B222E0DFF80805DFF8D016C4
:102EE0000968090401600D214160402181600021D1
:102EF000C1604FF48061016101F009FF0D2000F015
:102F0000BFF806003000C0B2002802D03000C0B2C6
:102F100005E0002001F013FF20603000C0B270BD5A
:102F200080B54FF4807001F036FF00280AD00020F1
:102F30004F4908704FF4807001F038FF01204D496F
:102F400008603CE0022001F026FF002806D00220A5
:102F500001F02CFF02204649087030E0082001F003
:102F60001AFF002806D0082001F020FF0420404965
:102F7000087024E0202001F00EFF002806D0202059
:102F800001F014FF06203A49087018E0102001F003
:102F900002FF002806D0102001F008FF0520344968
:102FA00008700CE04FF4007001F0F5FE002806D028
:102FB0004FF4007001F0FAFE07202D49087000213F
:102FC0004CF23A3001F090FE2948007802BD80B5FD
:102FD000DFF8E0050068DFF8E015084206D00120C0
:102FE000B0490860DFF8D40501F02EFE01BD38B508
:102FF00000255FF48034002C06D0802001F0BDFE57
:10300000002801D1641EF6E7002C02D10320C0B2D3
:1030100005E040F2FF5001F0BBFE2800C0B232BD17
:10302000F8B500255FF48034DFF87C05066816F0FB
:10303000450F05D1002C03D0641E01680E00F6E791
:10304000002C01D0700706D50327042001F0A0FE54
:103050003800C0B20AE0700606D50027402001F013
:1030600097FE3800C0B201E02800C0B2F2BD0000F7
:103070003B0500202C050020280500202C80014065
:10308000F8B504000025DFF85803066816F0450F70
:1030900002D101680E00F9E7700706D50327042066
:1030A00001F076FE3800C0B26EE0F00706D50127C9
:1030B000012001F06DFE3800C0B265E001F03BFE7A
:1030C0002100C9B2884202D01020C0B25CE040F2B8
:1030D000FF5001F05DFE002001F031FE0100DFF83D
:1030E000E004014202D12800C0B24DE0002901D520
:1030F0001C2049E0480001D5092045E0880001D5A1
:103100000A2041E0C80001D50B203DE0080101D5AF
:103110000C2039E0480101D50D2035E0C80101D56A
:103120000E2031E0080201D50F202DE0480201D524
:10313000102029E0880201D5112025E0C80201D520
:10314000122021E0080301D513201DE0480301D51A
:10315000142019E0880301D5152015E0C80301D516
:10316000162011E0080401D517200DE0480401D510
:10317000182009E0880401D5192005E0080701D5C9
:103180001A2001E02800C0B2F2BD70B50024DFF8BB
:103190001804066816F0450F02D101680E00F9E721
:1031A000700706D50325042001F0F2FD2800C0B207
:1031B00005E040F2FF5001F0EBFD2000C0B270BD11
:1031C00070B50024DFF8E003066816F0450F02D161
:1031D00001680E00F9E7700706D50325042001F009
:1031E000D7FD2800C0B20EE0F00706D5012501206A
:1031F00001F0CEFD2800C0B205E040F2FF5001F022
:10320000C7FD2000C0B270BD2DE9F04104000D00E3
:103210000026DFF89403076817F0450F02D1016814
:103220000F00F9E7780707D55FF00308042001F0E5
:10323000AFFD4046C0B231E0F80707D55FF00108A6
:10324000012001F0A5FD4046C0B227E001F073FD6A
:103250002100C9B2884202D01020C0B21EE040F264
:10326000FF5001F095FD002001F069FD010011F40F
:10327000604F05D10800000C28803000C0B20DE07E
:10328000880401D5132009E0480401D5102005E089
:10329000080401D50F2001E03000C0B2BDE8F08184
:1032A000A0040020300500202DE9FC410400002688
:1032B000684600210022C0E90012002001F03FFD15
:1032C000800102D50E20C0B287E0DFF8E4726946C3
:1032D000386880B200F088F805002800C0B20028E5
:1032E00002D02800C0B278E02000C0B201283AD154
:1032F0000198400334D5DFF8B462386800043060C8
:10330000372070604020B0600020F0604FF480688B
:10331000C6F81080300001F0FAFC3720FFF7B0FE4D
:1033200007003800C0B2002802D03800C0B254E014
:1033300002203060062070604020B0600020F06005
:10334000C6F81080300001F0E2FC0620FFF798FE7E
:103350000100C9B2002901D0C0B23EE0C0B23CE0D9
:103360002520C0B239E00198C00334D5DFF83C62B3
:10337000386800043060372070604020B060002062
:10338000F0604FF48068C6F81080300001F0BFFC98
:103390003720FFF775FE07003800C0B2002802D0C2
:1033A0003800C0B219E00020306006207060402074
:1033B000B0600020F060C6F81080300001F0A7FC7B
:1033C0000620FFF75DFE0100C9B2002901D0C0B29E
:1033D00003E0C0B201E02520C0B2BDE8F6810000E4
:1033E00034800140D00400202DE9FC4704000D008A
:1033F00000265FF0000A684600210022C0E90012A2
:10340000DFF8A8810820C8F800001020C8F80400E0
:103410004020C8F808000020C8F80C004FF480696C
:10342000C8F81090404601F072FC1020FFF728FE0B
:1034300007003800C0B2002802D03800C0B2B1E0A6
:103440005B4800680004C8F800003720C8F8040092
:103450004020C8F808000020C8F80C00C8F81090F8
:10346000404601F054FC3720FFF70AFE82465046E2
:10347000C0B2002802D05046C0B293E051485FF07D
:10348000FF31016008214160302181600221C1606B
:10349000002101610121416101F055FC0020C8F8C3
:1034A00000003320C8F804004020C8F808000020BD
:1034B000C8F80C00C8F81090404601F028FC3320F2
:1034C000FFF7DEFD07003800C0B2002802D0380048
:1034D000C0B267E03448006840F22A6108420CD16B
:1034E0005FF4001001F049FC0028F3D001F042FC29
:1034F000694641F82600761CECE7082001F03DFC07
:10350000002805D0082001F043FC0420C0B249E0A7
:10351000022001F032FC002805D0022001F038FC26
:103520000220C0B23EE0202001F027FC002805D098
:10353000202001F02DFC0620C0B233E04FF40070D3
:1035400001F01BFC002806D04FF4007001F020FCB5
:103550000720C0B226E040F2FF5001F019FC0098AD
:103560000099090211F47F0151EA00610098000AF4
:1035700010F47F400143009851EA10616960684689
:1035800041684268120212F47F0252EA0162416805
:10359000090A11F47F410A43406852EA10622A6026
:1035A0003800C0B2BDE8F68734800140D004002066
:1035B00024050020000402400020001000F000104C
:1035C00008E0FFFDA004002000F5E07002689142D1
:1035D00003D343681A44914202D380680028F5D18E
:1035E0007047DFF86C17086890B94FF48050486056
:1035F0004FF480324FF0FF30C86008610420DFF8DC
:1036000054378A604861C3F8BC01DFF84C07086092
:103610000120704701F1080313F0070F0EBF0023CC
:10362000C3F1080303F007031944D21A8161C26091
:1036300042F001034B60091D4FF0280C41F802C015
:10364000DFF80C271369C36170472DE9FC4B07466F
:1036500001F1080010F0070F0FBF8946C0F1080004
:1036600000F0070001EB000902F1080111F0070F5B
:1036700006D002F10800C0F1080000F00700024483
:103680001546A5EB090009EB0306A0EB030B43F07D
:103690000303C9F80430AE4228BF01F0ADFB28791E
:1036A000C10758BF01F0A8FBBBF1100F38BF01F0F4
:1036B000A3FBB869854208D1F9688B44C7F80CB000
:1036C000BE614BF00100706051E1786985420AD11A
:1036D000B9688B44C7F808B07E614BF00100706098
:1036E00046F80BB043E1686800F00301012940F09F
:1036F000AC80C008C0000190C0081F2839D8AC6851
:10370000D5F80C800090454508BF01F075FBA54237
:1037100008BF01F071FB68680099C008C000B0EBF9
:10372000C10F18BF01F068FB009907F1280000EBFA
:10373000C100844206D039698C42C0F08180E268C1
:10374000AA427DD1A04506D1009839680123834063
:103750009943396076E0804506D0396988456FD352
:10376000D8F80800A8426BD1C4F80C80C8F808400B
:1037700068E0EC68D5F81880AC420CD0A8683969CC
:10378000884223D3C268AA4204BFA168A9421DD1BE
:10379000C460A0601CE005F114010C6834B905F1A7
:1037A00010010C68A4B101E011460C6804F1140288
:1037B0001068002802BF04F1100210680028F3D13D
:1037C0003869814202D300220A6001E001F014FB53
:1037D000B8F1000F36D0E96907F5987000EB810069
:1037E0000268954208D10460A4B9E86979680122A9
:1037F00082409143796025E03869804508D3D8F844
:103800001010A94214BFC8F81440C8F8104001E0D5
:1038100001F0F2FAB4B139698C4211D3C4F81880BE
:10382000286928B1884226BF2061846101F0E4FA4A
:10383000686938B13969884202D36061846101E006
:1038400001F0DAFA01996D188B446968490849005A
:1038500069604BF0010070604FEADB0446F80BB082
:103860001F2C23D807F1280000EBC4084546BBF104
:10387000100F38BF01F0C0FA386820FA04F1CA0707
:1038800005D4012101FA04F404433C6007E0D8F8B0
:103890000800396988422CBF054601F0ADFAC8F826
:1038A0000860EE60B560C6F80C8060E05FEA1B203F
:1038B00008BF002123D0B0F5803F28BF1F211ED2B2
:1038C000A0F58072120C02F008029040A0F5805121
:1038D000090C01F004018840A0F580431B0CC2F1E3
:1038E0000E0203F00203521AD21A984002EBD032B1
:1038F000D01D2BFA00F101F0010101EB4201F16151
:10390000002307F59872736102EB810033617A68D6
:1039100022FA01F3DC0707D4012303FA01F1114372
:1039200079600660B0611DE002681F291DBF49086B
:10393000C1F119010BFA01F1594600E00246506845
:10394000C008C000584516D002F11003C80F03EBA1
:103950008003490018680028F0D13869834204D3F5
:103960001E60B261F660B66001E001F045FA09F14F
:103970000800BDE8F68B396990688A4228BF884202
:10398000F3D3C6609660B060F2600020B061EEE7ED
:103990002DE9FE4F04468B46A5692E469046994672
:1039A0003146FFF711FE0268416802EB010AAAF1F5
:1039B000270111F007000EBF0021C1F1080101F03D
:1039C00007010AEB0100A0F12F0706F110018F4259
:1039D00038BF374607F11802002101920091A8F183
:1039E000280259462046FFF715FE07F1080010F09F
:1039F000070F18BF01F000FA1B20786007F10801DB
:103A000004F5E07090E80C5081E80C50C0F800B06C
:103A1000C0F80480C0F80C908160072201980099DA
:103A200000E0001D491C00F1080353454260F8D333
:103A30000129D8BF01F0E0F9B74200F09580BF1B23
:103A4000301D321DC15949084900D15147F00100CC
:103A500070604FEAD70BF751BBF11F0F21D804EB71
:103A6000CB0000F12805A846102F38BF01F0C4F99B
:103A7000206820FA0BF1CA0705D4012101FA0BF1E5
:103A80000843206006E0A868216988422CBF804670
:103A900001F0B2F9AE60C8F80C60C6F80880F560B5
:103AA0006FE0380A08BF002123D0B0F5803F28BF5F
:103AB0001F211ED2A0F58072120C02F00802904065
:103AC000A0F58051090C01F004018840A0F5804365
:103AD0001B0CC2F10E0203F00203521AD21A9840D4
:103AE00002EBD032D01D27FA00F101F0010101EB09
:103AF000420104EB8102002302F59870F1617361C9
:103B00003361626822FA01F3DB0707D4012303FA69
:103B100001F1114361600660B0611DE002681F2978
:103B20001DBF4908C1F1190107FA01F1394600E04A
:103B300002465068C008C000B84216D002F1100317
:103B4000C80F03EB8003490018680028F0D12069F2
:103B5000834204D31E60B261F660B56011E003B029
:103B6000BDE8F04F01F048B90BE0216990688A4246
:103B700028BF8842F3D3C6609560B060F260002031
:103B8000B06103B0BDE8F08F2DE9F041704F0546FC
:103B90003868884608B9FFF724FDB96801EB0800CA
:103BA0002F30491E20EA010188457DD205F5D876DF
:103BB000B06828B1326889188A4275D2884273D3B6
:103BC00001F01EF901001CBF0C6811F1010F6BD050
:103BD0003068201805F5D87230605368984238BFB5
:103BE00018467060A86960BB286908B1814200D29C
:103BF0002961316174610020F0614FF0FF303A6853
:103C00006A62286205F128020020D260926002F107
:103C1000080757611761801C10322028F5D34D48E2
:103C2000854208BFA4F1280228D055F8040CC0082A
:103C300005EBC002A2F108000A19121A283A01463F
:103C40001CE005F5E070024600E092687AB3136864
:103C500057681F44B942F8D1137B1F0727D4AB69BB
:103C60001768BB4223D3D2F804C06744BB421ED2BC
:103C7000A444C2F804C0E868A96922182846FFF7DE
:103C8000C9FC1FE08068C0B103689342FAD1027B8F
:103C9000130712D4026801604368E4184460434685
:103CA0002846BDE8F041D0E40020BDE8F0812A6953
:103CB000914238BF29610A19E5E7002322462846C8
:103CC000FFF766FEE8688045EED2A0EB0800A96920
:103CD000E86001EB0802AA6140F00100506048F082
:103CE0000300486001F10800BDE8F08130B4184BD2
:103CF0001A6882B94FF480525A604FF480344FF002
:103D0000FF32DA601A610422124D9C605A61C5F8D4
:103D1000BC21114A1A6011F1400F17D28269AAB171
:103D2000C368283199420BD200F5E0710C68A242B9
:103D300003D34D682C44A24202D389680029F5D1EF
:103D4000C16999423CBF4FF0FF32C26100F0A8BE8A
:103D5000B8040020000200206859883C2DE9F84F83
:103D600000258946090AC9F1000B08BF002323D0AA
:103D7000B1F5803F28BF1F231ED2A1F58072120C1F
:103D800002F008029140A1F580531B0C03F00403DC
:103D90009940A1F58044240CC2F10E0204F0020403
:103DA000D21A121BA14002EBD132D11D29FA01F324
:103DB00003F0010303EB4203074607F5987858F830
:103DC000230030B31F2B0FBF4C465C08C4F119040D
:103DD00009FA04F4AC46594600E064004268D2088F
:103DE000D200A2EB09028A4203D21100054600F07C
:103DF0006981426910304FEAD47B50F82B00002AC9
:103E00001CBF824294460028E7D18B466046B0BB77
:103E1000BDBB012202FA03F35B00584279680343F9
:103E20000B4000F04E81584203405B1E180B00F01F
:103E30001000C340590901F00801CB409A0802F074
:103E40000402D3405C0804F002040818E340101890
:103E5000C3F3400620183044F3401B1858F82300E1
:103E60000DE008464168C908C900A1EB09015945A0
:103E70003CBF8B46054601690029F2D14069002804
:103E8000F0D1002D00F01D81B868A0EB090083453A
:103E900080F0178139698D42C0F011816868C008CF
:103EA000C00009EB0B01884218BF00F0A5FF05EB2D
:103EB0000906B54280F00381EC68D5F818A0AC4241
:103EC0000CD0A8683969884223D3C268AA4204BFCB
:103ED000A168A9421DD1C460A0601CE005F11401D5
:103EE0000C6834B905F110010C68A4B101E0114669
:103EF0000C6804F114021068002802BF04F11002DB
:103F000010680028F3D13869814202D300220A6088
:103F100001E000F071FFBAF1000F36D0E86908EB5C
:103F2000800001688D4209D10460200014D1E86945
:103F30007968012282409143796026E038698245A0
:103F400008D3DAF81010A94214BFCAF81440CAF80E
:103F5000104001E000F050FFBCB13869844212D338
:103F6000C4F818A0286930B13969884226BF206199
:103F7000846100F041FF686938B13969884202D331
:103F80006061846101E000F037FFBBF1100F0CD2DB
:103F9000D94449F00300291D6860281D51F8092003
:103FA00042F0010240F8092088E049F0030068600F
:103FB0004BF0010070604FEADB0046F80BB01F28A1
:103FC0001DD807EBC00101F12804396821FA00F27D
:103FD000D307A34605D4012202FA00F00843386053
:103FE00006E0A068396988422CBF834600F004FFD0
:103FF000A660CBF80C60C6F808B0F4605EE05FEA3B
:104000001B2008BF002123D0B0F5803F28BF1F210F
:104010001ED2A0F58072120C02F008029040A0F5AA
:104020008051090C01F004018840A0F580431B0C6D
:10403000C2F10E0203F00203521AD21A984002EBA8
:10404000D032D01D2BFA00F101F0010101EB420149
:10405000F16100227261326108EB81007A6822FA14
:1040600001F4E30707D4012404FA01F11143796054
:104070000660B0611DE002681F291DBF4908C1F13B
:1040800019010BFA01F1594600E002465068C008D8
:10409000C000584518D002F11003C80F03EB80038D
:1040A000490018680028F0D13869834204D31E60A3
:1040B000B261F660B66001E000F09EFE14E100F02F
:1040C0009BFE0EE18B46A2E6396990688A4228BFC2
:1040D0008842F1D3C6609660B060F2600020B061A3
:1040E000ECE72DE9F84F06468846716848420140E2
:1040F000491E080B00F01000C1404A0902F00802F6
:10410000D1408B0803F00403D9404D0805F00205A7
:104110001018E9401818C1F34004281806F5987AD9
:104120002044E14009185AF821104868C008C0002E
:104130000D46A0EB080909E001464868C008C00028
:10414000A0EB080048453CBF81460D4608690028A1
:10415000F2D149690029F0D130698542C0F0BF80B1
:104160006968C90808EB090BC900594518BF00F078
:1041700043FE05EB08008542009080F0B080EF68B8
:10418000AC69AF420CD0A8683169884223D3C268B9
:10419000AA4204BFB968A9421DD1C760B8601CE03B
:1041A00005F114010F6837B905F110010F68A7B1C7
:1041B00001E011460F6807F114021068002802BFE1
:1041C00007F1100210680028F3D13069814202D350
:1041D00000220A6001E000F00FFE002C31D0E869F7
:1041E0000AEB800001688D4208D107608FB9E86949
:1041F0007168012282409143716022E030698442FB
:1042000005D32169A94214BF6761276101E000F06D
:10421000F3FDB7B13069874211D3BC61286930B171
:104220003169884226BF3861876100F0E5FD686921
:1042300038B13169884202D37861876101E000F0CA
:10424000DBFDB9F1100F0BD24BF00300291D6860A4
:10425000281D51F80B2042F0010240F80B203DE0F0
:1042600048F003012A1D696049F0010042F8080086
:10427000009941F80990D6F808804FEAD80BBBF1B5
:10428000200F28BF00F0B8FDB8F1000F22D006EBD8
:10429000CB00776900F12804A246B8F1100F38BFAF
:1042A00000F0AAFD306820FA0BF1CA0705D40121FD
:1042B00001FA0BF10843306006E0A06831698842DA
:1042C0002CBF824600F098FDA760CAF80C70C7F8B2
:1042D00008A0FC60C6F808900098706104E000F047
:1042E0008BFD0020BDE8F28F05F10800BDE8F28FDC
:1042F0002DE9FE4F0546AFF30080F52DDFF89C67F2
:1043000080F004810B2D31BF10250B35ED08ED0039
:104310003068EC08E04010F0030F46D0C04300F0D6
:104320000100041906F1280000EBC408E700D8F8E2
:1043300008506868C008C000B84218BF00F05CFDB3
:10434000D5F80890454508BF00F056FD4D4508BF1B
:1043500000F052FD6868C008C000B84218BF00F005
:104360004BFDC84507D13068012101FA04F420EA69
:10437000040434600DE03069814508D3D9F80C108D
:10438000A94204D1C8F80890C9F80C8001E000F0F7
:1043900033FD47F00300291D6860281DCA5942F00B
:1043A0000102C25105F10804F8E0B168A94280F0A9
:1043B000BE80002800F0A1804FF0010808FA04F147
:1043C000490000FA04F4484201430C4060420440B2
:1043D000641E200B00F01000C440610901F00801C8
:1043E000CC40A20802F00402D440630803F00203A8
:1043F0000818DC401018C4F3400718183818FC409F
:10440000241806F1280000EBC40AE700DAF8089047
:10441000D9F80400C008C000B84218BF00F0ECFC96
:10442000D9F808B0D14508BF00F0E6FCD94508BF6F
:1044300000F0E2FCD9F80400C008C000B84218BF80
:1044400000F0DAFCDA4506D1306808FA04F420EA14
:10445000040434600DE031698B4508D3DBF80C00AF
:10446000484504D1CAF808B0CBF80CA001E000F030
:10447000C3FC7F1B45F0030009F10402C9F80400E6
:1044800047F00101515109EB05020192D751B4687F
:104490004FEAD40ABAF1200F28BF00F0ADFC34B3C4
:1044A000CDF800A006F12800756900EBCA0AD346D2
:1044B000102C38BF00F0A0FC3168009821FA00F2FF
:1044C000D30704D408FA00F00843306007E0DAF8B4
:1044D0000800316988422CBF834600F08DFCCAF881
:1044E0000850CBF80C50C5F808B0C5F80CA0B76060
:1044F00009F108040198706150E07068C0B3294662
:104500003046FFF7EEFD040011D047E015F1400FF3
:1045100028BF4FF0FF350AD20B35ED087068ED006B
:1045200028B129463046FFF719FC040036D1B0689F
:10453000A8421DD3411B726910290AD3501970611A
:10454000B16041F001034360415045F003055560FF
:104550000BE00021B1607161131D40F00301516057
:10456000111D1C5844F001040C5002F1080415E020
:10457000F06885420DD2401BB169F0604A19B26102
:1045800040F00100506045F003054D6001F1080462
:1045900004E029463046FFF7F7FA0446AFF30080FF
:1045A0002046FFF7EEBA002800D170472DE9F0470A
:1045B000A0F10805AFF30080DFF8E06431698D42B7
:1045C000C0F05982686800F00302012A00F05382AB
:1045D000C2084FEAC209C20705EB090839D42C68A2
:1045E00010F0030F00F04982604205448D42A1445F
:1045F000C0F041827069854200F0C680E408202C3A
:104600005ED2D5F80CA0AF68554508BF00F0F4FBAA
:10461000BD4208BF00F0F0FB6868C008C000B0EB06
:10462000C40F18BF00F0E8FB06F1280000EBC4003F
:10463000874205D031698F423FD3FA68AA423CD104
:10464000BA452CD13068012101FA04F420EA0404AF
:104650003460454580F00F82D8F80440E00740F10F
:104660000A82A10700F16881B069804540F09F800F
:10467000F168B5618944C6F80C9049F001006860A2
:1046800071698D4202D100207061B060F0694845C7
:1046900080F0F38100213046FFF728FBEDE18245F1
:1046A00006D03069824508D3DAF80810A94204D14F
:1046B000C7F80CA0CAF80870CBE700F09DFBC8E76C
:1046C000EC68AF69AC420BD0A868884222D3C168BD
:1046D000A94204BFA268AA421CD1C460A0601BE02A
:1046E00005F11402146834B905F1100214689CB184
:1046F00001E01A46146804F114031868002802BF88
:1047000004F1100318680028F3D18A4202D3002173
:10471000116001E000F070FB002F9AD0E96906F506
:10472000987000EB81000268954209D10460200076
:1047300011D1E8697168012282409143716088E774
:104740003069874205D33969A94214BF7C613C6155
:1047500001E000F051FB002C3FF47BAF31698C424B
:10476000ABD3A761286928B1884226BF2061846144
:1047700000F042FB686900283FF46BAF3169884262
:104780009BD36061846164E798F8040000F0030043
:1047900003287FF45EAFC6F8089049F00101D8F80D
:1047A000040040084000C8F8040069600AE070692D
:1047B00080450AD1B16875618944C6F8089049F00E
:1047C0000100686045F8099057E1E408E400A1445D
:1047D000E408202C3AD2D8F80CA0D8F80870D045BC
:1047E00008BF00F009FBB84508BF00F005FBD8F88A
:1047F0000400C008C000B0EBC40F18BF00F0FCFA02
:1048000006F1280000EBC400874207D031698F42CF
:10481000C0F08580FA68424540F08180BA4507D1F2
:104820003068012101FA04F420EA0404346078E0DD
:10483000824506D03069824571D3DAF808104145C7
:104840006DD1C7F80CA0CAF808706AE0D8F80C401F
:10485000D8F8187044450DD0D8F80800316988425E
:1048600023D3C268424504BFA16841451DD1C4603D
:10487000A0601CE008F114010C6834B908F11001C3
:104880000C68A4B101E011460C6804F11402106830
:10489000002802BF04F1100210680028F3D130692B
:1048A000814202D300220A6001E000F0A5FA002F45
:1048B00037D0D8F81C1006F5987000EB810002681C
:1048C00090450AD10460200012D1D8F81C0071680C
:1048D000012282409143716023E03069874205D311
:1048E0003969414514BF7C613C6101E000F084FA04
:1048F000BCB131698C4212D3A761D8F8100028B13D
:10490000884226BF2061846100F076FAD8F814004E
:1049100038B13169884202D36061846101E000F0FE
:104920006BFA49F00100686045F8099071698D42A1
:104930000BD1C6F80890A0E064086400C8F80440F1
:1049400049F00100686045F809904FEAD907202F27
:1049500022D206F1280000EBC704A046B9F1100FDF
:1049600038BF00F049FA306820FA07F1CA0705D4C9
:10497000012101FA07F70743376006E0A0683169B3
:1049800088422CBF804600F037FAA560C8F80C506A
:10499000C5F80880EC6070E05FEA192008BF0021CC
:1049A00023D0B0F5803F28BF1F211ED2A0F5807212
:1049B000120C02F008029040A0F58051090C01F0A1
:1049C00004018840A0F580431B0CC2F10E0203F0E5
:1049D0000203521AD21A984002EBD032D01D29FAA3
:1049E00000F101F0010101EB420106F5987200238C
:1049F00002EB8100E9616B612B61726822FA01F3BD
:104A0000DC0707D4012303FA01F11143716005604B
:104A1000A8611DE002681F291DBF4908C1F11901E5
:104A200009FA01F1494600E002465068C008C0009A
:104A3000484526D002F11003C80F03EB800349005C
:104A400018680028F0D13069834204D31D60AA6140
:104A5000ED60AD6001E000F0CFF9306A401E3062D9
:104A60000BD1D6F8C80100E080680028FCD14FF0D7
:104A7000FF30306201E000F0BFF9AFF30080BDE825
:104A8000F087316990688A4228BF8842E3D3C560C5
:104A90009560A860EA600020A861DEE700020020BF
:104AA00030BC002070470000FFF77DBD0A00D2B285
:104AB000002A04D00B4A13680343136003E0094A39
:104AC00013688343136070470A00D2B2002A04D0EF
:104AD000054A13680343136003E0034A13688343E2
:104AE000136070471410024018100240F0B5002205
:104AF0000023002400250026002791F803C01CF0A5
:104B00000F0C91F803E05FEACE6E02D58A7852EA84
:104B10000C0C0A7812062AD0026816000022140033
:104B2000082C23D25FF0010E1EFA04F215000A8849
:104B30002A401300AB4217D1A20015000F22AA4051
:104B40001700BE431CFA05F21643CA78282A04D17E
:104B50001EFA04FEC0F814E006E0CA78482A03D121
:104B60001EFA04FEC0F810E0641CD9E706600A884B
:104B7000B2F5807F2EDB4268160000221400082C5C
:104B800027D25FF0010E14F108021EFA02F215009E
:104B90000A882A401300AB4219D1A20015000F2247
:104BA000AA401700BE431CFA05F21643CA78282A09
:104BB00004D114F108021EFA02F24261CA78482AAE
:104BC00005D114F108021EFA02FEC0F810E0641CC0
:104BD000D5E74660F0BD000030B4002304686FF3F1
:104BE0000E148D680A6A15430A6915434A6915430C
:104BF0008A691543CA6915434A6A15438A6A154387
:104C00002C430460CA6842600A6882604A68C260D5
:104C100030BC70470A00D2B2002A04D0026852F0B9
:104C20000102026003E0026852085200026070470D
:104C30001300DBB2002B03D003680B43036002E0D8
:104C400003688B4303607047C10002D503490860C5
:104C500001E001490860704704000240040402407A
:104C6000002054490860002053490860002053493F
:104C70000860002052490860002052490860002066
:104C80005149086000205149086051485149086065
:104C9000002051490860704730B40022464C236818
:104CA0004E490B400578C1680D4381680D43016989
:104CB0000D4341680D4341690D432B43236030BCD4
:104CC00070470100C9B2464A1160704739490A6805
:104CD000920892000A600A6802430A6070473548E9
:104CE000006810F0030070470A00D2B2002A04D016
:104CF000394A13680343136003E0374A1368834358
:104D0000136070470100C9B2364A1160704730B471
:104D100000220168294B1960294C2368DB0ADB0259
:104D2000456881680D43C1680D4301690D432B43FC
:104D3000236030BC70472C480068C0B270472B49D4
:104D400008180068704730B4002201681D4B1960D4
:104D500041681D4B19601D4C236833F0F7038568CB
:104D6000C1680D4301690D4341690D432B43236025
:104D700030BC70471E4800687047010000221D4883
:104D80000068084201D0012000E00020C0B2704756
:104D90001049086070470100002216480068084268
:104DA00001D0012000E00020C0B27047094908602E
:104DB00070470000008001400480014008800140ED
:104DC0000C80014024800140288001402C8001405B
:104DD000FF07C000388001403C8001400081FFFF98
:104DE000A00030428C053042108001401480014008
:104DF0008080014034800140012000F017B800009D
:104E00000749086808B1002070470648C008C0007C
:104E100008600549C908C900091A0160704700BF48
:104E200034050020471500204025002080B5AFF351
:104E30000080024A11001820ABBEFBE726000200EA
:104E4000010049B200290DD4012210F01F018A404F
:104E5000884903005BB25B0941F82320BFF34F8F01
:104E6000BFF36F8F7047BFF34F8F83490A6812F407
:104E7000E062824802430A60BFF34F8F00BFFDE744
:104E800080B500F023F97E497E4800F059F900F022
:104E900026F901BD80B500F019F97A4800F026F92D
:104EA00000F01DF901BD7748006870472DE9F84111
:104EB000ADF5806D9BB0FFF7F6FF7149884215D1C3
:104EC000FFF7E8FF72B670495FF0006000F0EDF99F
:104ED0006E486F49096801606E49006808606A4859
:104EE000006880F3088808688047C0E0FDF734F95F
:104EF00031208DF8000000208DF8010000208DF891
:104F0000020001208DF80300684600F09BF93B2069
:104F10008DF8000001208DF80100684600F092F93C
:104F20005D4C2000FDF721FBB4F854000004FDF7B0
:104F30004BFD01224EA18EA8FCF754FC002840F046
:104F4000968001A8554991E81C0080E81C000020CB
:104F50008DF80F00524C012201A904A8FCF77CFC3B
:104F600020702078002872D100F0B0F800242000D2
:104F7000C0B2EB280ADA2000C0B24FF40062424906
:104F800002FB001000F0B2F8641CF0E7454C0798F3
:104F90002060454D00202860444E3B483060216829
:104FA0002868091AB1F5007F1BD3414F414B4FF4DC
:104FB0000072390004A8FCF730FD286810F5007075
:104FC00028605FF00008B8F5007FE8D257F80810B5
:104FD000306800F0B5F83068001D306018F1040842
:104FE000F1E72068296888421CD0314F314B226894
:104FF0002868121A390004A8FCF70FFD5FF00008BA
:1050000021682868091A88450AD257F808103068BC
:1050100000F096F83068001D306018F10408EFE7E2
:105020002068286000F05BF804A8FCF770FE01A877
:10503000FCF77AFE3B20FFF703FF3120FFF700FF6C
:10504000FFF728FFFFF71CFFFFF70DFF0FE00E48EB
:10505000016819480140B1F1005F06D1FFF71AFF5E
:10506000FFF70EFFFFF7FFFE01E0FFF7FCFEFEE794
:105070003000000080E100E00CED00E00400FA05E3
:105080005555AAAA0098000800A00008180500209D
:1050900004A000081C050020D80300209858000830
:1050A0003A050020080500200C050020100500200E
:1050B00000000020140500200000FF2F80B5FDF740
:1050C0002FFF01BD80B5FDF782FF01BDDFF80C01A8
:1050D000DFF80C110160DFF80C1101607047DFF898
:1050E0000801016851F0800101607047F8B50400C3
:1050F000042740F6FF76300000F07CF80500280019
:10510000C0B2042819D1DFF8E070386850F002000E
:105110003860DFF8D8000460386850F0400038602C
:10512000300000F067F805002800C0B2012804D064
:10513000396841F6FD70014039602800C0B2F2BD07
:10514000F8B504000D0004270F2000F053F8060006
:105150003000C0B2042829D1DFF88C70386850F0D4
:105160000100386025800F2000F044F80600300070
:10517000C0B2042811D12800000CA11C08800F2007
:1051800000F038F806003000C0B201280ED03968AF
:1051900041F6FE700140396008E03000C0B20128DD
:1051A00004D0396841F6FE70014039603000C0B269
:1051B000F2BD04210E480268D20701D501200AE0A1
:1051C0000268520701D5022005E00068C00601D53B
:1051D000032000E00420C0B2704700000420024019
:1051E00023016745AB89EFCD102002401420024017
:1051F0000C20024070B504000425FFF7DAFF06001A
:105200003000C0B2012808D1002C06D000F00CF804
:10521000FFF7CFFF0600641EF2E7002C01D1052046
:1052200006003000C0B270BD81B000200090FF20A9
:1052300000900098002803D00098401E0090F8E7E6
:1052400001B07047F0B4002200230F24C178002978
:105250001FD01949096811F4E061D1F5E061090A2C
:10526000D1F104052B00CC4045789D40867826403E
:1052700035432D012A00114D0678AA5501250678DF
:1052800016F01F06B5400E4E07787F1146F82750DE
:1052900009E00121057815F01F05A940094D0678A0
:1052A000761145F82610F0BC7047074A0A400243C1
:1052B000064B1A60704700000CED00E000E400E0CF
:1052C00000E100E080E100E080FFFF1F08ED00E06A
:1052D00061006200630064006500660067006800AA
:1052E00069006A006B006C006D006E006F0070005A
:1052F000710072007300740075007600770078000A
:1053000079007A00A100A200A300A500AC00AF00C4
:10531000E000E100E200E300E400E500E600E70071
:10532000E800E900EA00EB00EC00ED00EE00EF0021
:10533000F000F100F200F300F400F500F600F800D0
:10534000F900FA00FB00FC00FD00FE00FF00010177
:1053500003010501070109010B010D010F011101F5
:1053600013011501170119011B011D011F01210165
:1053700023012501270129012B012D012F013101D5
:105380003301350137013A013C013E014001420140
:105390004401460148014B014D014F0151015301A8
:1053A0005501570159015B015D015F016101630115
:1053B0006501670169016B016D016F017101730185
:1053C000750177017A017C017E019201B103B2037C
:1053D000B303B403B503B603B703B803B903BA0301
:1053E000BB03BC03BD03BE03BF03C003C103C303B0
:1053F000C403C503C603C703C803C903CA033004F3
:1054000031043204330434043504360437043804D8
:1054100039043A043B043C043D043E043F04400488
:105420004104420443044404450446044704480438
:1054300049044A044B044C044D044E044F045104E7
:105440005204530454045504560457045804590490
:105450005A045B045C045E045F04702171217221B4
:1054600073217421752176217721782179217A2180
:105470007B217C217D217E217F2141FF42FF43FF53
:1054800044FF45FF46FF47FF48FF49FF4AFF4BFFE8
:105490004CFF4DFF4EFF4FFF50FF51FF52FF53FF98
:1054A00054FF55FF56FF57FF58FF59FF5AFF0000A2
:1054B00041004200430044004500460047004800C8
:1054C00049004A004B004C004D004E004F00500078
:1054D0005100520053005400550056005700580028
:1054E00059005A002100E0FFE1FFE5FFE2FFE3FF82
:1054F000C000C100C200C300C400C500C600C70090
:10550000C800C900CA00CB00CC00CD00CE00CF003F
:10551000D000D100D200D300D400D500D600D800EE
:10552000D900DA00DB00DC00DD00DE0078010001DC
:1055300002010401060108010A010C010E0110011B
:1055400012011401160118011A011C011E0120018B
:1055500022012401260128012A012C012E013001FB
:1055600032013401360139013B013D013F01410166
:105570004301450147014A014C014E0150015201CE
:105580005401560158015A015C015E01600162013B
:105590006401660168016A016C016E0170017201AB
:1055A0007401760179017B017D01910191039203E0
:1055B00093039403950396039703980399039A031F
:1055C0009B039C039D039E039F03A003A103A303CE
:1055D000A403A503A603A703A803A903AA03100411
:1055E00011041204130414041504160417041804F7
:1055F00019041A041B041C041D041E041F042004A7
:105600002104220423042404250426042704280456
:1056100029042A042B042C042D042E042F04010435
:10562000020403040404050406040704080409042E
:105630000A040B040C040E040F0460216121622192
:1056400063216421652166216721682169216A211E
:105650006B216C216D216E216F2121FF22FF23FF21
:1056600024FF25FF26FF27FF28FF29FF2AFF2BFF06
:105670002CFF2DFF2EFF2FFF30FF31FF32FF33FFB6
:1056800034FF35FF36FF37FF38FF39FF3AFF0000A0
:10569000020403041A2053041E2026202020212067
:1056A000AC203020090439200A040C040B040F0438
:1056B0005204182019201C201D2022201320142001
:1056C0000000112159043A205A045C045B045F0471
:1056D000A0000E045E040804A4009004A600A70025
:1056E0000104A9000404AB00AC00AD00AE00070447
:1056F000B000B100060456049104B500B600B7002E
:10570000510416215404BB005804050455045704E1
:1057100010041104120413041404150416041704CD
:10572000180419041A041B041C041D041E041F047D
:10573000200421042204230424042504260427042D
:10574000280429042A042B042C042D042E042F04DD
:10575000300431043204330434043504360437048D
:10576000380439043A043B043C043D043E043F043D
:1057700040044104420443044404450446044704ED
:10578000480449044A044B044C044D044E044F049D
:10579000808182828485868788898A8B8C8D8E8F92
:1057A000809192939495969798998A9B8C8D8E8FE1
:1057B000A0A2A2A3A4A5A6A7A8A9AAABACADAEAF70
:1057C000B0B1B2B2A5B5B6B7A8B9AABBA3BDBDAFBB
:1057D000C0C1C2C3C4C5C6C7C8C9CACBCCCDCECF51
:1057E000D0D1D2D3D4D5D6D7D8D9DADBDCDDDEDF41
:1057F000C0C1C2C3C4C5C6C7C8C9CACBCCCDCECF31
:10580000D0D1D2D3D4D5D6D7D8D9DADBDCDDDEDF20
:1058100010B5074979441831064C7C44163404E02D
:105820000A68081D114488470146A142F8D110BDFD
:10583000080000001400000003C7FFFF3C05000043
:10584000000000200000000000F00DF8002801D04A
:10585000FFF7DEFFAFF300800020AFF30080FFF71B
:1058600025FB00F002F80120704700F001B80000AD
:1058700007463846FFF7DAFAFBE7000001030507A1
:10588000090E10121416181C1E000000222A3A3CA1
:105890003E3F7C7F0000000070726F6772616D2E6A
:1058A00062696E00AFF30080AFF30080FFF7CCFFBA
:1058B0002B2C3B3D5B5D000000480047A5580008CD
:1058C000FFF7FEBFFFF7FEBFFFF7FEBFFFF7FEBF0C
:1058D000FFF7FEBFFFF7FEBFFFF7FEBFFFF7FEBFFC
:1058E000FFF7FEBFFFF7FEBFFFF7FEBFFFF7FEBFEC
:1058F000FFF7FEBFFFF7FEBFFFF7FEBFFFF7FEBFDC
:10590000FFF7FEBFFFF7FEBFFFF7FEBFFFF7FEBFCB
:10591000FFF7FEBFFFF7FEBFFFF7FEBFFFF7FEBFBB
:10592000FFF7FEBFFFF7FEBFFFF7FEBFFFF7FEBFAB
:10593000FFF7FEBFFFF7FEBFFFF7FEBFFFF7FEBF9B
:10594000FFF7FEBFFFF7FEBFFFF7FEBFFFF7FEBF8B
:10595000FFF7FEBFFFF7FEBFFFF7FEBFFFF7FEBF7B
:10596000FFF7FEBFFFF7FEBFFFF7FEBFFFF7FEBF6B
:10597000FFF7FEBFFFF7FEBFFFF7FEBFFFF7FEBF5B
:10598000FFF7FEBFFFF7FEBFFFF7FEBFFFF7FEBF4B
:10599000FFF7FEBFFFF7FEBFFFF7FEBFFFF7FEBF3B
:1059A000FFF7FEBFFFF7FEBFFFF788BBFFF7FEBFA5
:1059B000FFF7FEBFFFF7FEBFFFF7FEBFFFF7FEBF1B
:1059C000FFF7FEBFFFF7FEBFFFF7FEBFFFF7FEBF0B
:0459D000FFF778BBAA
:04000005080058A5F2
:00000001FF
