:020000040000FA
:100000000C9431020C9457060C9430060C9459024F
:100010000C9459020C9459020C9459020C945902F4
:100020000C9459020C9459020C9459020C946C09CA
:100030000C9459020C9459020C9459020C945902D4
:100040000C94E6050C9459020C94F3080C94CD081A
:100050000C9459020C9459020C9459020C945902B4
:100060000C9459020C94590200000000250028004D
:100070002B0000000008000201000003040700003C
:10008000000000000000517565727920696E74658A
:100090007276616C3A200044533138423230202D60
:1000A00020696E697465642E0044533138423230E1
:1000B000202D206E6F7420666F756E6420647572DB
:1000C000696E6720696E69742121210044533138BB
:1000D000423230202D206E6F2070696E206E756D5B
:1000E00062657221212100496E69742044533138C0
:1000F0004232302E2E2E00496E69742073656E7365
:100100006F72732E2E2E0000000000240027002A9C
:100110000044533138423230202D20636F6E7665B3
:10012000727465642E0044533138423230202D20E1
:100130006E6F7420666F756E642121210044533107
:1001400038423230202D206E6F2070696E206E751F
:100150006D626572212121004453313842323020D2
:100160002D20737461727420636F6E76657273698B
:100170006F6E2E2E2E005374617274206D65617344
:100180007572652E2E2E00526561642073656E7344
:100190006F72732E2E2E0053656E736F7273206410
:1001A0006174612073656E742E0053656E642073F4
:1001B000656E736F7273206461746120766961206B
:1001C0004C6F52612E2E2E004C6F52613A20747289
:1001D000616E7369657665722064697361626C65CE
:1001E000642E004C6F5261206E6F7420696E6974CA
:1001F000656421000053656E736F727320646174CF
:1002000061207265616465642E004D65617375726D
:100210006520636F6D706C657465642C2073746108
:10022000727420726561642E2E2E005761697420ED
:10023000666F72206D65617375726520636F6D7096
:100240006C6574652E2E2E0057616E74206D65618D
:10025000737572652E2E2E0057616E74206D656168
:10026000737572652062792074696D656F75742E7F
:100270002E2E003B2064696666203D20003B2063F3
:1002800075724D696C6C69733A20004C617374200F
:10029000636F6D6D616E642061743A200053637208
:1002A000617463682072656365697665642066724F
:1002B0006F6D206D61737465722100005EBCE26138
:1002C0003FDD83C29C7E20A3FD1F419DC3217FFC97
:1002D000A2401E5F01E3BD3E6082DC237D9FC142E0
:1002E0001CFEA0E1BF5D0380DE3C62BEE0025CDF7D
:1002F00081633D7C22C09E1D43A1FF4618FAA427BE
:10030000799BC584DA3866E5BB5907DB856739BA5E
:10031000E406581947A5FB7826C49A653BD987049B
:100320005AB8E6A7F91B45C6987A24F8A6441A9944
:10033000C7257B3A6486D85B05E7B98CD2306EED71
:10034000B3510F4E10F2AC2F7193CD114FADF3702E
:100350002ECC92D38D6F31B2EC0E50AFF1134DCE47
:1003600090722C6D33D18F0C52B0EE326C8ED05314
:100370000DEFB1F0AE4C1291CF2D73CA947628AB2D
:10038000F517490856B4EA6937D58B5709EBB536E6
:10039000688AD495CB2977F4AA4816E9B7550B8813
:1003A000D6346A2B7597C94A14F6A8742AC89615CC
:1003B0004BA9F7B6E80A54D7896B352C0044533162
:1003C000384232303A200044533138423230202D06
:1003D0002062616420636865636B73756D21212100
:1003E0000044533138423230202D206E6F74206625
:1003F0006F756E64210044533138423230202D2015
:100400006E6F2070696E206E756D6265722121219C
:10041000005265616420445331384232302E2E2E12
:1004200000646174613A200056616C3A200000005B
:10043000000023002600290004040404040404042A
:10044000020202020202030303030303010204087F
:10045000102040800102040810200102040810202E
:10046000B11311241FBECFEFD8E0DEBFCDBF11E026
:10047000A0E0B1E0E2E2FEE202C005900D92A634F7
:10048000B107D9F722E0A6E4B1E001C01D92A93A74
:10049000B207E1F712E0C1E3D2E004C02197FE0108
:1004A0000E94F716C033D107C9F70E940B0F0C94B6
:1004B0000F170C940000FC01538D448D252F30E064
:1004C000842F90E0821B930B541710F0CF96089561
:1004D00001970895FC01918D828D981761F0828DAE
:1004E000DF01A80FB11D5D968C91928D9F5F9F7368
:1004F000928F90E008958FEF9FEF0895FC01918D0A
:10050000828D981731F0828DE80FF11D858D90E076
:1005100008958FEF9FEF0895FC01918D228D892F13
:1005200090E0805C9F4F821B91098F7399270895FB
:1005300080E090E0892B29F00E94C30881110C947F
:10054000000008953FB7F89480916A0190916B0183
:10055000A0916C01B0916D0126B5A89B05C02F3FFD
:1005600019F00196A11DB11D3FBFBA2FA92F982FD9
:100570008827820F911DA11DB11DBC01CD0142E054
:10058000660F771F881F991F4A95D1F70895882312
:1005900021F0813019F4E99801C0E898E82FF0E0E3
:1005A000EE0FFF1FEC5FFE4F89ED92E09183808399
:1005B00008950895E1E8F2E0A081B18111969C913F
:1005C00011978281892B11968C93A081B18112960B
:1005D0009C91129782818095892312968C9308951D
:1005E0009C012D50310937FF02C02D5F3F4FC901DB
:1005F00095958795959587951816190614F081E0BD
:1006000090E010928500109284009093890080936E
:100610008800709347016093460180916E0180933A
:10062000810008950E94DA0263E674E08CE291E0B2
:100630000C94F002A1E8B2E0ED91FC911197918148
:1006400012968C9180958923818366E774E08BE80C
:1006500091E00E94F0020E94A202DC01CB018555CC
:100660009109A109B1098093800190938101A09320
:100670008201B0938301E0915B01F0915C0180E025
:1006800009940E94DA0280918402823010F40E9460
:10069000C7026AE173E083E290E00C94F00280917B
:1006A0008402823010F40E94C70269E773E089E196
:1006B00090E00C94F00266E774E08EEA91E00E940C
:1006C000F0020E94A202DC01CB01C297A109B1098C
:1006D0008093800190938101A0938201B093830164
:1006E00008950E945B03E0915B01F0915C0180E062
:1006F0000994CF93E0918102F091820290818091E0
:1007000083028923C1E021F4C0E00E945B030DC095
:10071000109281008FEF9FEFDC0180938001909316
:100720008101A0938201B0938301E0915901F0917E
:100730005A0160E08C2FCF9109940E94FD1681111F
:100740000C94B70E0895CF92DF92EF92FF92CF9361
:10075000E0918102F0918202C08180918302C823DE
:100760000E94A2026B017C01CC2309F45AC0809143
:10077000800190918101A0918201B09183018F3F0E
:100780002FEF9207A105B10509F453C0A701960107
:10079000281B390B4A0B5B0BDA01C9014FEF5FEFE6
:1007A00060E070E04093800150938101609382018A
:1007B00070938301803E31E09307A105B105C8F134
:1007C00085389340A105B10538F0CF91FF90EF90A7
:1007D000DF90CF900C94B70E80918402823010F499
:1007E0000E94C7020E94A2025EE1C50ED11CC60192
:1007F000861B970B62E173E00E94F00260E081E0EB
:100800000E944509E091E201F091E301309789F0FF
:1008100060E080E090E0CF91FF90EF90DF90CF908C
:100820000994609380017093810180938201909379
:100830008301CF91FF90EF90DF90CF900895909338
:100840005A018093590162E070E08FE493E00C94C8
:10085000950E10925D0110924A018FEC97E00C9476
:100860001F04882361F0E091E201F091E3013097E9
:1008700021F060E082E090E009950C94B70E81E5EC
:1008800091E0909364018093630181E090E0909304
:10089000500180934F0110924E0110924D0181E35F
:1008A00094E090936201809361010E942904E09199
:1008B000E201F091E301309729F06091510181E06C
:1008C00090E009940895A1E8B2E0ED91FC911197B0
:1008D000918112968C918095892381838FEF90E08E
:1008E00090934E0180934D010C942904E091810274
:1008F000F0918202908180918302892331F461E03A
:1009000070E083EA93E00C94950E0895FC01848DC9
:10091000DF01A80FB11DA35ABF4F2C91848D90E029
:1009200001968F739927848FA689B7892C93A08904
:10093000B1898C91837080648C93938D848D98138E
:1009400006C00288F389E02D80818F7D8083089521
:10095000EF92FF920F931F93CF93DF93EC0181E00F
:10096000888F9B8D8C8D981305C0E889F9898081CB
:1009700085FD26C0F62E0B8D10E00F5F1F4F0F7305
:100980001127E02E8C8DE8120CC00FB607FCFACFB1
:10099000E889F989808185FFF5CFCE010E94860420
:1009A000F1CF8B8DFE01E80FF11DE35AFF4FF0826E
:1009B0009FB7F8940B8FEA89FB89808180620AC017
:1009C0009FB7F894EE89FF896083E889F98980816F
:1009D0008370806480839FBF81E090E0DF91CF913E
:1009E0001F910F91FF90EF900895CF93DF93EC014B
:1009F000888D8823C9F0EA89FB89808185FD05C03F
:100A0000A889B9898C9186FD0FC00FB607FCF5CF78
:100A1000808185FFF2CFA889B9898C9185FFEDCFC0
:100A2000CE010E948604E7CFDF91CF91089590E038
:100A3000FC01EE58FF4F2491FC01E45BFB4F349125
:100A4000FC01E85CFB4FE491EE2309F43CC0222357
:100A500039F1233091F038F42130A9F0223001F53A
:100A600084B58F7D12C0273091F02830A1F024305A
:100A7000B9F4809180008F7D03C0809180008F77D2
:100A8000809380000DC084B58F7784BD09C08091AC
:100A9000B0008F7703C08091B0008F7D8093B0004D
:100AA000F0E0EE0FFF1FE859FF4FA591B4919FB7FB
:100AB000F894611104C08C913095382302C0EC91F8
:100AC0003E2B3C939FBF0895CF93DF9390E0FC01B2
:100AD000E45BFB4F2491FC01E85CFB4F849188238D
:100AE00061F190E0880F991FFC01E95FFE4FC5910D
:100AF000D491FC01E859FF4FA591B491611109C04F
:100B00009FB7F8948881209582238883EC912E23C7
:100B10000BC0623061F49FB7F8948881322F309512
:100B200083238883EC912E2B2C939FBF06C08FB715
:100B3000F894E8812E2B28838FBFDF91CF91089501
:100B40008F929F92AF92BF92CF92DF92EF92FF92DD
:100B50006B017C010E94A2024B015C01C114D10413
:100B6000E104F104F1F00E94A202DC01CB0188193A
:100B70009909AA09BB09883E9340A105B10570F304
:100B800021E0C21AD108E108F10888EE880E83E05E
:100B9000981EA11CB11CC114D104E104F10419F781
:100BA000DDCFFF90EF90DF90CF90BF90AF909F9000
:100BB0008F9008952FB7F894609166017091670146
:100BC00080916801909169012FBF08951F920F9243
:100BD0000FB60F9211242F933F938F939F93AF9350
:100BE000BF938091660190916701A0916801B091D7
:100BF00069013091650123E0230F2D3720F4019620
:100C0000A11DB11D05C026E8230F0296A11DB11D2F
:100C1000209365018093660190936701A09368011A
:100C2000B093690180916A0190916B01A0916C0170
:100C3000B0916D010196A11DB11D80936A01909341
:100C40006B01A0936C01B0936D01BF91AF919F9127
:100C50008F913F912F910F900FBE0F901F9018957D
:100C60001F920F920FB60F9211242F933F934F9321
:100C70005F936F937F938F939F93AF93BF93EF9304
:100C8000FF93E0910601F09107010995FF91EF9123
:100C9000BF91AF919F918F917F916F915F914F9194
:100CA0003F912F910F900FBE0F901F9018951F929C
:100CB0000F920FB60F9211242F933F934F935F9390
:100CC0006F937F938F939F93AF93BF93EF93FF9314
:100CD000E0910401F09105010995FF91EF91BF9119
:100CE000AF919F918F917F916F915F914F913F91C4
:100CF0002F910F900FBE0F901F901895DC012C9133
:100D00001196ED91FC911297F8948181922F909514
:100D10008923818378948DE743E050E0815021F16D
:100D2000DA011197F1F730813223C1F3F89482810F
:100D3000892382838181822B81837894ABE7B7E01A
:100D40001197F1F7F89481819823918383E191E0E1
:100D50000197F1F78081282381E009F080E0789401
:100D6000E3E6F6E03197F1F708951F93CF93DF9311
:100D7000EC01162F60E0812F0E946405612F70E066
:100D8000FB01E45BFB4FE491E883FB01E85CFB4F74
:100D9000E491F0E0EE0FFF1FE25DFB4F859194912F
:100DA0009A8389831B861D861C86FE013B962396AB
:100DB0001292EC17FD07E1F7DF91CF911F91089593
:100DC0001092810061E070E083EA93E00E94950E4A
:100DD0008FEF9FEFA0E0B0E08093800190938101BE
:100DE000A0938201B09383010895882321F010928B
:100DF00073010C94B70E48E050E061E571E084E7C0
:100E000091E00E940217892BD9F481E0809373014D
:100E100081E591E0909364018093630181E090E02B
:100E20009093500180934F0110924E0110924D010A
:100E300081E394E090936201809361010C94290412
:100E4000109273010C94E00670935C0160935B0157
:100E500062E070E0882319F081E793E002C081E44A
:100E600093E00C94950E882341F00E94B70EE09118
:100E70004B01F0914C0181E027C080914A018F5FC6
:100E8000883019F080934A010BC010924A0180917A
:100E90004D0190914E01019690934E0180934D012A
:100EA00080914D0190914E0120914F013091500160
:100EB0008217930751F461E080E00E944509E091B8
:100EC0004B01F0914C0180E0099420914801309150
:100ED0004901F901E80FF91F808190E000904A0173
:100EE00002C0959587950A94E2F763E377E08170F5
:100EF0000C942407E0916001F0E0EC58FE4F8081F3
:100F000090E000905F0102C0959587950A94E2F702
:100F100020915E01222321F08170992721E0822710
:100F200081706FEB77E00C94240761110C94B70E7D
:100F30004091600190915F01E42FF0E0EC58FE4F8A
:100F4000208130E0092E02C0359527950A94E2F7FA
:100F50002170281310C081E0890F883019F0809328
:100F60005F0105C010925F014F5F40936001809167
:100F70006001883011F40C94E0060C947A0781111A
:100F80000C94B70E90915E0181E0892780935E01F9
:100F900081110C947A0785E997E00C941F0466236D
:100FA00071F00E94B70E80914D0190914E0197FD16
:100FB000CEC0E0916101F091620181E0C3C09091E7
:100FC0004A01282F092E01C0220F0A94EAF7309116
:100FD0005D01232B20935D019F5F90934A01E09177
:100FE0007001F0917101309741F020914D013091E5
:100FF0004E012F3F310509F0099580914A01883053
:1010000009F0A1C020914D0130914E0180915D0108
:101010002F3F310509F071C010924E0110924D0121
:10102000853A91F1B0F48333A9F1853509F063C0B5
:101030001092730181E591E09093640180936301C4
:1010400088E090E09093500180934F0185EF96E007
:101050004CC08C3E59F0803F31F08C3C09F04BC0C5
:101060001092730134C01092730106C01092730184
:1010700080917201882361F01092600110925F01EB
:1010800010925E010C947A078091730181111FC048
:101090000C94E0061092730184E791E0909349016B
:1010A0008093480188E090E09093500180934F0135
:1010B00010924A018FE993E090934C0180934B0189
:1010C0008091740163E377E081700C94240781E5DB
:1010D00091E0909364018093630181E090E09093AC
:1010E000500180934F0181E394E0909362018093DB
:1010F00061010C9429040C94B70E40916301509146
:101100006401B9016F5F7F4F70934E0160934D0191
:10111000FA01E20FF31F808310925D0110924A01E1
:1011200020914D0130914E0180914F0190915001DD
:101130002817390741F40E94E006E0916101F0911F
:10114000620180E009948FEC97E00C941F040895ED
:10115000FC01680F791F90E05CE86E177F0789F04B
:10116000419188E0A92FA427292F30E035952795B4
:10117000922FA0FF02C0952F92274695815091F79C
:10118000ECCF892F089584EE91E00E948C0221E03B
:10119000892B09F420E0822F08951F920F920FB639
:1011A0000F9211242F933F934F935F936F937F93ED
:1011B0008F939F93AF93BF93EF93FF9384EE91E050
:1011C0000E948604FF91EF91BF91AF919F918F9103
:1011D0007F916F915F914F913F912F910F900FBE33
:1011E0000F901F9018951F920F920FB60F92112417
:1011F0002F938F939F93EF93FF93E091F401F091DE
:10120000F5018081E091FA01F091FB0182FD12C0AD
:1012100090818091FD018F5F8F732091FE01821775
:1012200051F0E091FD01F0E0EC51FE4F958F80937D
:10123000FD0101C08081FF91EF919F918F912F91CE
:101240000F900FBE0F901F9018950895CF93DF93C6
:101250001F92CDB7DEB76983DC01ED91FC9102806E
:10126000F381E02D41E050E0BE016F5F7F4F0995B3
:101270000F90DF91CF910895089580E090E0089558
:1012800010928601109285010895CF93C82F6111A5
:101290000E94E00680916F01882379F010926F011F
:1012A000E0914B01F0914C013097A1F08FE993E070
:1012B00090934C0180934B010AC0E091E001F091C2
:1012C000E101309739F01092E1011092E0018C2F8A
:1012D000CF910994CF9108951F920F920FB60F925C
:1012E00011242F933F934F935F936F937F938F932B
:1012F0009F93AF93BF93EF93FF9310928100E09180
:101300004601F09147011092470110924601309733
:1013100009F00995FF91EF91BF91AF919F918F9146
:101320007F916F915F914F913F912F910F900FBEE1
:101330000F901F9018950F931F93CF93DF93EC019D
:10134000062F142F60E08E850E9417059C858D85E1
:101350009CBD8DBD0EBD00000DB407FEFDCF8EB54A
:101360001EBD00000DB407FEFDCF1EB561E08E85E9
:101370000E941705812FDF91CF911F910F91089542
:101380000F931F93CF93DF93EC01E881F9810084E1
:10139000F185E02D0995892BA1F040E06DE0CE01AB
:1013A0000E949B09082F40E060E0CE010E949B094B
:1013B000182F402F6DE8CE010E949B09812F90E0ED
:1013C00002C08FEF9FEFDF91CF911F910F91089592
:1013D000CF93DF93EC01E881F9810084F185E02D62
:1013E0000995892B61F0888D998D0196998F888F49
:1013F00040E060E0CE010E949B0990E002C08FEFC8
:101400009FEFDF91CF910895CF93DF93EC0140E000
:1014100063E10E949B0990E0288D398D821B930B1C
:10142000DF91CF910895AF92BF92CF92DF92FF925A
:101430000F931F93CF93DF936C015B01EA0140E0B0
:1014400062E20E949B09F82E90E09C012C0F3D1F48
:101450002F3F310529F020F0CFEFD0E0C81BD90B8A
:101460008501AC0EBD1E0A151B0541F0F801419126
:101470008F0160E8C6010E949B09F5CF4C2F4F0DEC
:1014800062EAC6010E949B09CE01DF91CF911F91B4
:101490000F91FF90DF90CF90BF90AF900895FC0127
:1014A0008081813041F028F0843029F0883031F497
:1014B00002C08FEF01C080E8FB0180830895FC012A
:1014C0008081843029F0883019F0813019F4089532
:1014D00084E0089580E00895CF93C1E0C09389012E
:1014E000C0938A018130910531F008F4ABC00297B6
:1014F00009F4AFC0B2C0809185019091860181301E
:10150000910519F1029709F0A8C08091DF018F5F62
:101510008093DF01E091DE01F0E0E557FE4F60834C
:101520008091DE018F5F8093DE018091DF018E313B
:1015300008F493C010928601109285011092DF0189
:101540001092DE01C093C70188C0643409F460C002
:1015500058F5653209F07DC0109286011092850120
:1015600085E191E00E945F0A8093970188E191E014
:101570000E945F0A80939D018BE191E00E945F0AC7
:101580008093A3018EE1EBE8F1E0A9EAB1E00190DC
:101590000D928A95E1F76DE170E089EA91E00E9491
:1015A000A8088093C60159C06E3409F440C06E3B50
:1015B00009F04FC083E090E090938601809385010D
:1015C000F89461E081E00E944509C0936F0189EAC7
:1015D00091E090934901809348018EE190E09093CF
:1015E000500180934F0110924E0110924D011092C4
:1015F0004A0180E499E090934C0180934B018091E3
:10160000A90163E377E081700E942407789425C0E4
:1016100010928601109285018091880181111DC070
:1016200080918701811119C0C093870116C082E0A3
:1016300090E090938601809385011092DE011092D4
:10164000DF010BC081E090E09093860180938501DB
:1016500004C01092860110928501CF9108952F92B7
:101660003F924F925F926F927F928F929F92AF9232
:10167000BF92CF92DF92EF92FF920F931F93CF937F
:10168000DF93CDB7DEB76D970FB6F894DEBF0FBE10
:10169000CDBF5C018A01FC018081843009F4C7C0A0
:1016A000883009F472C1813009F0B8C181E194E059
:1016B0000E94220E80E8F80182831382F501618185
:1016C000611103C086EF93E00CC0CE0101960E9429
:1016D000B506CE0101960E947E06811105C081EEFD
:1016E00093E00E94220E9AC17E01FFE0EF0EF11CF2
:1016F00089E0F70111928A95E9F76CECCE01019629
:101700000E942E0E6EEBCE0101960E942E0ED70186
:101710005E01F8E1AF0EB11C270167E070E0E3E283
:10172000EE2EF12CFFECCF2ED12C28E030E0812CD6
:10173000772473946980EA81FB81F894418146297A
:1017400041834281962C909449214283CB01019799
:10175000F1F7418194229182C7010197F1F740810D
:101760007894F6013197F1F7642209F08728770C15
:1017700021503109F9F6F20181922F01EA15FB059A
:10178000A1F689E0E0E0815039F09D91E927F0E091
:10179000E554FD4FE491F7CF8F898E1719F087EC50
:1017A00093E09FCF488950E0542F44278F85480FFE
:1017B000511D57FF05C022273327241B350B01C0BD
:1017C0009A0166E0629FC001639F900D112437FF6C
:1017D00002C02D5F3F4F3595279535952795820F90
:1017E000931F57FF03C091958195910964E670E0BE
:1017F0000E94CF16F80162839C0197FF03C03195C8
:1018000021953109F80123838DEB93E00E94070EA7
:10181000F801628170E080E090E04AE00E94B60D3D
:101820008BEB93E00E94070EF8016381A5C0F501E0
:1018300081818E3008F08E508770806480937C00A8
:1018400080917A00806480937A0080917A0086FD8E
:10185000FCCFE090780080917900F12CF82A88E2A2
:1018600094E00E94070E47010F2C000CAA08BB0849
:10187000F7FE10C06DE284EE91E00E94A804882774
:101880009927DC0188199909AA09BB094AE0BC011A
:10189000CD0103C04AE0C501B4010E94B60D0E940B
:1018A000AE0D2091910130E0AFEFB3E00E94181629
:1018B000412C512C32014A94A30192010E94C4157B
:1018C0002A8F3B8F4C8F5D8F2A8C3B8C209192010D
:1018D00030E0AFEFB3E00E941816A30192010E941E
:1018E000C41529013A01398F288FC101221533050A
:1018F0000CF4C9016C01990FEE08FF08A5019401D1
:101900002C193D094E095F09A0E1B7E20E94E315D9
:101910002A8D3B8D488D598D241635060CF4920185
:101920004901330FAA08BB08A50194012C193D09F0
:101930004E095F090E94C415C901688D798D621531
:10194000730524F480E197E2821B930B64E670E058
:101950000E94CF1664362CF467FF05C080E060E873
:1019600002C080E064E6F8016283838381E294E050
:101970000E94070EF801628170E080E090E04AE08A
:101980000E94B60D0E94AE0D49C061E0F501818153
:101990000E94510D672B21F480E8F80182833EC03C
:1019A00061E0F50181810E94510D6B017C0160E0D5
:1019B000F50181810E94510D2B013C01672B71F1D2
:1019C000B6010D2C000C880B990B0E94CB1420E063
:1019D00030E048EC52E40E9406154B015C01B20174
:1019E0006C0D7D1D072E000C880B990B0E94CB14EB
:1019F0009B01AC01C501B4010E94271620E030E034
:101A000048EC52E40E9406150E949916CB0164E648
:101A100070E00E94CF16F801628383836D960FB643
:101A2000F894DEBF0FBECDBFDF91CF911F910F9114
:101A3000FF90EF90DF90CF90BF90AF909F908F90EE
:101A40007F906F905F904F903F902F900895CF922E
:101A5000DF92EF92FF920F931F93CF93DF936C016E
:101A60007A018B01C0E0D0E0CE15DF0581F0D8010E
:101A70006D918D01D601ED91FC910190F081E02DE9
:101A8000C6010995892B11F02196EECF7E01C70181
:101A9000DF91CF911F910F91FF90EF90DF90CF904A
:101AA00008950F931F93262F90E0FC01E45BFB4FFA
:101AB0006491FC01E85CFB4FE491222311F0462F76
:101AC00001C040E0F0E0EE0FFF1FE25DFB4F8591AB
:101AD000949100E412E42FE030E00E94C60E6115FC
:101AE00071058105910549F0DC01CB010196A11D2D
:101AF000B11DBC01CD019F7003C060E070E0CB015F
:101B00001F910F910895E4EEF1E0A089B18982E080
:101B10008C93A089B1891C92A485B5851C92A68559
:101B2000B78580E18C93108EA489B58986E08C936B
:101B3000A289B3898C9180618C93A289B3898C919D
:101B400088608C93A289B3898C9180688C93028879
:101B5000F389E02D80818F7D8083089542E050E0FD
:101B600062E471E084EE91E00C94270D8F929F92D5
:101B7000AF92BF920F931F93CF93DF93CDB7DEB792
:101B8000A1970FB6F894DEBF0FBECDBF19A24230A9
:101B900008F44AE08E010F5D1F4F842E912CA12C7A
:101BA000B12CA50194010E94F615E62FB901CA01D6
:101BB00001501109EA3014F4E05D01C0E95CD8017C
:101BC000EC93232B242B252B61F70115110571F0C4
:101BD000F80101900020E9F73197AF01401B510B4C
:101BE000B80184EE91E00E94270D02C080E090E0F1
:101BF000A1960FB6F894DEBF0FBECDBFDF91CF9197
:101C00001F910F91BF90AF909F908F9008950F9369
:101C10001F93CF93DF938C01C0E0D0E0F801EC0F6D
:101C2000FD1F6491662341F084EE91E00E94A804B8
:101C3000892B11F02196F2CFCE01DF91CF911F9128
:101C40000F910895CF93DF930E94070EEC010E943D
:101C5000AE0D8C0F9D1FDF91CF910895AF92BF9273
:101C6000CF92DF92EF92FF920F931F93CF93DF9368
:101C7000DC0128E030E091E0AA24AA94B12C0FE026
:101C800010E043E2E42EF12C57EDC52ED12C8C91BF
:101C90001196ED91FC911297482F4095562F59239C
:101CA00081F0F8945281452342834181482B41833E
:101CB000E7012197F1F74281842B82837894F60122
:101CC0000FC0F8945281452342834181482B4183C0
:101CD000E5012197F1F74281842B82837894F80102
:101CE0003197F1F7990F2150310989F6F89411963F
:101CF000ED91FC91129791818C918095892381833C
:101D00001196ED91FC91129792818C918095892387
:101D100082837894DF91CF911F910F91FF90EF9084
:101D2000DF90CF90BF90AF9008959C01E09A909182
:101D300084029230D8F4E92FF0E0EE0FFF1FEC5F41
:101D4000FE4F3183208380916900913031F08C7F88
:101D5000682B60936900E89A0895837F660F771F68
:101D6000660F771F682B60936900E99A089561E018
:101D700081E00E944509E091E201F091E301309792
:101D800021F060E082E090E009940895CF92DF9224
:101D9000EF92FF920F931F93E82FF92F05C0015088
:101DA00011092109310961F1908196239417B9F342
:101DB00005C0015011092109310911F190819623C3
:101DC0009413F7CFC12CD12CE12CF12C0AC08FEF4A
:101DD000C81AD80AE80AF80A0C151D052E053F0591
:101DE00079F080818623841791F36C2D7D2D8E2DC3
:101DF0009F2D1F910F91FF90EF90DF90CF9008954E
:101E000060E070E080E090E01F910F91FF90EF9014
:101E1000DF90CF900895CF93DF93CDB7DEB7629771
:101E20000FB6F894DEBF0FBECDBF789484B5826044
:101E300084BD84B5816084BD85B5826085BD85B56E
:101E4000816085BD80916E00816080936E001092EC
:101E50008100809181008260809381008091810067
:101E600081608093810080918000816080938000F8
:101E70008091B10084608093B1008091B000816056
:101E80008093B00080917A00846080937A00809182
:101E90007A00826080937A0080917A0081608093DA
:101EA0007A0080917A00806880937A001092C10055
:101EB0000E94830D8EE1EBE8F1E0DF011D928A952F
:101EC000E9F781E080938B0185E08093940188E8B5
:101ED00093E1A0E0B0E08093000190930101A09312
:101EE0000201B093030186E890E00E94070E609122
:101EF00000017091010180910201909103014AE07B
:101F00000E94B60D0E94AE0D85E191E00E945F0A2D
:101F10008093970188E191E00E945F0A80939D0180
:101F20008BE191E00E945F0A8093A30168E971E070
:101F300085E191E00E944F0A6EE971E088E191E04D
:101F40000E944F0A64EA71E08BE191E00E944F0A1F
:101F5000809191018F3F51F4809192018F3F31F434
:101F600084E88093910181E38093920180918D01B7
:101F70008E6080938D016DE170E08BE891E00E94AE
:101F8000A8088093A8018EE1EBE8F1E0A9EAB1E0AE
:101F900001900D928A95E1F787EF90E00E94220E62
:101FA00069ECC62E61E0D62E0EE111E075E1E72E58
:101FB00071E0F72EF7018081813009F04EC087EE85
:101FC00090E00E94220ED70111966C91611103C01E
:101FD0008CEC90E040C0CE0101960E94B506CE0187
:101FE00001960E947E06811103C089EA90E033C009
:101FF0006CECCE0101960E942E0E6EE4CE0101968D
:102000000E942E0E60E0CE0101960E942E0E60E02E
:10201000CE0101960E942E0E6FE7CE0101960E941E
:102020002E0ECE0101960E947E066CECCE0101962A
:102030000E942E0E68E4CE0101960E942E0E6AE0E8
:1020400070E080E090E00E94A005CE0101960E9421
:102050007E0687E990E00E94220EF601119211920D
:102060006F01F3E0EF0EF11C0E151F0509F0A2CF72
:102070000E94830D84E090E09093950280939402F7
:1020800083E090E090939702809396028FEF9FEF0A
:10209000909399028093980261E084E00E94640525
:1020A00061E0809194020E941705809196029091C0
:1020B00097028F3F2FEF9207C9F061E00E946405FD
:1020C00060E0809196020E9417056AE070E080E06F
:1020D00090E00E94A00561E0809196020E941705A1
:1020E0006AE070E080E090E00E94A005FFB6F894FE
:1020F0008091C801811127C0E2E4F4E08491E6E513
:10210000F4E09491E82FF0E0EE0FFF1FE95FFE4F3F
:10211000A591B491EC91E92321F461E08AE00E9459
:10212000170561E08AE00E9464058CB580618CBD72
:102130008CB580648CBD61E08DE00E94640561E037
:102140008BE00E9464058091C8018F5F8093C80175
:10215000FFBE40E062E486E892E00E949B09823183
:1021600009F052C040E861E886E892E00E949B09CD
:1021700080E091EAACEBB3E380939A0290939B02E8
:10218000A0939C02B0939D0249ED66E886E892E038
:102190000E949B0940E067E886E892E00E949B0964
:1021A00040E068E886E892E00E949B0940E06EE823
:1021B00086E892E00E949B0940E06FE886E892E0A2
:1021C0000E949B0940E06CE086E892E00E949B0937
:1021D000482F43606CE886E892E00E949B0944E047
:1021E00066EA86E892E00E949B094FE869E886E883
:1021F00092E00E949B0941E861E886E892E00E9433
:102200009B0981E090E002C080E090E0282F2170DF
:102210002093CF01892B61F04FE869E886E892E0CE
:102220000E949B0940E861E886E892E00E949B09D1
:102230000E94DA056093D8017093D9018093DA0186
:102240009093DB018CE69AE09093E3018093E201A6
:102250002091A802822F90E0FC01E45BFB4F3491B7
:10226000FC01E85CFB4FE491F0E0EE0FFF1FE25D44
:10227000FB4F45915491223021F0233021F08FEF14
:1022800003C080E001C081E050938202409381024C
:102290003093830280938402209385028FEF9FEF17
:1022A000DC018093800190938101A0938201B0931F
:1022B000830187E0ECE0F1E0A4E7B1E001900D924A
:1022C0008A95E1F767E070E084E791E00E94A80852
:1022D00080937B0110927301109272011092710130
:1022E0001092700110926F01F894E0918102F091C8
:1022F0008202918180918302809589238183E0917C
:102300008102F091820292818091830280958923DB
:102310008283109280001092810080916F00826011
:1023200080936F008BE080936E010E94E0067894AA
:102330007724739492E3292E312C412C512C8091D7
:10234000C7018823B1F11092C7018EE1EBE8F1E0FB
:10235000A9EAB1E001900D928A95E1F76DE170E094
:1023600089EA91E00E94A8088093C6012091B101FA
:102370008091B20190E03CE3239F800D911D1124D8
:1023800048EE53E0849F9001859F300D949F300D5F
:102390001124C901330FAA0BBB0B8093000190934A
:1023A0000101A0930201B09303018DE992E00E9424
:1023B000220E0E94DA056B017C0180918A0188233C
:1023C00051F0C092D801D092D901E092DA01F09296
:1023D000DB0110928A0180918901882309F448C0A9
:1023E0008091D8019091D901A091DA01B091DB01DF
:1023F00046015701881A990AAA0ABB0A29E98216D6
:102400002AE39206A104B10498F18BE892E00E94BD
:10241000070E6091D8017091D9018091DA019091F5
:10242000DB014AE00E94B60D8DE792E00E94070EA4
:102430004AE0C701B6010E94B60D83E792E00E9410
:10244000070E8091D8019091D901A091DA01B09145
:10245000DB0146015701881A990AAA0ABB0AC5017D
:10246000B4014AE00E94B60D0E94AE0D109289019F
:1024700080918901811124C0809100019091010116
:10248000A0910201B09103012091D4013091D501B6
:102490004091D6015091D70146015701821A930A03
:1024A000A40AB50A88159905AA05BB0548F48091C8
:1024B0008801811105C080918701882309F4B1C08A
:1024C000809187018823A9F180918801811131C011
:1024D00088E492E00E94220E70928801C092D0019E
:1024E000D092D101E092D201F092D30186E791E03F
:1024F0000E94220E85E1A82E81E0B82ED5018C9194
:10250000813009F495C0F3E0AF0EB11C0A151B052C
:10251000A9F70E94DA056093D4017093D5018093E6
:10252000D6019093D701109287018BE292E00E942E
:10253000220E8091880181110E94DA058091880124
:10254000882309F46BC08091D0019091D101A091B2
:10255000D201B091D30146015701881A990AAA0AFB
:10256000BB0A29EE821623E09206A104B10408F406
:1025700055C08091850190918601039709F44EC062
:102580008AE092E00E94220E87E891E00E94220EEB
:102590006091C9017091CA0146E951E085E191E07D
:1025A0000E942F0B6091CB017091CC014CE951E05E
:1025B00088E191E00E942F0B6091CD017091CE01D6
:1025C00042EA51E08BE191E00E942F0B8EE1EBE8B3
:1025D000F1E0A9EAB1E001900D928A95E1F76DE191
:1025E00070E089EA91E00E94A8088093C60185EF17
:1025F00091E00E94220E80918901882309F443C052
:1026000084EF91E00E94220EC092D001D092D101BD
:10261000E092D201F092D301109288010E949802B8
:102620008ECE7092870188E592E00E94220E48CFFC
:1026300088E591E00E94220EF5016181611103C0DD
:102640008DE391E01DC0CE0101960E94B506CE013A
:1026500001960E947E06811103C086E291E010C0BF
:102660006CECCE0101960E942E0E64E4CE01019620
:102670000E942E0ECE0101960E947E0681E191E01D
:102680000E94220E40CF8091CF01811103C083EEC2
:1026900091E006C080918D0180FD05C088EC91E03D
:1026A0000E94220EADCF8AEA91E00E94220E6DE1D7
:1026B00070E08BE891E00E94A8088093A80141E8AF
:1026C00061E886E892E00E949B091092A1021092B4
:1026D000A00240E06DE186E892E00E949B09482F4D
:1026E0004E7F6DE986E892E00E949B0940E06DE82C
:1026F00086E892E00E949B0940E062EA86E892E068
:102700000E949B094EE150E06BE871E086E892E0A0
:102710000E94130A43E861E886E892E00E949B0960
:1027200040E062E186E892E00E949B0983FFF8CFD7
:1027300048E062E986E892E00E949B0987E991E01F
:102740000E94220E0E947214A20191010E94C415DF
:102750000E94A00540E861E886E892E00E949B099B
:102760004FCFE4EEF1E01382128288EE93E0A0E016
:10277000B0E084839583A683B78382E291E091835E
:10278000808385EC90E09587848784EC90E0978740
:10279000868780EC90E0918B808B81EC90E0938B2E
:1027A000828B82EC90E0958B848B86EC90E0978B0B
:1027B000868B118E128E138E148EE1E8F2E0128257
:1027C000118210828FEF83838483E6E8F2E0138224
:1027D000128224E331E03183208390E5948791E0F5
:1027E00095872AE030E03787268729E030E0318B73
:1027F000208B22E030E0338B228B148A158A168AD4
:10280000178A118E108E138E128E158E148E1482CE
:10281000158216821782A4EAB2E09BE114969C937B
:102820001497E7E6F4E0E4911296EC931297E3E54F
:10283000F4E0E491F0E0EE0FFF1FE25DFB4F259125
:10284000349111963C932E9313968C9308958F9206
:102850009F92AF92BF92CF92DF92EF92FF92CF936F
:10286000DF93EC01688179818A819B816115710513
:102870008105910521F464E279ED8BE597E02DE186
:1028800033EF41E050E00E94C41549015A019B0119
:10289000AC01A7EAB1E40E94E3156B017C01ACEE48
:1028A000B4EFA50194010E94F115DC01CB018C0D60
:1028B0009D1DAE1DBF1DB7FF03C00197A109B04804
:1028C00088839983AA83BB83BC01CD019F77DF9165
:1028D000CF91FF90EF90DF90CF90BF90AF909F90FF
:1028E0008F9008958F929F92AF92BF92CF92DF9276
:1028F000EF92FF92609108017091090180910A01A5
:1029000090910B01611571058105910521F464E237
:1029100079ED8BE597E02DE133EF41E050E00E9447
:10292000C41549015A019B01AC01A7EAB1E40E9418
:10293000E3156B017C01ACEEB4EFA50194010E949C
:10294000F115DC01CB018C0D9D1DAE1DBF1DB7FF28
:1029500003C00197A109B048809308019093090131
:10296000A0930A01B0930B01BC01CD019F77FF90AA
:10297000EF90DF90CF90BF90AF909F908F90089591
:10298000609308017093090180930A0190930B01F1
:102990000895E89409C097FB3EF490958095709552
:1029A00061957F4F8F4F9F4F9923A9F0F92F96E99B
:1029B000BB279395F695879577956795B795F11110
:1029C000F8CFFAF4BB0F11F460FF1BC06F5F7F4FAD
:1029D0008F4F9F4F16C0882311F096E911C07723BF
:1029E00021F09EE8872F762F05C0662371F096E8C8
:1029F000862F70E060E02AF09A95660F771F881F97
:102A0000DAF7880F9695879597F908950E9419151A
:102A10000C948A150E947C1538F00E94831520F0D2
:102A2000952311F00C9473150C94791511240C94C2
:102A3000BE150E949B1570F3959FC1F3950F50E052
:102A4000551F629FF001729FBB27F00DB11D639F60
:102A5000AA27F00DB11DAA1F649F6627B00DA11D06
:102A6000661F829F2227B00DA11D621F739FB00DAC
:102A7000A11D621F839FA00D611D221F749F33271C
:102A8000A00D611D231F849F600D211D822F762FB5
:102A90006A2F11249F5750409AF0F1F088234AF092
:102AA000EE0FFF1FBB1F661F771F881F91505040FE
:102AB000A9F79E3F510580F00C9473150C94BE1538
:102AC0005F3FE4F3983ED4F3869577956795B79585
:102AD000F795E7959F5FC1F7FE2B880F911D96959F
:102AE000879597F9089597F99F6780E870E060E00F
:102AF00008959FEF80EC089500240A941616170697
:102B000018060906089500240A94121613061406DE
:102B100005060895092E0394000C11F4882352F041
:102B2000BB0F40F4BF2B11F460FF04C06F5F7F4FF9
:102B30008F4F9F4F089557FD9058440F551F59F0E0
:102B40005F3F71F04795880F97FB991F61F09F3F9A
:102B500079F087950895121613061406551FF2CFC3
:102B60004695F1DF08C0161617061806991FF1CF13
:102B700086957105610508940895E894BB2766273A
:102B80007727CB0197F90895052E97FB1EF4009443
:102B90000E94DB1557FD07D00E94F61507FC03D0F5
:102BA0004EF40C94DB1550954095309521953F4F90
:102BB0004F4F5F4F089590958095709561957F4F29
:102BC0008F4F9F4F08950E941816A59F900DB49F98
:102BD000900DA49F800D911D11240895B7FF0C94B2
:102BE000E3150E94E315821B930B0895A1E21A2EB0
:102BF000AA1BBB1BFD010DC0AA1FBB1FEE1FFF1FA1
:102C0000A217B307E407F50720F0A21BB30BE40BF0
:102C1000F50B661F771F881F991F1A9469F7609537
:102C20007095809590959B01AC01BD01CF010895F1
:102C3000A29FB001B39FC001A39F700D811D1124FD
:102C4000911DB29F700D811D1124911D08950E9448
:102C50003B160C948A150E94831558F00E947C152F
:102C600040F029F45F3F29F00C94731551110C9436
:102C7000BE150C9479150E949B1568F39923B1F346
:102C8000552391F3951B550BBB27AA276217730792
:102C9000840738F09F5F5F4F220F331F441FAA1F26
:102CA000A9F335D00E2E3AF0E0E832D091505040E2
:102CB000E695001CCAF72BD0FE2F29D0660F771F90
:102CC000881FBB1F261737074807AB07B0E809F076
:102CD000BB0B802DBF01FF2793585F4F3AF09E3FFB
:102CE000510578F00C9473150C94BE155F3FE4F316
:102CF000983ED4F3869577956795B795F7959F5F3E
:102D0000C9F7880F911D9695879597F90895E1E089
:102D1000660F771F881FBB1F621773078407BA07E8
:102D200020F0621B730B840BBA0BEE1F88F7E09543
:102D300008950E94A0166894B1110C94BE150895D0
:102D40000E94A31588F09F5798F0B92F9927B75183
:102D5000B0F0E1F0660F771F881F991F1AF0BA953F
:102D6000C9F714C0B13091F00E94BD15B1E00895CB
:102D70000C94BD15672F782F8827B85F39F0B93FBD
:102D8000CCF3869577956795B395D9F73EF49095F2
:102D90008095709561957F4F8F4F9F4F089597FB5A
:102DA000072E16F4009407D077FD09D00E94E31691
:102DB00007FC05D03EF4909581959F4F089570953E
:102DC00061957F4F0895AA1BBB1B51E107C0AA1F45
:102DD000BB1FA617B70710F0A61BB70B881F991FBC
:102DE0005A95A9F780959095BC01CD010895EE0FF5
:102DF000FF1F0590F491E02D099481E090E0F89494
:102E00000C940F17FB01DC0104C08D910190801917
:102E100021F441505040C8F7881B990B0895F8944D
:102E2000FFCFE8030000D902D9020100000028000A
:102E300000000000028B01042100011A00000000C4
:102E400000000000A804270D5B02F5048C026A0252
:102E50007E02000000002609130A3D092509040A24
:082E6000E809C0090D0A000099
:107E0000112484B714BE81FFF0D085E080938100F7
:107E100082E08093C00088E18093C10086E0809377
:107E2000C20080E18093C4008EE0C9D0259A86E02C
:107E300020E33CEF91E0309385002093840096BBD3
:107E4000B09BFECF1D9AA8958150A9F7CC24DD24C4
:107E500088248394B5E0AB2EA1E19A2EF3E0BF2EE7
:107E6000A2D0813461F49FD0082FAFD0023811F036
:107E7000013811F484E001C083E08DD089C08234E0
:107E800011F484E103C0853419F485E0A6D080C0E4
:107E9000853579F488D0E82EFF2485D0082F10E0AE
:107EA000102F00270E291F29000F111F8ED06801E7
:107EB0006FC0863521F484E090D080E0DECF843638
:107EC00009F040C070D06FD0082F6DD080E0C81688
:107ED00080E7D80618F4F601B7BEE895C0E0D1E017
:107EE00062D089930C17E1F7F0E0CF16F0E7DF06D8
:107EF00018F0F601B7BEE89568D007B600FCFDCFD4
:107F0000A601A0E0B1E02C9130E011968C91119780
:107F100090E0982F8827822B932B1296FA010C0160
:107F200087BEE89511244E5F5F4FF1E0A038BF0790
:107F300051F7F601A7BEE89507B600FCFDCF97BE46
:107F4000E89526C08437B1F42ED02DD0F82E2BD052
:107F50003CD0F601EF2C8F010F5F1F4F84911BD097
:107F6000EA94F801C1F70894C11CD11CFA94CF0C13
:107F7000D11C0EC0853739F428D08EE10CD085E9AC
:107F80000AD08FE07ACF813511F488E018D01DD067
:107F900080E101D065CF982F8091C00085FFFCCF94
:107FA0009093C60008958091C00087FFFCCF809118
:107FB000C00084FD01C0A8958091C6000895E0E648
:107FC000F0E098E1908380830895EDDF803219F02E
:107FD00088E0F5DFFFCF84E1DECF1F93182FE3DFCA
:107FE0001150E9F7F2DF1F91089580E0E8DFEE27F6
:047FF000FF270994CA
:027FFE00040479
:00000001FF
