:100000000C94D7020C9424140C94FD130C94FF024E
:100010000C94FF020C94FF020C942D100C94FF0220
:100020000C94FF020C94FF020C94FF020C94FE0F40
:100030000C94FF020C94FF020C94FF020C94FF023C
:100040000C94A1130C94FF020C9459120C943312CB
:100050000C94FF020C94FF020C94FF020C94FF021C
:100060000C944B140C94FF023404360439044704F6
:10007000360447044704360436044704390441046F
:1000800079056806E5063C09210A210AB709410BF2
:100090004F086E063D06D21A201B661BD71B8D1B10
:1000A0009A1BC21BD71BD71B481BAB1B07634236CF
:1000B000B79BD8A71A39685618AEBAAB558C1D3CF9
:1000C000B7CC5763BD6DEDFD753EF6177231BF00BD
:1000D0000000803F08000000BE922449123EABAAF7
:1000E000AA2ABECDCCCC4C3E00000080BEABAAAA52
:1000F000AA3E00000000BF000000803F000000009A
:1001000000084178D3BB4387D1133D190E3CC3BDD2
:100110004282AD2B3E68EC8276BED98FE1A93E4C7F
:1001200080EFFFBE01C4FF7F3F0000000000424897
:10013000313735303A20005265616420424831370A
:1001400035302E2E2E00005EBCE2613FDD83C29C66
:100150007E20A3FD1F419DC3217FFCA2401E5F01A5
:10016000E3BD3E6082DC237D9FC1421CFEA0E1BF57
:100170005D0380DE3C62BEE0025CDF81633D7C2289
:10018000C09E1D43A1FF4618FAA427799BC584DAB7
:100190003866E5BB5907DB856739BAE40658194765
:1001A000A5FB7826C49A653BD987045AB8E6A7F917
:1001B0001B45C6987A24F8A6441A99C7257B3A6449
:1001C00086D85B05E7B98CD2306EEDB3510F4E1077
:1001D000F2AC2F7193CD114FADF3702ECC92D38D25
:1001E0006F31B2EC0E50AFF1134DCE90722C6D33D7
:1001F000D18F0C52B0EE326C8ED0530DEFB1F0AE09
:100200004C1291CF2D73CA947628ABF51749085636
:10021000B4EA6937D58B5709EBB536688AD495CBE4
:100220002977F4AA4816E9B7550B88D6346A2B7596
:1002300097C94A14F6A8742AC896154BA9F7B6E8C8
:100240000A54D7896B352C00445331384232303A46
:10025000200044533138423230202D206261642026
:10026000636865636B73756D2121210044533138D8
:10027000423230202D206E6F7420666F756E6421BF
:100280000044533138423230202D206E6F20706987
:100290006E206E756D626572212121005265616468
:1002A00020445331384232302E2E2E002C002C00A8
:1002B0002C0044485432323A200052656164204494
:1002C000485432322E2E2E00517565727920696E97
:1002D00074657276616C3A20004453313842323092
:1002E000202D20696E697465642E004453313842B4
:1002F0003230202D206E6F7420666F756E6420641E
:100300007572696E6720696E6974212121004453FA
:100310003138423230202D206E6F2070696E206E91
:10032000756D62657221212100496E697420445304
:1003300031384232302E2E2E0020424831373530AF
:10034000202D20696E6974656400496E69742042CD
:1003500048313735302E2E2E004448543232206931
:100360006E697465642E2E2E00496E6974204448AF
:100370005432322E2E2E00496E69742073656E73CE
:100380006F72732E2E2E0000000000240027002A1A
:10039000004C6F5261202D20696E69746564004CB9
:1003A0006F5261202D206E6F7420696E69746564D0
:1003B0000044533138423230202D20636F6E766511
:1003C000727465642E0044533138423230202D203F
:1003D0006E6F7420666F756E642121210044533165
:1003E00038423230202D206E6F2070696E206E757D
:1003F0006D62657221212100445331384232302030
:100400002D20737461727420636F6E7665727369E8
:100410006F6E2E2E2E005374617274206D656173A1
:100420007572652E2E2E00526561642073656E73A1
:100430006F72732E2E2E0053656E736F727320646D
:100440006174612073656E742E0053656E64207351
:10045000656E736F727320646174612076696120C8
:100460004C6F52612E2E2E004C6F52613A207472E6
:10047000616E7369657665722064697361626C652B
:10048000642E004C6F5261206E6F7420696E697427
:10049000656421000053656E736F7273206461742C
:1004A00061207265616465642E004D6561737572CB
:1004B0006520636F6D706C657465642C2073746166
:1004C000727420726561642E2E2E0057616974204B
:1004D000666F72206D65617375726520636F6D70F4
:1004E0006C6574652E2E2E0057616E74206D6561EB
:1004F000737572652E2E2E0057616E74206D6561C6
:10050000737572652062792074696D656F75742EDC
:100510002E2E003B2064696666203D20003B206350
:1005200075724D696C6C69733A20004C617374206C
:10053000636F6D6D616E642061743A200053637265
:1005400061746368207265636569766564206672AC
:100550006F6D206D617374657221000000000025CD
:100560000028002B00000000080002010000030426
:10057000070000000000000000000000002300262B
:100580000029000404040404040404020202020218
:100590000203030303030301020408102040800147
:1005A000020408102001020408102000E81F112492
:1005B0001FBECFEFD8E0DEBFCDBF11E0A0E0B1E0BD
:1005C000ECE4FDE402C005900D92A037B107D9F725
:1005D00023E0A0E7B1E001C01D92A939B207E1F71D
:1005E00012E0C7EDD2E004C02197FE010E9457251A
:1005F000C63DD107C9F70E948A190C94A4260C9411
:100600000000CF93DF931F92CDB7DEB76983DC0183
:10061000ED91FC910280F381E02D41E050E0BE01BC
:100620006F5F7F4F09950F90DF91CF9108950895E7
:1006300080E090E0089510928C0110928B01089553
:100640000F931F93CF93DF93EC01E881F98100842E
:10065000F185E02D0995892BA1F040E06DE0CE01F8
:100660000E944410082F40E060E0CE010E94441038
:10067000182F402F6DE8CE010E944410812F90E08A
:1006800002C08FEF9FEFDF91CF911F910F910895DF
:10069000CF93DF93EC01E881F9810084F185E02DAF
:1006A0000995892B61F0888D998D0196998F888F96
:1006B00040E060E0CE010E94441090E002C08FEF65
:1006C0009FEFDF91CF910895CF93DF93EC0140E04E
:1006D00063E10E94441090E0288D398D821B930BBA
:1006E000DF91CF910895AF92BF92CF92DF92FF92A8
:1006F0000F931F93CF93DF936C015B01EA0140E0FE
:1007000062E20E944410F82E90E09C012C0F3D1FE5
:100710002F3F310529F020F0CFEFD0E0C81BD90BD7
:100720008501AC0EBD1E0A151B0541F0F801419173
:100730008F0160E8C6010E944410F5CF4C2F4F0D89
:1007400062EAC6010E944410CE01DF91CF911F9151
:100750000F91FF90DF90CF90BF90AF900895CF9210
:10076000DF92EF92FF92CF93DF937B01EA0187E361
:1007700091E00E94301662E0F70180810E943117FB
:100780001092560280935502823039F58EE593E03F
:100790000E94B9116C01990FEE08FF08FE2CED2C98
:1007A000DC2CCC248EE593E00E94B911092E000CBC
:1007B000AA0BBB0BBC01CD016C297D298E299F2979
:1007C0000E94FC202AE939E949E95FE30E941123EC
:1007D0000E9483236B017C0104C0CC24CA94DC2CCE
:1007E0007601CA82DB82EC82FD828EE291E00E9479
:1007F0001516F7FE0EC06DE281EC92E00E94D21059
:1008000066277727CB016C197D098E099F094AE07D
:1008100003C04AE0C701B6010E946716DF91CF917D
:10082000FF90EF90DF90CF900C940D16CF93C62FD2
:10083000FC0180810E9414176C2F8EE593E00E94CA
:10084000021281E0CF910C94B816CF93DF93EB01A5
:10085000DC01EC918E2F90E08C309105D8F4FC01F6
:10086000EC5CFF4F0C9457258FEF01C080E8888324
:1008700011C08FEF9FEFDC0188839983AA83BB832C
:1008800009C084E0FB0111928A95E9F703C080E872
:1008900088838A83DF91CF910895DC01EC91E15048
:1008A000EB3028F4F0E0EE5EFE4F8081089580E0AA
:1008B0000895CF93C1E0C0938F01C0939001813020
:1008C000910531F008F4B3C0029709F4B7C0BAC07B
:1008D00080918B0190918C018130910519F10297E3
:1008E00009F0B0C0809173018F5F80937301E09134
:1008F0007201F0E0EF56FE4F6083809172018F5FCE
:1009000080937201809173018E3108F49BC0109224
:100910008C0110928B011092730110927201C0939E
:10092000CD0190C0643409F468C098F5653209F0CF
:1009300085C010928C0110928B018EE291E00E9492
:100940004D0480939D0181E391E00E944D048093CA
:10095000A30184E391E00E944D048093A9014DE13D
:1009600050E06BE770E081E991E00E9429228EE17E
:10097000E1E9F1E0AFEAB1E001900D928A95E1F78B
:100980006DE170E08FEA91E00E94F90E8093CC0156
:1009900059C06E3409F440C06E3B09F04FC083E08B
:1009A00090E090938C0180938B01F89461E081E05A
:1009B0000E94140FC09375018FEA91E09093E501B6
:1009C0008093E4018EE190E09093EC018093EB0141
:1009D0001092EA011092E9011092E6018BE193E096
:1009E0009093E8018093E7018091AF016BE37FE092
:1009F00081700E94BC0D789425C010928C011092D9
:100A00008B0180918E0181111DC080918D0181111A
:100A100019C0C0938D0116C082E090E090938C01C4
:100A200080938B0110927201109273010BC081E0D0
:100A300090E090938C0180938B0104C010928C0104
:100A400010928B01CF910895DC0114966C9314974A
:100A5000262F30E0F901E956FA4FE4911296EC9313
:100A60001297F901ED57FA4FE491F0E0EE0FFF1FF6
:100A7000E758FA4F8591949111969C938E9362302A
:100A800021F0633029F481E004C013961C9208958C
:100A90008FEF13968C9308952F923F924F925F920F
:100AA0006F927F928F929F92AF92BF92CF92DF927E
:100AB000EF92FF920F931F93CF93DF93CDB7DEB7E3
:100AC0006B970FB6F894DEBF0FBECDBF6C017B01F4
:100AD0008A010E94AF03D601EC918E2F90E0FC01B9
:100AE0003197EB30F10508F034C6E05CFF4F0C9411
:100AF00057258CE992E00E94301680E8F801828345
:100B00001382D60111966C91611103C081E892E0C5
:100B10000CC0CE0101960E94B015CE0101960E9434
:100B20007915811105C08CE692E00E94301611C63D
:100B30007E01BFE0EB0EF11C89E0F70111928A956E
:100B4000E9F76CECCE0101960E94D1176EEBCE0155
:100B500001960E94D117D7015E01F8E1AF0EB11CDA
:100B6000270167E070E093E2E92EF12C2FECC22E12
:100B7000D12C28E030E0812C772473946980EA81BD
:100B8000FB81F8944181462941834281962C9094BF
:100B900049214283CB010197F1F74181942291824F
:100BA000C7010197F1F740817894F6013197F1F789
:100BB000642209F08728770C21503109F9F6F201F7
:100BC00081922F01AE16BF06A1F689E0E0E08150C8
:100BD00039F09D91E927F0E0EA5BFE4FE491F7CF11
:100BE0008F898E1719F082E592E09FCF488950E0F7
:100BF000542F44278F85480F511D57FF05C02227CA
:100C00003327241B350B01C09A0166E0629FC001A7
:100C1000639F900D112437FF02C02D5F3F4F359524
:100C2000279535952795820F931F57FF03C0919500
:100C30008195910964E670E00E944325D8011296DF
:100C40006C939C0197FF03C0319521953109F80100
:100C5000238388E492E00E941516D80112966C91C5
:100C600070E080E090E04AE00E94671686E492E03F
:100C70000E941516F801838101C5FDE1AF2EF1E058
:100C8000BF2ED12CE12CF12C88248394912CD501FA
:100C90006D915D016F3F89F0CE0101960E942405A0
:100CA000E981FA8190818B81892339F0C4010E2C6E
:100CB00001C0880F0A94EAF7D82ABFEFEB1AFB0AA3
:100CC000E8E0EE16F10419F7D8011296DC9241C55E
:100CD000A801B701C6010E94AF033BC5F70180819F
:100CE0000E94141783E090E00E94CC1781E00E94DC
:100CF000B81662E0D7018C910E943117109256020B
:100D000080935502823021F06FEF7FEFCB0155C009
:100D10008EE593E00E94B9116C018EE593E00E948C
:100D2000B9117C01B601607F772754E0769567950D
:100D30005A95E1F7072E000C880B990B0E94FC20B6
:100D40009B01AC0160E070E080E090E40E94BE2373
:100D50004B015C01B601E4E0660F771FEA95E1F70D
:100D60007727BFE0EB22FF246E297F29072E000C96
:100D7000880B990B0E94FC20A50194010E945B2125
:100D80002CEE31E548E35DE30E945B216B017C01C1
:100D900020E030E0A9010E94F52087FDB5CFC70112
:100DA000B6010E948A2361157105E1E08E07910565
:100DB00020F06FEF7FEF80E090E0D80112966D9306
:100DC0007D938D939C931597C4C480E40E9414175F
:100DD00085EE90E00E94CC1781E00E94B816F701E2
:100DE000808191818130910589F058F0803891059A
:100DF00091F081389105A9F468E070E080E090E01E
:100E00000EC060E170E080E090E009C063E070E057
:100E100080E090E004C065E070E080E090E00E9437
:100E20005B1363E070E080E490E00E94731748E099
:100E3000D42E8091550290E020915602821B910998
:100E4000039771F0DA94DD2039F068E070E080E01B
:100E500090E00E945B13EDCF81E00E94B81629C09C
:100E60008EE593E00E94B911A82E8EE593E00E94D2
:100E7000B9116C018EE593E00E94B911B82E81E0A2
:100E80000E94B816811115C060E070E07A2D6C29BF
:100E90007D29CB0120E1AC01440F551F97FF04C011
:100EA000CA01F1E39F2701C0CA012150A1F7B91679
:100EB00039F0D12CC12CAFE7BA2EB3E4AB2E2FC042
:100EC000B2E06B2780E090E00E94FA202DE434EF3E
:100ED00049EF5AE30E945B2120E030E040EC50E40F
:100EE0000E94A422D62EC72EB82EA92E20E030E0D4
:100EF000A9010E94F52087FD14C420E030E048ECF1
:100F000052E46D2D7C2D8B2D9A2D0E94B92318163D
:100F100034F4D12CC12C88ECB82E92E4A92E80E4B4
:100F20000E94141783EE90E00E94CC1781E00E948B
:100F3000B816D7018D919C918130910589F058F0B8
:100F40008038910591F081389105A9F463E070E053
:100F500080E090E00EC06BE070E080E090E009C0BF
:100F600064E070E080E090E004C067E070E080E062
:100F700090E00E945B1363E070E080E490E00E94E8
:100F80007317F8E0FF2E8091550290E020915602F1
:100F9000821B9109039771F0FA94FF2039F060E108
:100FA00070E080E090E00E945B13EDCF81E00E9452
:100FB000B8162AC08EE593E00E94B911882E8EE5FE
:100FC00093E00E94B9117C018EE593E00E94B91173
:100FD000982E81E00E94B816811116C060E070E082
:100FE000782D6E297F29CB0120E1AC01440F551FDC
:100FF00097FF04C0CA01B1E39B2701C0CA01215079
:10100000A1F7991609F492C3412C512C6FE7662E73
:1010100063E4762E6D2D7C2D8B2D9A2D0E948323DB
:101020006F3F710589F1C301B2010E9483236F3FB5
:10103000710551F120E030E048EC52E46D2D7C2D3B
:101040008B2D9A2D0E945B210E94832354E6C52E8E
:10105000D12CCB01B6010E944325E62EF82E20E0CC
:1010600030E048EC52E4C301B2010E945B210E94CF
:101070008323CB01B6010E9443259C0197FF09C041
:1010800031952195310905C020E060E8F12C40E858
:10109000E42EF801E282F382648325835AC3D601E9
:1010A00012968C91129790E011962C9130E03A8331
:1010B00029839C838B83CE0101960E944E0D0E9452
:1010C0008323072E000C880B990B0E94FC202AE03A
:1010D00037ED43E25CE30E945B2120E030E040E238
:1010E00052E40E94A4224B015C012B813C81498186
:1010F0005A8165E070E0CE0101960E94F00C898172
:101100009A810E94FA184B815C8169817A81CE01B3
:1011100001960E94B8187C016B817C8189819A813B
:101120000E949F18B701FF0C880B990B0E94FC20AE
:101130006B017C0124E533EE45E25DE30E945B2117
:1011400020E030E040E850E40E94A4222B013C0162
:1011500022EA37EE4BE356EBC701B6010E945B2152
:10116000A70196010E945B219B01AC01C301B20162
:101170000E94A522688F798F8A8F9B8FCE0101965E
:101180000E944E0D0E948323072E000C880B990BA2
:101190000E94FC202AE037ED43E25CE30E945B21E1
:1011A00020E030E040E252E40E94A42220E030E05F
:1011B00048EC51E40E94A4222B013C012CEA35ECBE
:1011C00047EA58E3C701B6010E945B212AE037EDE8
:1011D00043E25CE30E94A5229B01AC01C301B20182
:1011E0000E945B21288D398D4A8D5B8D0E94A5223E
:1011F0002B013C01C501B4010E948323683D7F4F50
:10120000C1F020E030E048EC52E4C501B4010E9496
:101210005B210E948323CB0164E670E00E9443259A
:10122000F62E9C0197FF03C0319521953109222E9E
:1012300002C030E8F32E20E030E0A901C301B20182
:101240000E94F52087FD11C020E030E048EC52E418
:10125000C301B2010E945B210E948323CB0164E69B
:1012600070E00E944325382E01C060E8F8016283D7
:101270003382F48225826DC2D60111968C910E9430
:101280001F133C012091970130E0AFEFB3E00E94C3
:101290009522212C312C21012A94A20191010E9436
:1012A000412269017A0159012091980130E0AFEFA4
:1012B000B3E00E949522A20191010E944122288F51
:1012C000398F4A8F5B8F888C998C26018C149D04F2
:1012D0000CF424016414750464F0C601A814B90464
:1012E00014F4888D998D9301861597051CF49C0143
:1012F00001C09201052C000C66087708C901330F64
:10130000AA0BBB0B9C01AD012419350946095709ED
:10131000A0E1B7E20E9460229601A814B90414F477
:10132000288D398D6901330FEE08FF08A70196015A
:1013300024193509460957090E944122C9018A1416
:101340009B0424F480E197E2821B930B64E670E037
:101350000E94432564362CF467FF05C080E060E8F6
:1013600002C080E064E6F80162838383F2C1D701A2
:1013700011961C92119780E8F8018283DC90DD20A1
:1013800009F454C016966D917D918D919C91199799
:101390000E94FA204B015C016D2D70E080E090E02E
:1013A0000E94FC209B01AC01C501B4010E941123E5
:1013B0004B015C0120E030E04AE754E40E94B9238D
:1013C0001816A4F120E030E040EA50E4C501B40171
:1013D0000E945B2120E030E040E85AE30E945B215C
:1013E00020E030E04FEA53E40E945B214B015C01B6
:1013F000609197016058062E000C770B880B990BB3
:101400000E94FC209B01AC01C501B4010E94A522F1
:101410000E948A2324E630E040E050E00E947322DC
:10142000D80112962C93129713966C93F7011082A1
:1014300012821382148215821682178210861186F8
:1014400088C18AEB92E00E943016D6011196DC909A
:10145000F70180819181892B19F4B2E19B2E02C0A2
:10146000992493948D2D90E0FC01E956FA4FC49095
:10147000FC01ED57FA4FE491F0E0EE0FFF1FE75843
:10148000FA4FA590B49061E08D2D0E94E31260E0C8
:101490008D2D0E94B412692D70E080E090E00E94D2
:1014A0005B1361E08D2D0E94B4128BE990E00197EF
:1014B000F1F762E08D2D0E94E31280E090E0D5010B
:1014C0002C912C2131F401968039B1E09B07B9F7BA
:1014D000ABC080E090E0F50120812C2131F0019635
:1014E0008039F1E09F07B9F79FC09E012F5F3F4F02
:1014F000490185E0D9011D928A95E9F7B8E2B88FD4
:10150000E0E83E2E212C80E090E0F50120812C21A6
:1015100031F401968039F1E09F07B9F785C00E9448
:1015200036132B013C0180E090E0D5012C912C2159
:1015300031F001968039B1E09B07B9F775C00E9480
:101540003613DC01CB0184199509A609B7098997DF
:10155000A105B10530F0F401E20DF11D8081832970
:101560008083369419F4239470E8372EE88DE15087
:10157000E88FE111C8CF61E08D2D0E94E31261E098
:101580008D2D0E94B412D7018D919C91009719F076
:10159000019759F049C0F9808B812F2D280F9D812B
:1015A000291342C060E0D12C44C089812A81EB809C
:1015B000BC80982F920F9E0D9B0D3D81931334C0DC
:1015C00090E0982F8827820F911D4AE0C42EC89E74
:1015D000B001C99E700D1124072E000C880B990BC9
:1015E00054E6452E512C612C712CA30192010E94CE
:1015F0007322F22ED62E8E2D8F7790E0982F88278B
:101600008B0D911DC89EB001C99E700D1124072E2F
:10161000000C880B990BA30192010E944122822F9A
:10162000E7FE07C0819505C060E080E8D12C90E816
:10163000F92EF801F282D3828483658382EB92E0F3
:101640000E943016D80112968C910E948E1880EB61
:1016500092E00E941516F80183810E948E188EEA8E
:1016600092E00E941516D80114968C910E948E1853
:101670008CEA92E00E941516F80185810E948E186E
:1016800068C061E0D60111968C910E94DB15672B32
:1016900021F480E8F80182835CC061E0D6011196F4
:1016A0008C910E94DB154B015C0160E0F6018181A9
:1016B0000E94DB152B013C01672B09F44AC0B401E1
:1016C000092C000C880B990B0E94FC2020E030E0D4
:1016D00048EC52E40E945B216B017C01B201680D71
:1016E000791D072E000C880B990B0E94FC209B0192
:1016F000AC01C701B6010E94112320E030E048ECA4
:1017000052E40E945B210E948323CB0164E670E0D7
:101710000E944325D80112966C93129713968C93CE
:1017200018C0D12CC12CB12CA12CF9CB80E090E0B9
:101730000E94FA2027EB33EB4FE25BE30E945B2130
:1017400026E636E64BE352E40E94A4222B013C013C
:1017500061CC6B960FB6F894DEBF0FBECDBFDF91A4
:10176000CF911F910F91FF90EF90DF90CF90BF909E
:10177000AF909F908F907F906F905F904F903F9031
:101780002F900895EAE6F3E0A081B18111969C9133
:1017900011978281892B11968C93A081B181129629
:1017A0009C91129782818095892312968C9308953B
:1017B0009C012D50310937FF02C02D5F3F4FC901F9
:1017C00095958795959587951816190614F081E0DB
:1017D00090E010928500109284009093890080938D
:1017E00088007093F8016093F701809174018093F1
:1017F000810008950E94C20B6DEC7CE08CE291E0C8
:101800000C94D80B81110C9436190895AAE6B3E014
:10181000ED91FC911197918112968C91809589237D
:10182000818360EE7CE08BE891E00E94D80B0E94FF
:101830003613DC01CB0185559109A109B1098093CB
:10184000860190938701A0938801B0938901E0916C
:10185000FB01F091FC0180E0099460EE7CE08EEAEF
:1018600091E00E94D80B0E943613DC01CB01C29795
:10187000A109B1098093860190938701A093880103
:10188000B093890108950E942D0CE091FB01F09125
:10189000FC0180E00994CF93E0916A03F0916B031F
:1018A000908180916C038923C1E021F4C0E00E9403
:1018B0002D0C0DC0109281008FEF9FEFDC01809303
:1018C000860190938701A0938801B0938901E091EC
:1018D000F901F091FA0160E08C2FCF9109940E94F8
:1018E000C20B80916D03823010F40E94EB1366E00E
:1018F0007CE083E290E00C94D80B80916D03823001
:1019000010F40E94EB136BE47CE089E190E00C940E
:10191000D80B9093FA018093F90162E070E08DE7B3
:101920009CE00C9414191092FD011092E60180E2E3
:101930009EE00C94890C882361F0E0919303F09170
:101940009403309721F060E082E090E009950C94D8
:1019500036198DEE91E0909304028093030281E0AA
:1019600090E09093EC018093EB011092EA011092C9
:10197000E9018BE99CE090930202809301020E94AE
:10198000930CE0919303F0919403309729F06091C8
:10199000ED0181E090E009940895AAE6B3E0ED91AD
:1019A000FC911197918112968C9180958923818366
:1019B0008FEF90E09093EA018093E9010C94930CEF
:1019C000E0916A03F0916B03908180916C0389230D
:1019D00031F461E070E082E89FE00C9414190895FE
:1019E000EF92FF920F931F93CF93DF937B01D42F3E
:1019F000C22F61E0842F0E94E31261E08C2F0E94CD
:101A0000E31261E08D2F0E94B41261E08C2F0E94DE
:101A1000B41260E08D2F0E94B41260E08C2F0E94FF
:101A2000B41261E08C2F0E94B41261E08D2F0E94ED
:101A3000B41260E08C2F0E94B41207E010E0FF2483
:101A4000B701002E02C0759567950A94E2F76170A0
:101A50008D2F0E94B41261E08C2F0E94B41260E0BE
:101A60008C2F0E94B4120150110950F761E08C2FA5
:101A70000E94B41260E08D2F0E94E3128D2F0E940D
:101A80008B1260E08C2F0E94B4128D2FDF91CF91CA
:101A90001F910F91FF90EF900C948B120F931F9357
:101AA000CF93DF93EC012A813B814881598163E028
:101AB00070E00E94F00C888199810E94FA184A8196
:101AC0005B8168817981CE010E94B8188C016A819E
:101AD0007B81888199810E949F18B801110F880B22
:101AE000990B0E94FC20DF91CF911F910F910895D7
:101AF0001092810061E070E082E89FE00E9414197A
:101B00008FEF9FEFA0E0B0E0809386019093870174
:101B1000A0938801B09389010895882321F0109241
:101B200079010C94361948E050E06DEE71E08AE7D7
:101B300091E00E949726892BD9F481E08093790166
:101B40008DEE91E0909304028093030281E090E097
:101B50009093EC018093EB011092EA011092E9015D
:101B60008BE99CE090930202809301020C94930C09
:101B7000109279010C94780D7093FC016093FB0135
:101B800062E070E0882319F083E49CE002C08FE6F5
:101B90009CE00C941419E0910002F0E0E658FE4F2E
:101BA000808190E00090FF0102C0959587950A948E
:101BB000E2F72091FE01222321F08170992721E094
:101BC0008227817060E17EE00C94BC0D61110C9461
:101BD0003619409100029091FF01E42FF0E0E658A1
:101BE000FE4F208130E0092E02C0359527950A94DA
:101BF000E2F72170281310C081E0890F883019F0B6
:101C00008093FF0105C01092FF014F5F40930002D7
:101C100080910002883011F40C94780D0C94CB0D57
:101C200081110C9436199091FE0181E089278093EF
:101C3000FE0181110C94CB0D86EE9DE00C94890C75
:101C4000662371F00E9436198091E9019091EA01B2
:101C500097FDCEC0E0910102F091020281E0C3C085
:101C60009091E601282F092E01C0220F0A94EAF76D
:101C70003091FD01232B2093FD019F5F9093E6019E
:101C8000E0917601F0917701309741F02091E901E0
:101C90003091EA012F3F310509F009958091E60165
:101CA000883009F0A1C02091E9013091EA018091CA
:101CB000FD012F3F310509F071C01092EA01109229
:101CC000E901853A91F1B0F48333A9F1853509F042
:101CD00063C0109279018DEE91E09093040280939D
:101CE000030288E090E09093EC018093EB018DE893
:101CF0009DE04CC08C3E59F0803F31F08C3C09F0A7
:101D00004BC01092790134C01092790106C0109234
:101D1000790180917801882361F01092000210927D
:101D2000FF011092FE010C94CB0D8091790181117D
:101D30001FC00C94780D109279018AE791E090937E
:101D4000E5018093E40188E090E09093EC018093BA
:101D5000EB011092E60182E09CE09093E801809311
:101D6000E70180917A016BE37FE081700C94BC0DF8
:101D70008DEE91E0909304028093030281E090E065
:101D80009093EC018093EB018BE99CE0909302022D
:101D9000809301020C94930C0C9436194091030229
:101DA00050910402B9016F5F7F4F7093EA01609315
:101DB000E901FA01E20FF31F80831092FD011092F6
:101DC000E6012091E9013091EA018091EB019091C7
:101DD000EC012817390741F40E94780DE0910102C7
:101DE000F091020280E0099480E29EE00C94890C5C
:101DF0000895FC01680F791F90E05CE86E177F077B
:101E000089F0419188E0A92FA427292F30E035954A
:101E10002795922FA0FF02C0952F922746958150BB
:101E200091F7ECCF892F0895CF93C82F61110E94AD
:101E3000780D80917501882379F010927501E091F9
:101E4000E701F091E8013097A1F082E09CE09093E7
:101E5000E8018093E7010AC0E091F501F091F601F5
:101E6000309739F01092F6011092F5018C2FCF9136
:101E70000994CF910895882341F00E943619E0918A
:101E8000E701F091E80181E027C08091E6018F5FD2
:101E9000883019F08093E6010BC01092E601809122
:101EA000E9019091EA0101969093EA018093E9019A
:101EB0008091E9019091EA012091EB013091EC01D0
:101EC0008217930751F461E080E00E94140FE091C3
:101ED000E701F091E80180E009942091E40130915C
:101EE000E501F901E80FF91F808190E00090E6011B
:101EF00002C0959587950A94E2F76BE37FE08170C5
:101F00000C94BC0DCF92DF92EF92FF92CF93E091B1
:101F10006A03F0916B03C08180916C03C8230E9417
:101F200036136B017C01CC2309F45AC080918601E1
:101F300090918701A0918801B09189018F3F2FEF87
:101F40009207A105B10509F453C0A7019601281B0A
:101F5000390B4A0B5B0BDA01C9014FEF5FEF60E011
:101F600070E04093860150938701609388017093DD
:101F70008901803E31E09307A105B105C8F185389C
:101F80009340A105B10538F0CF91FF90EF90DF901D
:101F9000CF900C94361980916D03823010F40E941A
:101FA000EB130E9436135EE1C50ED11CC601861BE1
:101FB000970B6AEF7BE00E94D80B60E081E00E9403
:101FC000140FE0919303F0919403309789F060E04F
:101FD00080E090E0CF91FF90EF90DF90CF90099458
:101FE00060938601709387018093880190938901A3
:101FF000CF91FF90EF90DF90CF9008951F920F92B6
:102000000FB60F9211242F933F934F935F936F93CB
:102010007F938F939F93AF93BF93EF93FF93109210
:102020008100E091F701F091F8011092F80110920F
:10203000F701309709F00995FF91EF91BF91AF91AA
:102040009F918F917F916F915F914F913F912F91D0
:102050000F900FBE0F901F9018951F920F920FB602
:102060000F9211248F930FB6F894A8958091600079
:10207000886180936000109260000FBE8F910F9076
:102080000FBE0F901F9018950F931F93CF93DF9360
:10209000EC01062F142F60E08E850E94B4129C85FF
:1020A0008D859CBD8DBD0EBD00000DB407FEFDCF1E
:1020B0008EB51EBD00000DB407FEFDCF1EB561E05C
:1020C0008E850E94B412812FDF91CF911F910F91C5
:1020D0000895FC01538D448D252F30E0842F90E02E
:1020E000821B930B541710F0CF9608950197089513
:1020F000FC01918D828D981761F0828DDF01A80F10
:10210000B11D5D968C91928D9F5F9F73928F90E031
:1021100008958FEF9FEF0895FC01918D828D9817A0
:1021200031F0828DE80FF11D858D90E008958FEFDD
:102130009FEF0895FC01918D228D892F90E0805CA6
:102140009F4F821B91098F739927089581EC92E02C
:102150000E949A1021E0892B09F420E0822F089533
:10216000FC01848DDF01A80FB11DA35ABF4F2C9134
:10217000848D90E001968F739927848FA689B78903
:102180002C93A089B1898C91837080648C93938DFA
:10219000848D981306C00288F389E02D80818F7D9D
:1021A00080830895EF92FF920F931F93CF93DF9355
:1021B000EC0181E0888F9B8D8C8D981305C0E88998
:1021C000F989808185FD26C0F62E0B8D10E00F5F0A
:1021D0001F4F0F731127E02E8C8DE8120CC00FB625
:1021E00007FCFACFE889F989808185FFF5CFCE0118
:1021F0000E94B010F1CF8B8DFE01E80FF11DE35A64
:10220000FF4FF0829FB7F8940B8FEA89FB8980819A
:1022100080620AC09FB7F894EE89FF896083E889DD
:10222000F98980818370806480839FBF81E090E022
:10223000DF91CF911F910F91FF90EF900895CF9371
:10224000DF93EC01888D8823C9F0EA89FB898081BE
:1022500085FD05C0A889B9898C9186FD0FC00FB690
:1022600007FCF5CF808185FFF2CFA889B9898C91D1
:1022700085FFEDCFCE010E94B010E7CFDF91CF9167
:10228000089580E090E0892B29F00E94A61081112A
:102290000C9400000895833081F028F4813099F087
:1022A0008230A1F008958730A9F08830B9F08430E9
:1022B000D1F4809180008F7D03C0809180008F7762
:1022C00080938000089584B58F7702C084B58F7D98
:1022D00084BD08958091B0008F7703C08091B000D5
:1022E0008F7D8093B0000895089585ED8093BC00A4
:1022F0008091BC0084FDFCCF10929D020895409116
:102300002502262F30E0240F311D21323105DCF467
:1023100020919D022430C9F4FC0180E090E08617F2
:1023200058F4309125022191DC01AB5FBD4FA30F22
:10233000B11D2C930196F3CF80912502680F609315
:10234000250280E0089581E0089582E008950895CF
:1023500008950895E091560280915502E81730F4EF
:10236000F0E0E95AFD4F808190E008958FEF9FEFF4
:1023700008959091560280915502981750F4E92FD4
:10238000F0E0E95AFD4F208130E09F5F90935602C4
:1023900002C02FEF3FEFC90108958091550290E0F0
:1023A00020915602821B91090895CF92DF92EF92FD
:1023B000FF920F931F93CF93DF937C01CB018A0190
:1023C00020919E02222389F0EB016B01C40ED51EE1
:1023D000CC15DD0569F06991D701ED91FC91019073
:1023E000F081E02DC7010995F3CF642F0E947F1182
:1023F000C801DF91CF911F910F91FF90EF90DF9077
:10240000CF900895CF93DF931F92CDB7DEB7698346
:1024100020919E022223D1F02091C002203240F070
:1024200021E030E0FC013383228380E090E015C09E
:1024300080919F02E82FF0E0E056FD4F9981908354
:102440008F5F80939F028093C00205C061E0CE0140
:1024500001960E947F1181E090E00F90DF91CF9173
:1024600008950E9492261F920F920FB60F92112488
:102470002F933F934F935F936F937F938F939F938C
:10248000AF93BF93EF93FF9381EC92E00E94B01063
:10249000FF91EF91BF91AF919F918F917F916F913C
:1024A0005F914F913F912F910F900FBE0F901F9012
:1024B00018951F920F920FB60F9211242F938F939E
:1024C0009F93EF93FF93E091D102F091D20280812C
:1024D000E091D702F091D80282FD12C090818091E4
:1024E000DA028F5F8F732091DB02821751F0E09147
:1024F000DA02F0E0EF53FD4F958F8093DA0201C0CE
:102500008081FF91EF919F918F912F910F900FBE3E
:102510000F901F901895CF93DF93282F30E0F9018B
:10252000EB59FA4F8491F901E956FA4FD491F90128
:10253000ED57FA4FC491CC2391F081110E944B11B9
:10254000EC2FF0E0EE0FFF1FE758FA4FA591B49182
:10255000EC91ED2381E090E021F480E002C080E086
:1025600090E0DF91CF9108951F93CF93DF93282FB1
:1025700030E0F901EB59FA4F8491F901E956FA4F2D
:10258000D491F901ED57FA4FC491CC23C1F0162F25
:1025900081110E944B11EC2FF0E0EE0FFF1FE55A66
:1025A000FA4FA591B4919FB7F894111104C08C9182
:1025B000D095D82302C0EC91DE2BDC939FBFDF9136
:1025C000CF911F910895CF93DF9390E0FC01E956DE
:1025D000FA4F2491FC01ED57FA4F8491882361F161
:1025E00090E0880F991FFC01E957FC4FC591D491E9
:1025F000FC01E55AFA4FA591B491611109C09FB74A
:10260000F8948881209582238883EC912E230BC037
:10261000623061F49FB7F8948881322F309583231C
:102620008883EC912E2B2C939FBF06C08FB7F89414
:10263000E8812E2B28838FBFDF91CF9108958E30B4
:1026400008F08E508770806480937C0080917A00BF
:10265000806480937A0080917A0086FDFCCF80911F
:1026600078002091790090E0922B08953FB7F8947C
:1026700080914D0290914E02A0914F02B091500274
:1026800026B5A89B05C02F3F19F00196A11DB11DCD
:102690003FBFBA2FA92F982F8827820F911DA11D08
:1026A000B11DBC01CD0142E0660F771F881F991F45
:1026B0004A95D1F708958F929F92AF92BF92CF9291
:1026C000DF92EF92FF926B017C010E9436134B0167
:1026D0005C01C114D104E104F104F1F00E9436134D
:1026E000DC01CB0188199909AA09BB09883E9340EE
:1026F000A105B10570F321E0C21AD108E108F10883
:1027000088EE880E83E0981EA11CB11CC114D10470
:10271000E104F10419F7DDCFFF90EF90DF90CF9047
:10272000BF90AF909F908F9008952FB7F8946091CD
:10273000490270914A0280914B0290914C022FBF46
:1027400008951F920F920FB60F9211242F933F936B
:102750008F939F93AF93BF938091490290914A02C8
:10276000A0914B02B0914C023091480223E0230F1C
:102770002D3720F40196A11DB11D05C026E8230FB9
:102780000296A11DB11D20934802809349029093A7
:102790004A02A0934B02B0934C0280914D0290915B
:1027A0004E02A0914F02B09150020196A11DB11DA1
:1027B00080934D0290934E02A0934F02B09350022B
:1027C000BF91AF919F918F913F912F910F900FBE2D
:1027D0000F901F901895882321F0813019F4E99803
:1027E00001C0E898E82FF0E0EE0FFF1FEC5FFE4F0E
:1027F00084E791E19183808308951F920F920FB631
:102800000F9211242F933F934F935F936F937F9376
:102810008F939F93AF93BF93EF93FF93E091060144
:10282000F09107010995FF91EF91BF91AF919F91B1
:102830008F917F916F915F914F913F912F910F9069
:102840000FBE0F901F9018951F920F920FB60F9208
:1028500011242F933F934F935F936F937F938F93A5
:102860009F93AF93BF93EF93FF93E0910401F09197
:1028700005010995FF91EF91BF91AF919F918F91C4
:102880007F916F915F914F913F912F910F900FBE6C
:102890000F901F9018951F920F920FB60F92112450
:1028A0002F933F934F935F936F937F938F939F9358
:1028B000AF93BF93EF93FF938091B900887F8036E9
:1028C00009F49CC068F5883209F45BC090F480314B
:1028D00009F454C038F4882309F4F6C0883009F4A8
:1028E0004DC0F6C0883109F44CC0803209F45DC097
:1028F000EFC0803409F468C048F4803309F455C04F
:10290000883309F0E5C080939B02D8C0803509F474
:102910004FC0883509F45DC0883409F0D9C0D6C0ED
:10292000883909F4C7C0A8F4883709F467C038F4B7
:10293000883609F463C0803709F460C0C9C088389C
:1029400009F4B8C0803909F45FC0803809F0C0C00C
:102950005BC0803B09F486C038F4803A09F466C055
:10296000883A09F47FC0B4C0803C09F4A7C0883C11
:1029700009F4A4C0883B09F48AC0AAC080917802F7
:1029800010C090919A0280919902981770F5E09189
:102990009A0281E08E0F80939A02F0E0E758FD4F93
:1029A00080818093BB0085EC86C080939B028EC0A3
:1029B000E0919A0281E08E0F80939A028091BB0091
:1029C000F0E0E758FD4F808390919A028091990240
:1029D0006EC0E0919A0281E08E0F80939A028091FE
:1029E000BB00F0E0E758FD4F808380919C0281118D
:1029F0006DC081E08093770284EA61C083E08093B8
:102A00009D0210924702CFCF80914702803208F09A
:102A100051C0E091470281E08E0F80934702809180
:102A2000BB00F0E0E95DFD4F8083BDCF85EC809376
:102A3000BC0010929D0280914702803230F4E091F8
:102A40004702F0E0E95DFD4F10826091470270E0BF
:102A5000E0915102F091520287E292E009951092C2
:102A6000470236C084E080939D02109226021092A5
:102A70002502E0915302F0915402099580912502BC
:102A8000811105C081E08093250210920502E0913A
:102A9000260281E08E0F80932602F0E0EB5FFD4F6F
:102AA00080818093BB009091260280912502981727
:102AB00008F479CF85E88093BC000AC085EC809348
:102AC000BC0010929D0204C010929B020E947511DE
:102AD000FF91EF91BF91AF919F918F917F916F91F6
:102AE0005F914F913F912F910F900FBE0F901F90CC
:102AF0001895DC012C911196ED91FC911297F894A8
:102B00008181922F90958923818378948DE743E08A
:102B100050E0815021F1DA011197F1F73081322331
:102B2000C1F3F8948281892382838181822B8183FE
:102B30007894ABE7B7E01197F1F7F8948181982387
:102B4000918383E191E00197F1F78081282381E06F
:102B500009F080E07894E3E6F6E03197F1F7089524
:102B60001F93CF93DF93EC01162F60E0812F0E941B
:102B7000E312612F70E0FB01E956FA4FE491E8831C
:102B8000FB01ED57FA4FE491F0E0EE0FFF1FE7581D
:102B9000FA4F859194919A8389831B861D861C86A2
:102BA000FE013B9623961292EC17FD07E1F7DF91A9
:102BB000CF911F9108950F931F93262F90E0FC0152
:102BC000E956FA4F6491FC01ED57FA4FE491222344
:102BD00011F0462F01C040E0F0E0EE0FFF1FE75874
:102BE000FA4F8591949100E412E42FE030E00E94C6
:102BF0004519611571058105910549F0DC01CB018D
:102C00000196A11DB11DBC01CD019F7003C060E004
:102C100070E0CB011F910F91089542E050E06DE606
:102C200071E081EC92E00C9438180F931F93CF93CE
:102C3000DF938C01C0E0D0E0F801EC0FFD1F649140
:102C4000662341F081EC92E00E94D210892B11F0B2
:102C50002196F2CFCE01DF91CF911F910F91089570
:102C6000CF93DF930E941516EC010E940D168C0F76
:102C70009D1FDF91CF910895E1ECF2E0A089B18929
:102C800082E08C93A089B1891C92A485B5851C92A1
:102C9000A685B78580E18C93108EA489B58986E0DE
:102CA0008C93A289B3898C9180618C93A289B3891A
:102CB0008C9188608C93A289B3898C9180688C9365
:102CC0000288F389E02D80818F7D808308958F9223
:102CD0009F92AF92BF920F931F93CF93DF93CDB785
:102CE000DEB7A1970FB6F894DEBF0FBECDBF19A215
:102CF000423008F44AE08E010F5D1F4F842E912C64
:102D0000A12CB12CA50194010E947322E62FB901D8
:102D1000CA0101501109EA3014F4E05D01C0E95C18
:102D2000D801EC93232B242B252B61F701151105DA
:102D300071F0F80101900020E9F73197AF01401BD5
:102D4000510BB80181EC92E00E94381802C080E07B
:102D500090E0A1960FB6F894DEBF0FBECDBFDF9115
:102D6000CF911F910F91BF90AF909F908F9008953A
:102D7000282F3091C002313208F04AC080919D0264
:102D80008111FCCF9091920342E040939D022093E9
:102D90009C022FEF20939B0210929A02309399028B
:102DA000E0EAF2E0A9E7B2E020E0321721F0419139
:102DB0004D932F5FFACF1092780220917802990FED
:102DC000922B9093780290917702913061F4109257
:102DD0007702909178029093BB009091BC0093FD94
:102DE000F8CF95EC01C095EE9093BC0090919D02B8
:102DF0009230E1F390919B029F3F79F080919B028A
:102E0000803241F080919B02803331F084E005C034
:102E100081E003C082E001C083E010929F02109223
:102E2000C00210929E02089591E090939E028093BA
:102E3000920310929F021092C0020895CF93C82F60
:102E400080E40E94141766EE8EE593E00E94021261
:102E50006C2F8EE593E00E94021281E0CF910C94DA
:102E6000B81690919D029111FCCF91E090939D0234
:102E700090939C022FEF20939B0210929A02260FB0
:102E8000209399029093780290917802880F892B71
:102E90008093780280917702813061F410927702FA
:102EA000809178028093BB008091BC0083FDF8CFB5
:102EB00085EC01C085EE8093BC0080919D0281303D
:102EC000E1F380919A02861710F460919A02A9E7C3
:102ED000B2E0E7E5F2E080E0861721F09D91919362
:102EE0008F5FFACF0895613208F060E20E943117D7
:102EF00010925602809355020895CF9380E40E9469
:102F0000141767EE8EE593E00E94021281E00E94A2
:102F1000B81661E070E080E490E00E9473178EE5DF
:102F200093E00E94B911C82F81E00E94B8168C2F3F
:102F3000CF910895109256021092550210929F025E
:102F40001092C00210929D0281E080939C02109228
:102F5000770261E082E10E94B41261E083E10E94A5
:102F6000B412E9EBF0E080818E7F808380818D7FD9
:102F7000808388E48093B80085E48093BC0087EA6E
:102F800091E1909354028093530288EA91E19093E7
:102F90005202809351020895682F8EE593E00C94BD
:102FA0000212AF92BF92CF92DF92EF92FF920F93F5
:102FB0001F93CF93DF93DC0128E030E091E0AA2457
:102FC000AA94B12C0FE010E043E2E42EF12C57ED6F
:102FD000C52ED12C8C911196ED91FC911297482F12
:102FE0004095562F592381F0F8945281452342830E
:102FF0004181482B4183E7012197F1F74281842BDE
:1030000082837894F6010FC0F8945281452342835D
:103010004181482B4183E5012197F1F74281842BBF
:1030200082837894F8013197F1F7990F2150310993
:1030300089F6F8941196ED91FC91129791818C91FB
:103040008095892381831196ED91FC91129792814D
:103050008C918095892382837894DF91CF911F9101
:103060000F91FF90EF90DF90CF90BF90AF900895B9
:10307000CF92DF92EF92FF920F931F93CF93DF9344
:103080006C017A018B01C0E0D0E0CE15DF0581F044
:10309000D8016D918D01D601ED91FC910190F081E7
:1030A000E02DC6010995892B11F02196EECF7E0106
:1030B000C701DF91CF911F910F91FF90EF90DF90AB
:1030C000CF900895EF92FF920F931F93CF93DF93CA
:1030D000E82EF62E08E010E0C0E0D0E061E08F2D91
:1030E0000E94B4126AE070E080E090E00E945B13FE
:1030F000CC0FDD1F8E2D0E948B12C80FD91F60E0F0
:103100008F2D0E94B4120150110941F7CE01DF91B9
:10311000CF911F910F91FF90EF900895CF93DF9380
:10312000682F70E080E090E04AE00E946716EC01B2
:103130000E940D168C0F9D1FDF91CF910895CF93A4
:10314000DF93D82FC62F61E00E94E31261E08C2F3D
:103150000E94E31261E08D2F0E94B41261E08C2F77
:103160000E94B41260E08C2FDF91CF910C94B412C6
:10317000EF92FF920F931F93CF93DF93C62FF72EFB
:10318000D42FE52E60E08C2F0E94E31261E08D2F9A
:103190000E94E3126D2F7E2D8C2F9F2D0E946218AE
:1031A00000E010E0182F61E08C2F0E94E31261E034
:1031B0008C2F0E94B41260E08C2F0E94B41261E048
:1031C0008D2F0E94B41260E08D2F0E94B41260E037
:1031D0008C2F0E94E3126D2F7E2D8C2F9F2D0E942D
:1031E0006218802B912BDF91CF911F910F91FF904F
:1031F000EF9008951F93CF93DF93182F60E00E9404
:10320000E312C4E6D0E06AE070E080E090E00E9463
:103210005B13812F0E948B12892B11F0219799F754
:10322000DF91CF911F9108959C01E09A90916D03D9
:103230009230D8F4E92FF0E0EE0FFF1FEC5FFE4F65
:103240003183208380916900913031F08C7F682B2D
:1032500060936900E89A0895837F660F771F660F71
:10326000771F682B60936900E99A089561E081E017
:103270000E94140FE0919303F0919403309721F092
:1032800060E082E090E009940895CF92DF92EF929F
:10329000FF920F931F93E82FF92F05C001501109DA
:1032A0002109310961F1908196239417B9F305C082
:1032B000015011092109310911F1908196239413CC
:1032C000F7CFC12CD12CE12CF12C0AC08FEFC81AFA
:1032D000D80AE80AF80A0C151D052E053F0579F0F5
:1032E00080818623841791F36C2D7D2D8E2D9F2D4B
:1032F0001F910F91FF90EF90DF90CF90089560E0C5
:1033000070E080E090E01F910F91FF90EF90DF90D0
:10331000CF900895CF93DF93CDB7DEB72E970FB63A
:10332000F894DEBF0FBECDBF789484B5826084BDB3
:1033300084B5816084BD85B5826085BD85B58160B9
:1033400085BD80916E00816080936E001092810037
:1033500080918100826080938100809181008160F2
:1033600080938100809180008160809380008091B3
:10337000B10084608093B1008091B000816080933F
:10338000B00080917A00846080937A0080917A0006
:10339000826080937A0080917A00816080937A00C5
:1033A00080917A00806880937A001092C1000E9418
:1033B0009E2024E630E040E050E00E9441227093DD
:1033C000DB016093DA010E943C168EE1E1E9F1E055
:1033D000DF011D928A95E9F74DE150E06BE770E05F
:1033E000CF010E9419228091950181508E3F18F0E3
:1033F00083E18093950181E0809391011092920185
:10340000809199018F3F11F41092990180919A0156
:103410008F3F19F481E080939A0120919901211145
:1034200007C080919A01853018F485E080939A0155
:1034300080919A0190E0BCE32B9F800D911D112497
:1034400048EE53E0849F9001859F300D949F300D8E
:103450001124C901330FAA0BBB0B80930001909379
:103460000101A0930201B093030188EC92E00E9455
:1034700015166091000170910101809102019091F7
:1034800003014AE00E9467160E940D168EE291E049
:103490000E944D0480939D0181E391E00E944D04C0
:1034A0008093A30184E391E00E944D048093A901DD
:1034B0006EE971E08EE291E00E94250464EA71E019
:1034C00081E391E00E9425046AEA71E084E391E0DF
:1034D0000E942504A7E36A2EA1E07A2EEEE2F1E035
:1034E0008081843019F0873081F01FC0809197016E
:1034F0008F3F39F4809198018F3F19F480E78093D2
:103500009801809193018C600AC0809197018F3F50
:1035100019F48FE7809397018091930184608093E1
:10352000930180919301826008C0339611E0E733E4
:10353000F107B1F6809193018D7F809393016DE146
:1035400070E081E991E00E94F90E8093AE018EE176
:10355000E1E9F1E0AFEAB1E001900D928A95E1F77F
:1035600087E793E00E9430165FECC52E51E0D52E20
:103570006EE2E62E61E0F62EAA24A394B12CECE0D4
:103580003E2EF0E18F2E912CD701EC918E2F90E002
:10359000FC013197EB30F10508F009C1E55BFF4F05
:1035A0000C94572589E293E00E943016F70161815F
:1035B000611103C08EE093E040C0CE0101960E94ED
:1035C000B015CE0101960E947915811103C08BEED2
:1035D00092E033C06CECCE0101960E94D1176EE4EC
:1035E000CE0101960E94D11760E0CE0101960E94A3
:1035F000D11760E0CE0101960E94D1176FE7CE018E
:1036000001960E94D117CE0101960E9479156CECAB
:10361000CE0101960E94D11768E4CE0101960E9466
:10362000D1176AE070E080E090E00E945B13CE0169
:1036300001960E94791589ED92E00E943016B7C07C
:103640008AE493E00E94301684E090E00E947125A5
:103650008C01D70111968C9190E0F80191838083C1
:103660000E949A1761E0C8010E941604D8011396BF
:103670009C928E92129760E1C8010E941604EFE3BB
:10368000FCE93197F1F700C0000089E393E060C0E6
:1036900082E090E00E9471258C01D70111965C9028
:1036A0000E949A17852D90E0F80191838083852DE3
:1036B0000E94141782E090E00E94CC1780E490E012
:1036C0000E94CC1781E00E94B81673C082E090E09F
:1036D0000E9471258C01DC011D921C920E949A1798
:1036E0003092B80080E40E94141781E00E94B8165E
:1036F00081115FC0F801508041800E947D178E7754
:1037000085290E941E17D8015C9211964C920E9446
:103710007D178B7F0E941E174CC089E693E00E94A4
:10372000301682E090E00E9471258C01FC0111822C
:1037300010820CC089E693E00E94301682E090E08F
:103740000E9471258C01DC01AD92BC9289E593E069
:103750000E9430162EC00DE111E0F80161918F0139
:103760006F3F59F0CE0101960E942405E981FA814C
:1037700091818B81809589238183F1E005321F0738
:1037800061F715C08AE090E00E9471258C01DC0190
:103790001C92FC01128213821482158216961D92CD
:1037A0001D921D921C92199711961C9202C000E066
:1037B00010E0F601019311936F01F3E0EF0EF11C9D
:1037C0006E147F0409F0E0CE0E943C1661E081E1B6
:1037D0000E94E31260E081E10E94B41288E090E070
:1037E00090937E0380937D0387E090E09093800325
:1037F00080937F038FEF9FEF9093820380938103E9
:1038000061E088E00E94E31261E080917D030E9404
:10381000B41280917F03909180038F3F0FEF900748
:10382000C9F061E00E94E31260E080917F030E9492
:10383000B4126AE070E080E090E00E945B1361E007
:1038400080917F030E94B4126AE070E080E090E013
:103850000E945B131FB7F8948091CE01811127C09D
:10386000EDE8F5E08491E1EAF5E09491E82FF0E0ED
:10387000EE0FFF1FE957FC4FA591B491EC91E9239E
:1038800021F461E08AE00E94B41261E08AE00E94C3
:10389000E3128CB580618CBD8CB580648CBD61E019
:1038A0008DE00E94E31261E08BE00E94E3128091C0
:1038B000CE018F5F8093CE011FBF40E062E48FE6B0
:1038C00093E00E944410823109F052C040E861E860
:1038D0008FE693E00E94441080E091EAACEBB3E302
:1038E0008093830390938403A0938503B09386030E
:1038F00049ED66E88FE693E00E94441040E067E8F7
:103900008FE693E00E94441040E068E88FE693E081
:103910000E94441040E06EE88FE693E00E9444105D
:1039200040E06FE88FE693E00E94441040E06CE0D6
:103930008FE693E00E944410482F43606CE88FE6C6
:1039400093E00E94441044E066EA8FE693E00E9410
:1039500044104FE869E88FE693E00E94441041E884
:1039600061E88FE693E00E94441081E090E002C09D
:1039700080E090E0282F21702093D501892B79F0E9
:103980004FE869E88FE693E00E94441040E861E860
:103990008FE693E00E94441081E993E002C08FE932
:1039A00093E00E9430160E9495136093E00170939B
:1039B000E1018093E2019093E30189E594E0909323
:1039C00094038093930360919103CE0101960E942A
:1039D000240585E0FE013196AAE6B3E001900D9240
:1039E0008A95E1F78FEF9FEFDC018093860190933A
:1039F0008701A0938801B093890187E0E5E2F1E0B7
:103A0000AAE7B1E001900D928A95E1F767E070E0D6
:103A10008AE791E00E94F90E80938101109279016A
:103A20001092780110927701109276011092750130
:103A3000F894E0916A03F0916B03918180916C039B
:103A4000809589238183E0916A03F0916B039281D1
:103A500080916C038095892382831092800010925C
:103A6000810080916F00826080936F008BE0809373
:103A700074010E94780D789432E3232E312C412C6E
:103A8000512C8091CD018823B1F11092CD018EE1AE
:103A9000E1E9F1E0AFEAB1E001900D928A95E1F73A
:103AA0006DE170E08FEA91E00E94F90E8093CC0105
:103AB0002091B7018091B80190E01CE3219F800D17
:103AC000911D112448EE53E0849F9001859F300D95
:103AD000949F300D1124C901330FAA0BBB0B8093A7
:103AE000000190930101A0930201B09303018DE3C3
:103AF00095E00E9430160E9495134B015C01809165
:103B00009001882351F08092E0019092E101A0920F
:103B1000E201B092E3011092900180918F0188231D
:103B200009F448C08091E0019091E101A091E20187
:103B3000B091E30185017401E81AF90A0A0B1B0B25
:103B4000D801C70189399A43A105B10598F18BE2E3
:103B500095E00E9415166091E0017091E10180915D
:103B6000E2019091E3014AE00E9467168DE195E041
:103B70000E9415164AE0C501B4010E94671683E150
:103B800095E00E9415168091E0019091E101A091CD
:103B9000E201B091E301A5019401281B390B4A0B06
:103BA0005B0BCA01B9014AE00E9467160E940D161C
:103BB00010928F0180918F0181112CC02091DA0128
:103BC0003091DB018091000190910101A0910201EF
:103BD000B09103014091DC015091DD016091DE0163
:103BE0007091DF0185017401E41AF50A060B170BC9
:103BF000820F931FA11DB11D8E159F05A007B10750
:103C000048F480918E01811105C080918D01882337
:103C100009F41EC180918D018823E9F180918E0104
:103C2000811139C088EE94E00E94301631E0309363
:103C30008E018092D6019092D701A092D801B092C5
:103C4000D90186E194E00E9430168FECC82E81E005
:103C5000D82E0EE211E0D8018C91813009F400C118
:103C6000873009F428C10D5F1F4F32E0C30ED11C0D
:103C70006016710681F70E9495136093DC017093C2
:103C8000DD018093DE019093DF0110928D018BECBA
:103C900094E00E94301680918E01811105C08091C0
:103CA0008E0181115BC0D1C09FECC92E91E0D92E4D
:103CB0002EE2E22E21E0F22ED7018C91873009F01E
:103CC00042C0F60100811181D80111968C911197A3
:103CD0008823C9F18C918A3018F011961C9233C058
:103CE0000E949513F8012281338144815581DC01C2
:103CF000CB01821B930BA40BB50B4597A105B10516
:103D000010F180818F5F8083D70111968C910E9482
:103D10001F13092E000CAA0BBB0BF801468157811B
:103D200060857185840F951FA61FB71F86839783B3
:103D3000A087B1870E949513D80112966D937D9349
:103D40008D939C931597B3E0EB0EF11CE2E0CE0E41
:103D5000D11C6E147F0409F0AFCFA1CF8091D601A2
:103D60009091D701A091D801B091D901850174013A
:103D7000E81AF90A0A0B1B0BD801C701893E9340C8
:103D8000A105B10508F461C080918B0190918C016F
:103D9000039709F45AC08AEA94E00E94301687E239
:103DA00094E00E9430166091CF017091D0014CE9EF
:103DB00051E08EE291E00E944C056091D10170913A
:103DC000D20142EA51E081E391E00E944C0560910A
:103DD000D3017091D40148EA51E084E391E00E945C
:103DE0004C058EE1E1E9F1E0AFEAB1E001900D921E
:103DF0008A95E1F76DE170E08FEA91E00E94F90E9B
:103E00008093CC0185E994E00E94301680918F0167
:103E1000882309F46FC084E994E00E9430168092F0
:103E2000D6019092D701A092D801B092D9011092F8
:103E30008E010E949E2024E630E040E050E00E9487
:103E400041227093DB016093DA010E94411119CE87
:103E500021E020938D0188EF94E00E943016DACEA5
:103E600088EF93E00E943016F8016181611103C070
:103E70008DED93E00CC0CE0101960E94B015CE01ED
:103E800001960E947915811105C086EC93E00E948D
:103E90003016E9CE6CECCE0101960E94D11764E495
:103EA000CE0101960E94D117CE0101960E9479158C
:103EB00081EB93E0ECCFD601ED90FC90F70181818E
:103EC0008111D1CE10820E949513D70112966D9365
:103ED0007D938D939C931597F70116821782108618
:103EE0001186D80111968C910E941F1321E0F701D1
:103EF0002183B9CE8091D501811103C083E894E07C
:103F000006C08091930180FD05C088E694E00E9480
:103F1000301681CF8AE494E00E9430166DE170E0A3
:103F200081E991E00E94F90E8093AE0141E861E8D9
:103F30008FE693E00E94441010928A031092890346
:103F400040E06DE18FE693E00E944410482F4E7FE1
:103F50006DE98FE693E00E94441040E06DE88FE643
:103F600093E00E94441040E062EA8FE693E00E94F2
:103F700044104EE150E061E971E08FE693E00E9469
:103F8000730343E861E88FE693E00E94441040E049
:103F900062E18FE693E00E94441083FFF8CF48E08F
:103FA00062E98FE693E00E94441087E394E00E9468
:103FB00030160E949E20A20191010E9441220E947F
:103FC0005B1340E861E88FE693E00E94441023CF42
:103FD000E1ECF2E01382128288EE93E0A0E0B0E020
:103FE00084839583A683B7832BE331E031832083D9
:103FF00025EC30E03587248724EC30E037872687AE
:1040000020EC30E0318B208B21EC30E0338B228BA5
:1040100022EC30E0358B248B26EC30E0378B268B7E
:10402000118E128E138E148EEEE5F3E0138212823F
:1040300084839583A683B7838DE491E09183808305
:10404000EAE6F3E01282118210828FEF8383848389
:10405000EFE6F3E0138212828FE591E09183808393
:1040600080E5848781E085878AE090E0978786876E
:1040700089E090E0918B808B82E090E0938B828B43
:10408000148A158A168A178A118E108E138E128E34
:10409000158E148E148215821682178262E08DE8C6
:1040A00093E00C9424058F929F92AF92BF92CF928F
:1040B000DF92EF92FF92CF93DF93EC0168817981D9
:1040C0008A819B81611571058105910521F464E266
:1040D00079ED8BE597E02DE133EF41E050E00E9470
:1040E000412249015A019B01AC01A7EAB1E40E94B7
:1040F00060226B017C01ACEEB4EFA50194010E943B
:104100006E22DC01CB018C0D9D1DAE1DBF1DB7FFC6
:1041100003C00197A109B04888839983AA83BB8310
:10412000BC01CD019F77DF91CF91FF90EF90DF90A1
:10413000CF90BF90AF909F908F9008958F929F9255
:10414000AF92BF92CF92DF92EF92FF9260910801FF
:104150007091090180910A0190910B01611571051F
:104160008105910521F464E279ED8BE597E02DE17D
:1041700033EF41E050E00E94412249015A019B0186
:10418000AC01A7EAB1E40E9460226B017C01ACEEB5
:10419000B4EFA50194010E946E22DC01CB018C0DCD
:1041A0009D1DAE1DBF1DB7FF03C00197A109B048FB
:1041B0008093080190930901A0930A01B0930B0129
:1041C000BC01CD019F77FF90EF90DF90CF90BF9023
:1041D000AF909F908F9008956093080170930901AC
:1041E00080930A0190930B0108950E94372108F4EF
:1041F00081E00895E89409C097FB3EF4909580957E
:10420000709561957F4F8F4F9F4F9923A9F0F92F9C
:1042100096E9BB279395F695879577956795B7951A
:10422000F111F8CFFAF4BB0F11F460FF1BC06F5F00
:104230007F4F8F4F9F4F16C0882311F096E911C012
:10424000772321F09EE8872F762F05C0662371F033
:1042500096E8862F70E060E02AF09A95660F771F47
:10426000881FDAF7880F9695879597F90895990F23
:104270000008550FAA0BE0E8FEEF16161706E80730
:10428000F907C0F012161306E407F50798F0621B51
:10429000730B840B950B39F40A2661F0232B242B26
:1042A000252B21F408950A2609F4A140A6958FEF45
:1042B000811D811D08950E946E210C94DF210E94B2
:1042C000D12138F00E94D82120F0952311F00C94D0
:1042D000C8210C94CE2111240C9413220E94F021A9
:1042E00070F3959FC1F3950F50E0551F629FF00149
:1042F000729FBB27F00DB11D639FAA27F00DB11D62
:10430000AA1F649F6627B00DA11D661F829F2227EA
:10431000B00DA11D621F739FB00DA11D621F839F71
:10432000A00D611D221F749F3327A00D611D231F47
:10433000849F600D211D822F762F6A2F11249F5795
:1043400050409AF0F1F088234AF0EE0FFF1FBB1F98
:10435000661F771F881F91505040A9F79E3F510557
:1043600080F00C94C8210C9413225F3FE4F3983E34
:10437000D4F3869577956795B795F795E7959F5F01
:10438000C1F7FE2B880F911D9695879597F9089593
:1043900097F99F6780E870E060E008959FEF80ECF8
:1043A000089500240A94161617061806090608959B
:1043B00000240A9412161306140605060895092E01
:1043C0000394000C11F4882352F0BB0F40F4BF2B70
:1043D00011F460FF04C06F5F7F4F8F4F9F4F0895B0
:1043E00057FD9058440F551F59F05F3F71F04795A6
:1043F000880F97FB991F61F09F3F79F0879508958B
:10440000121613061406551FF2CF4695F1DF08C0A9
:10441000161617061806991FF1CF869571056105C6
:1044200008940895E894BB2766277727CB0197F96E
:104430000895DC01CB01FC01F999FECF06C0F2BD65
:10444000E1BDF89A319600B40D9241505040B8F752
:104450000895DC01CB0103C02D910E94342241500C
:104460005040D0F70895262FF999FECF1FBA92BD7C
:1044700081BD20BD0FB6F894FA9AF99A0FBE019645
:104480000895052E97FB1EF400940E94582257FDB4
:1044900007D00E94732207FC03D04EF40C945822DC
:1044A00050954095309521953F4F4F4F5F4F089560
:1044B00090958095709561957F4F8F4F9F4F089590
:1044C0000E949522A59F900DB49F900DA49F800DF2
:1044D000911D11240895B7FF0C9460220E94602260
:1044E000821B930B0895A1E21A2EAA1BBB1BFD0190
:1044F0000DC0AA1FBB1FEE1FFF1FA217B307E407C3
:10450000F50720F0A21BB30BE40BF50B661F771F1A
:10451000881F991F1A9469F76095709580959095FA
:104520009B01AC01BD01CF010895A29FB001B39FD3
:10453000C001A39F700D811D1124911DB29F700DAC
:10454000811D1124911D08955058BB27AA270E9450
:10455000BC220C94DF210E94D12138F00E94D82186
:1045600020F039F49F3F19F426F40C94CE210EF478
:10457000E095E7FB0C94C821E92F0E94F02158F345
:10458000BA17620773078407950720F079F4A6F538
:104590000C9412220EF4E0950B2EBA2FA02D0B01D5
:1045A000B90190010C01CA01A0011124FF27591B78
:1045B00099F0593F50F4503E68F11A16F040A22F7E
:1045C000232F342F4427585FF3CF469537952795EF
:1045D000A795F0405395C9F77EF41F16BA0B620BEE
:1045E000730B840BBAF09150A1F0FF0FBB1F661F35
:1045F000771F881FC2F70EC0BA0F621F731F841F78
:1046000048F4879577956795B795F7959E3F08F09D
:10461000B0CF9395880F08F09927EE0F979587955F
:1046200008950E9425230C94DF210E94D82158F080
:104630000E94D12140F029F45F3F29F00C94C82159
:1046400051110C9413220C94CE210E94F02168F396
:104650009923B1F3552391F3951B550BBB27AA273B
:1046600062177307840738F09F5F5F4F220F331F75
:10467000441FAA1FA9F335D00E2E3AF0E0E832D03D
:1046800091505040E695001CCAF72BD0FE2F29D040
:10469000660F771F881FBB1F261737074807AB0712
:1046A000B0E809F0BB0B802DBF01FF2793585F4F87
:1046B0003AF09E3F510578F00C94C8210C941322D7
:1046C0005F3FE4F3983ED4F3869577956795B79569
:1046D000F7959F5FC9F7880F911D9695879597F974
:1046E0000895E1E0660F771F881FBB1F62177307ED
:1046F0008407BA0720F0621B730B840BBA0BEE1F02
:1047000088F7E09508950E948A236894B1110C946B
:10471000132208950E94F82188F09F5798F0B92F2E
:104720009927B751B0F0E1F0660F771F881F991FE6
:104730001AF0BA95C9F714C0B13091F00E94122254
:10474000B1E008950C941222672F782F8827B85F64
:1047500039F0B93FCCF3869577956795B395D9F73E
:104760003EF490958095709561957F4F8F4F9F4F48
:1047700008950E94372108F48FEF0895FA01EE0F93
:10478000FF1F309621053105A1F16115710561F416
:104790008038BFE39B0749F168949038810561F048
:1047A0008038BFEF9B0741F099234AF5FF3FE105B1
:1047B0003105210519F1E8940894E795D901AA2358
:1047C00029F4AB2FBE2FF85FD0F310C0FF5F70F459
:1047D000A695E0F7F73950F019F0FF3A38F49F77D3
:1047E0009F930DD00F9007FC9058089546F00C94BD
:1047F000CE2160E070E080E89FE308954FE79F7767
:104800005F934F933F932F930E94B9242F913F9131
:104810004F915F910E945B210C94162429F416F0AD
:104820000C94C8210C9412220C94CE210E94F821E1
:10483000A8F39638A0F707F80F92E8942BE33AEA2A
:1048400048EB5FE70E9471210F920F920F924DB7D4
:104850005EB70F920E940125ECEAF0E00E94482426
:104860004F915F91EF91FF91E595EE1FFF1F49F08A
:10487000FE57E0684427EE0F441FFA95E1F7419593
:10488000550B0E947B240F9007FE0C946F24089513
:10489000DF93CF931F930F93FF92EF92DF927B01F1
:1048A0008C01689406C0DA2EEF010E946E21FE0191
:1048B000E894A5912591359145915591A6F3EF0185
:1048C0000E94BC22FE019701A801DA9469F7DF90EB
:1048D000EF90FF900F911F91CF91DF9108959B0171
:1048E000AC0160E070E080E89FE30C9411230C942D
:1048F000C8210C9435250E94F821D8F39923C9F3D7
:10490000940F511DA3F39150504094F059F0882317
:1049100032F0660F771F881F91505040C1F79E3FBD
:1049200051052CF7880F911D9695879597F9089555
:104930005F3FACF0983E9CF0BB27869577956795D6
:10494000B79508F4B1609395C1F7BB0F58F711F410
:1049500060FFE8CF6F5F7F4F8F4F9F4FE3CF0C9487
:10496000132216F00C9435250C94CE2168940C94E7
:10497000C8210E94F821A8F39923C1F3AEF3DF9375
:10498000CF931F930F93FF92C92FDD2788232AF01F
:104990002197660F771F881FDAF720E030E040E8A4
:1049A0005FEB9FE3883920F0803E38F021968F77C7
:1049B0000E94A522E4EDF0E004C00E94A522E1E0FF
:1049C000F1E00E9448248B01BE01EC01FB2E6F57E1
:1049D00071097595771F880B990B0E94FC2028E1BF
:1049E00032E741E35FE30E946E21AF2D9801AE01F3
:1049F000FF900F911F91CF91DF910E94BC220C94E8
:104A0000DF21FA01DC01AA0FBB1F9B01AC01BF57DC
:104A100028F4222733274427507820C0B75190F438
:104A2000AB2F0024469537952795011CA395D2F30B
:104A3000002071F0220F331F441FB395DAF30ED01C
:104A40000C94A42261307105A0E88A07B94630F4BD
:104A50009B01AC016627772788279078309621F054
:104A6000208331834283538308959F3F31F09150D7
:104A700020F4879577956795B795880F911D969542
:104A8000879597F9089597FB072E16F4009407D0A1
:104A900077FD09D00E945D2507FC05D03EF4909576
:104AA00081959F4F0895709561957F4F0895EE0F02
:104AB000FF1F0590F491E02D0994AA1BBB1B51E147
:104AC00007C0AA1FBB1FA617B70710F0A61BB70B7E
:104AD000881F991F5A95A9F780959095BC01CD0123
:104AE00008950F931F93CF93DF938230910510F4B5
:104AF00082E090E0E0919703F091980320E030E0AD
:104B0000A0E0B0E0309719F140815181028113811A
:104B100048175907C8F08417950769F4109731F0C2
:104B200012960C93129713961C9327C00093970329
:104B30001093980322C02115310519F0421753072D
:104B400018F49A01BD01EF01DF01F801DBCF211557
:104B50003105F9F0281B390B2430310580F48A81A6
:104B60009B816115710521F0FB019383828304C051
:104B70009093980380939703FE01329644C0FE0100
:104B8000E20FF31F819391932250310939832883D7
:104B90003AC02091950330919603232B41F4209144
:104BA0000E0130910F0130939603209395032091CD
:104BB0000C0130910D012115310541F42DB73EB79F
:104BC0004091100150911101241B350BE091950388
:104BD000F0919603E217F307A0F42E1B3F0B281762
:104BE000390778F0AC014E5F5F4F2417350748F066
:104BF0004E0F5F1F509396034093950381939193BB
:104C000002C0E0E0F0E0CF01DF91CF911F910F9162
:104C10000895CF93DF93009709F481C0FC01329788
:104C200013821282A0919703B0919803109781F498
:104C300020813181820F931F20919503309196033B
:104C40002817390751F5F0939603E093950367C051
:104C5000ED0120E030E0CE17DF0740F44A815B81B0
:104C60009E0141155105F1F0EA01F5CFD383C283CE
:104C700040815181840F951FC817D90759F4888145
:104C80009981840F951F0296918380838A819B81ED
:104C9000938382832115310529F4F0939803E093DF
:104CA00097033DC0E901FB83EA8349915991C40F01
:104CB000D51FEC17FD0761F480819181840F951F4A
:104CC0000296E90199838883828193819B838A83F9
:104CD000E0E0F0E012968D919C911397009719F007
:104CE000FD01DC01F7CF8D919C9111979D012E5F05
:104CF0003F4F820F931F2091950330919603281701
:104D0000390769F4309729F41092980310929703A9
:104D100002C013821282B0939603A0939503DF9191
:104D2000CF91089581E090E0F8940C94A426FB01C3
:104D3000DC0104C08D910190801921F44150504054
:0C4D4000C8F7881B990B0895F894FFCF6A
:104D4C00E8030000741174110100000000009903C5
:104D5C0080000103020402020504020306FFFFFFA8
:104D6C00FFFFFFFFFF28000000000002910101037C
:104D7C0000060E0002230000000000D21038186953
:104D8C00101F119A1078108C10000000000212D520
:104D9C00111803A911CD11B911AA110000000001BD
:104DAC000373031803A9116403480320030D0A00BD
:00000001FF
