:020000040800F2
:10000000B808002029020008E31200080D120008B9
:10001000E11200081F040008991400080000000005
:10002000000000000000000000000000E7120008CF
:100030002104000800000000E5120008E912000891
:10004000430200084302000843020008430200087C
:10005000430200084302000843020008430200086C
:10006000430200084302000843020008430200085C
:10007000430200084302000843020008430200084C
:10008000430200084302000843020008430200083C
:10009000430200084302000843020008430200082C
:1000A000430200084302000843020008430200081C
:1000B000430200084302000843020008430200080C
:1000C00043020008430200084302000843020008FC
:1000D00043020008430200084302000843020008EC
:1000E00043020008430200084302000843020008DC
:1000F00043020008430200084302000843020008CC
:1001000043020008430200084302000843020008BB
:1001100043020008430200084302000843020008AB
:10012000430200084302000843020008430200089B
:10013000430200084302000843020008430200088B
:10014000430200084302000843020008430200087B
:10015000430200084302000843020008430200086B
:10016000430200084302000843020008430200085B
:100170004302000843020008430200080000000098
:10018000430200084302000800F002F800F03CF8C7
:100190000AA090E8000C82448344AAF10107DA45E2
:1001A00001D100F031F8AFF2090EBAE80F0013F0F8
:1001B000010F18BFFB1A43F0010318474C1400004D
:1001C0006C140000103A24BF78C878C1FAD85207DE
:1001D00024BF30C830C144BF04680C6070470000C1
:1001E0000023002400250026103A28BF78C1FBD840
:1001F000520728BF30C148BF0B6070471FB501F0E0
:10020000F1F91FBD10B510BD00F0CFF81146FFF792
:10021000F5FF01F053F900F0EDF803B4FFF7F2FF3A
:1002200003BC00F0F5F80000094880470948004782
:10023000FEE7FEE7FEE7FEE7FEE7FEE7FEE7FEE796
:10024000FEE7FEE704480549054A064B70470000F3
:100250007D13000889010008B8020020B8080020BA
:10026000B8040020B804002053EA020C00F06980B2
:100270002DE9F04B4FF00006002B1FBFB3FA83F5BA
:1002800003FA05F424FA05F65E4012BF1643B2FAEB
:1002900082F502FA05F4C5F120051EBF22FA05FC1D
:1002A00044EA0C04203556EA044C4FEA144418BFC3
:1002B000641C4FF000084FF00009904271EB030CF2
:1002C00039D3002919BFB1FA81F701FA07F6B0FA5C
:1002D00080F700FA07F6C7F120071EBF20FA07FCD7
:1002E00046EA0C062037B6FBF4FCA7EB0507103FE7
:1002F00007F01F0BCBF120060CFA0BFB2CFA06F6CD
:1003000044BFB3460026202FA4BF5E464FF0000B2B
:100310005BEA060C08BF4FF0010B19EB0B09ABFBB6
:10032000027C48EB0608C01B06FB02CC0BFB03CC8F
:1003300071EB0C01C1E70B46024641464846BDE859
:10034000F08B13B54FF000004FF00001AFF30080C9
:10035000BDE81C4070474FF0000200B513469446BC
:100360009646203922BFA0E80C50A0E80C50B1F10D
:100370002001BFF4F7AF090728BFA0E80C5048BF21
:100380000CC05DF804EB890028BF40F8042B08BFBF
:10039000704748BF20F8022B11F0804F18BF00F8BB
:1003A000012B7047704770477047754600F02CF876
:1003B000AE4605006946534620F00700854618B052
:1003C00020B5FFF73FFFBDE820404FF000064FF09B
:1003D00000074FF000084FF0000B21F00701AC467A
:1003E000ACE8C009ACE8C009ACE8C009ACE8C00999
:1003F0008D46704710B50446AFF300802046BDE837
:100400001040FFF70ABF0000004870475402002068
:1004100001491820ABBEFEE7260002007047FEE748
:10042000704700002DE9F84FDFF8BCA1002201253C
:1004300003264FF00F090AF1040BAAF1040E00BFC6
:100440000B6805FA02F42340A34270D10F7907F03C
:100450000307012F01D0022F16D187684FEA420807
:1004600006FA08FC27EA0C07D1F80CC00CFA08FCC5
:100470004CEA070CC0F808C04768A7430C79C4F3DE
:10048000001494403C4344600C79E443A4070AD030
:10049000C4684FEA420C06FA0CF7BC438F6807FAAF
:1004A0000CF72743C7600C7904F00304022C12D127
:1004B000D40800EB840CDCF820405707FF0E09FA43
:1004C00007F824EA0804D1F8108008FA07F848EA87
:1004D0000408CCF8208004684FEA420C06FA0CF7B6
:1004E000BC430F7907F0030707FA0CF727430760AF
:1004F0004C6814F4403F70D03C4C276847F4804768
:100500002760246822F0030704F480440094384CE8
:1005100007EB040CDCF8084897074FEA177809FA4C
:1005200008F7BC43334FB84202D1002724E054E01F
:10053000314FB84201D101271EE0304FB84201D1FE
:10054000022719E02E4FB84201D1032714E02D4FA6
:10055000B84201D104270FE02B4FB84201D1052743
:100560000AE02A4FB84201D1062705E0284FB842D9
:1005700001D1072700E0082707FA08F72743CCF83E
:100580000878DAF800405746D1F804C09C435FEA87
:10059000CC2C00D51C433C60DBF800405F46D1F812
:1005A00004C09C435FEA8C2C00D51C433C60DEF801
:1005B00000407746D1F804C09C435FEA8C3C00D5EC
:1005C0001C433C60084F083F3C68D1F804C09C4382
:1005D0005FEACC3C00D51C433C60521C102AFFF45F
:1005E0002FAFBDE8F88F0000083C014044380240BE
:1005F00000300140000002400004024000080240B8
:10060000000C02400010024000140240001802409A
:10061000001C02400AB1816170470904FBE7000039
:1006200001488068704700000000002070B5040099
:1006300025D094F83D00002520B984F83C50204690
:1006400000F0B8F8242084F83D002068016821F00B
:10065000010101602068016841F4004101602068E7
:10066000016821F40041016000F0FEF94D4A616823
:10067000914201D84C4900E04C49884201D2012006
:1006800070BD4B492368B0FBF1F15E6826F03F0670
:100690000E435E606368934206D94FF496735943E4
:1006A0004FF47A73B1FBF3F12368491C1E6A26F0FC
:1006B0003F06314319626168914210D84900401EDB
:1006C000B0FBF1F2521CC2F30B02042A01D2042047
:1006D00022E0B0FBF1F0401CC0F30B001CE0A2686C
:1006E000F2B301EBC10303EB0116431EB3FBF6F3B8
:1006F0005B1C43F480431B0549D092B301EBC1025C
:1007000002EB0111401EB0FBF1F0401CC0F30B00E6
:1007100040F4804040F400402168CA694CF6FF7301
:100720009A431043C861D4E9071001432068026866
:1007300022F0C00211430160D4E9030101432068A3
:10074000826848F2FF339A4311438160D4E905017E
:1007500008432168CA6822F0FF021043C86001E024
:100760000EE016E02068016841F001010160256497
:10077000202084F83D00256384F83E50002070BDA1
:1007800001EB4106431EB3FBF6F35B1CB3E701200C
:10079000C2E701EB4101401EB0FBF1F0401CC0F389
:1007A0000B00B7E7A086010080841E0000093D0011
:1007B00040420F0010B586B0044614216846FFF78A
:1007C000CAFD13492068884220D1124800210268DE
:1007D00042F002020260006800F002000590C020B2
:1007E00000901220CDE90101032003900420049021
:1007F00069460948FFF716FE06481030016841F4C3
:1008000000110160006800F40010059006B010BDF2
:100810000054004030380240000402400248816821
:100820000278114481607047000000200B4810B529
:10083000016841F400710160016841F48061016068
:10084000016841F480710160032000F061F80F201D
:1008500000F006F800F024F8002010BD003C024033
:1008600070B50D4D04464FF47A712878B1FBF0F065
:100870000A490968B1FBF0F000F08EFB48B9102C72
:1008800007D200222146501E00F022F800206C60A2
:1008900070BD012070BD0000000000200C00002091
:1008A0000A4808B5016841F480410160006800F41D
:1008B000804000900548001F016841F080510160B0
:1008C000006800F08050009008BD000044380240ED
:1008D000F0B40E4B1B680C46C3F30223C3F10705AB
:1008E000042D00D90425191D072901D2002300E099
:1008F000DB1E012606FA05F1491E214099409E4063
:10090000761E16403143F0BC00F0C7BD0CED00E090
:10091000064900F0070208684FF6FF03184040EA56
:100920000220034A10430860704700000CED00E00D
:100930000000FA052DE9F0470E46050065D0DFF806
:100940001481D8F80000F7B200F00700B04207D2D7
:1009500088F80070D8F8000000F00700B04254D1C9
:1009600028683D4C810712D5400703D5206840F424
:10097000E05020602878000703D5206840F46040EC
:1009800020602068A96820F0F000084320602878E3
:10099000C0072DD0304968680839012812D00228D4
:1009A00013D0032811D00968890700292DDA21689E
:1009B00021F0030101432160FFF732FE814641F23D
:1009C000883A0EE009688903EFE709688901ECE7D6
:1009D000FFF726FEA0EB0901514502D90320BDE82F
:1009E000F0872068696800F00C00B0EB810FEFD150
:1009F000D8F80010404601F00701B14207D907704E
:100A0000006800F00700B04201D00120E7E7287835
:100A1000400705D52068E96820F4E05008432060CD
:100A20002878000706D52068296920F4604040EA4C
:100A3000C100206000F038F82168084AC1F30311B2
:100A4000515CC8400649086006480068FFF708FF87
:100A50000020C4E7003C024008380240EE150008C0
:100A60000C000020040000200448054900680968C3
:100A7000044AC1F38221515CC84070470C00002039
:100A800008380240FE150008044805490068096856
:100A9000044AC1F34231515CC84070470C00002049
:100AA00008380240FE150008154810B5006810F01F
:100AB0000C02144813D04110042A0FD0082A0ED17A
:100AC0000F4C241F2268236802F03F025B0207D507
:100AD0002068C0F38810A0FB010106E0084610BDA5
:100AE0002168C1F38811A1FB00010023FFF7BCFBC3
:100AF0002168C1F30141491C4900B0FBF1F010BD70
:100B0000083802400024F4002DE9F84F04006ED0AC
:100B10002078DFF84C93C007A9F104054AD009F109
:100B200004000168C1F38101012908D00068C0F305
:100B3000810002280AD1D9F80000400206D52868B1
:100B4000800337D560680028E1D033E06068B0F5F5
:100B5000803F10D0B0F5A02F286810D020F480304E
:100B60002860286820F4802028606068A8B1FFF71A
:100B700057FD06460DE0286840F48030F4E740F465
:100B800080202860F7E700BFFFF74AFD801B64283C
:100B900073D828688003F7D50CE0FFF741FD0646BF
:100BA00005E000BFFFF73CFD801B6428F0D82868F3
:100BB0008003F7D42078DFF8AC8280074FF0000A7A
:100BC0003ED5A748001D016811F00C0F08D0006841
:100BD000C0F3810002280BD1D9F80000400207D4ED
:100BE0002868800716D5E068012800D112E033E1BB
:100BF000E068B8B10120C8F80000FFF711FD064613
:100C000005E000BFFFF70CFD801B0228C0D8286854
:100C10008007F7D52868216920F0F80040EAC10074
:100C200028600DE0C8F800A0FFF7FAFC064604E0D3
:100C3000FFF7F6FC801B02281FD828688007F7D42E
:100C40002078000722D5864F87486169703771B1D7
:100C500001210160FFF7E4FC064604E0FFF7E0FC39
:100C6000801B022809D838688007F7D50EE0C0F845
:100C700000A0FFF7D5FC064605E082E0FFF7D0FCB8
:100C8000801B02287DD838688007F7D42078400779
:100C900068D5DFF8CCB100270BF13C0BDBF8000086
:100CA000C0000BD4DBF8001041F08051CBF80010ED
:100CB000DBF80000012700F0805000906B4E306898
:100CC000C00510D4306840F480703060FFF7A8FC95
:100CD000009005E0FFF7A4FC0099401A022850D8C4
:100CE0003068C005F6D55E4EA0686C3601280FD07E
:100CF0000528306810D020F001003060306820F006
:100D000004003060A068B8B1FFF78AFC00900FE0E3
:100D1000306840F00100F4E740F004003060F7E78D
:100D2000FFF77EFC0099411A41F28830814266D873
:100D300030688007F4D50EE0FFF772FC009007E002
:100D4000FFF76EFC0099411A41F28830814256D873
:100D500030688007F4D42FB1DBF8001021F0805107
:100D6000CBF80010A069C8B33D49091D0968C1F35B
:100D7000810102294AD00228504607D0C8F86000F5
:100D800000E03CE0FFF74CFC04463BE04746C8F877
:100D90006000FFF745FC064605E000BFFFF740FC9A
:100DA000801B02282BD828688001F7D4D4E90701DA
:100DB0000843A16A2E4A490802EB0141626A41EAEE
:100DC0008211084394F82C1040EA0161C9F8001020
:100DD00001203866FFF724FC044606E03EE000BF31
:100DE000FFF71EFC001B022809D828688001F7D5F0
:100DF00034E000BFFFF714FC001B022802D90320D7
:100E0000BDE8F88F28688001F4D427E00128F7D0E6
:100E1000D9F80000E26900F4800191421CD1226AF5
:100E200000F03F01914217D147F6C071626A01405C
:100E3000B1EB821F10D1A26A4FF0FF3300F44031B2
:100E400003EB5202B1EB024F06D194F82C1000F0E4
:100E50007060B0EB016F01D00120D1E70020CFE737
:100E60000438024000004742800E474200700040B4
:100E70000000FFFF70B5040009D0606A002540B192
:100E800025616561A56294F8510040B10CE0012034
:100E900070BD6068B0F5827FF4D0E561F2E784F858
:100EA0005050204600F044F8022084F85100206899
:100EB000016821F040010160A088218900F482705E
:100EC00001F404410843A18901F400610843217C35
:100ED00001F002010843217D01F001010843218B4B
:100EE00001F400710843217F01F03801084394F8B0
:100EF000201001F080010843218D01F400510843C6
:100F000021680860A069042101EA104094F82410C7
:100F100001F010010843216848602068C16921F48C
:100F20000061C1616565012084F85100002070BD39
:100F300010B586B0044614216846FFF70CFA134931
:100F40002068884220D112480021026842F4805271
:100F50000260006800F4805005900D481438026863
:100F600042F001020260006800F001000590F020EC
:100F700000900220CDE90101032003900520049098
:100F800069460448FFF74EFA06B010BD0030014034
:100F9000443802400000024010B5401EB0F1807F8E
:100FA00001D3012010BD4FF0E02460610F216017D4
:100FB00000F073FA0020A06107202061002010BD1E
:100FC00070B5040004D094F83D00002510B106E08F
:100FD000012070BD84F83C50204600F023F8242006
:100FE00084F83D002068C16821F40051C1602046AA
:100FF00000F0CCF92068016921F49041016120687A
:10100000416921F02A0141612068C16841F4005121
:10101000C1602564202084F83D0084F83E00002053
:1010200070BD00002DE9F04786B0044614216846E3
:10103000FFF791F96B49DFF8A8C123680024694ADA
:1010400010390325022608276748634516D113681F
:1010500043F400231360126802F4002205920A6828
:1010600042F001020A600968CDE9005601F0010171
:10107000CDE904716946CDE9024530E0DFF86CC185
:10108000DFF86CA163452FD1106840F48010106028
:10109000106800F480100590086840F004000860B3
:1010A000086800F004000590086840F00800086037
:1010B000086802AB00F0080005904FF48050CDE9BD
:1010C000000683E8B00069465046FFF7ABF90420FC
:1010D000CDE9000602AB694683E8B0004548FFF75A
:1010E000A1F906B0BDE8F087DFF80C81DFF8F490D5
:1010F0004FF0070C09F1040943451BD1D9F8003022
:1011000043F01003C9F80030D9F8002002F01002B3
:1011100005920A6842F001020A60096802AA01F019
:10112000010105914FF4C061CDE9001682E830104D
:101130006946D4E7DFF8C480434514D1136843F40B
:1011400000331360126802F4003205920A6842F01C
:1011500001020A60096801F0010105910C21CDE945
:101160000016694618E02648834219D1106840F4F9
:1011700080201060106800F480200590086840F01E
:10118000020008600868694600F0020005904FF40C
:101190004060CDE900061B4802AB83E830109EE7B3
:1011A000194883429DD1D9F8002042F02002C9F8A5
:1011B0000020D9F8000000F020000590086840F0F9
:1011C00004000860086802AA00F004000590C0202E
:1011D000CDE9000682E8B000694650467FE700008E
:1011E000004C0040403802400000024000500040E7
:1011F00000080240000C0240001001400044004082
:10120000004800400004024000140140FEE70000D6
:1012100070B586B014216846FFF79DF81E4800247B
:10122000016841F004010160016801F004010591C9
:10123000016841F080010160016801F080010591C1
:10124000016841F001010160016801F001010591AF
:10125000016841F002010160016801F0020105919D
:10126000016841F00801016000680C4E00F00800C0
:101270004FF400550590002229463046FFF7CAF981
:1012800001200095CDE90104694630460394FFF73B
:10129000C9F806B070BD00003038024000080240B6
:1012A0000E4810B50C4901604FF482714160002175
:1012B0008160C1604FF400720161C0E90512C16133
:1012C0000162416281620A21C162FFF7D3FD0028F9
:1012D00001D072B6FEE710BD00300140640000206E
:1012E000FEE7FEE770477047FFF798BA30B593B056
:1012F00030216846FFF72FF814210CA8FFF72BF8D0
:101300001C480025016841F080510160006800F030
:10131000805011901848016841F4804101600068D4
:10132000022400F4804011900120009000040190FC
:101330008001CDE9064008AA0420322182E813008A
:101340000B906846FFF7E0FB08B172B6FEE70CA908
:101350000F2081E831004FF48050CDE90F050121C5
:101360000CA8FFF7E7FA002801D072B6FEE713B029
:1013700030BD000040380240007000400248016863
:1013800041F470010160704788ED00E070B50446DB
:1013900000680169E26821F440511143016121694B
:1013A000A068E26908436169114308432168CA687B
:1013B00049F20C639A430243CA6020684169A269FA
:1013C00021F440711143416131492068884202D0C3
:1013D0003049884202D1FFF757FB01E0FFF744FB99
:1013E000E2690023192164253226B2F5004F6268B4
:1013F00028D0A0FB0101930F9200FEF735FF0146B4
:10140000B0FBF5F06FF01802504301EB800006EBE3
:101410000010B0FBF5F000F0F002B1FBF5F002EBCC
:101420000012B1FBF5F06FF01803584301EB800098
:1014300006EB0010B0FBF5F000F00F00216810443F
:10144000886070BDA0FB010192185B41FEF70CFFA4
:101450000146B0FBF5F00201B1FBF5F06FF01803A7
:10146000584301EB800006EBC000B0FBF5F000F044
:10147000F80002EB4002B1FBF5F0584301EB8000AD
:1014800006EBC000B0FBF5F000F00700D6E7000067
:101490000010014000140140FEE70907090E002872
:1014A00004DB00F1E02080F80014704700F00F002A
:1014B00000F1E02080F8141D70470000FFF7B6F936
:1014C000FFF714FFFFF7A4FE3D483C4900240160EC
:1014D0003C49C0E901144FF48041C0E90341446133
:1014E0008461C4610462FFF7A1F808B172B6FEE737
:1014F000FFF7D6FE32483449AC304FF4E136016094
:10150000C0E901640C25C460C0E904458461C4617C
:10151000FFF756FD08B172B6FEE729482B49F030B7
:101520000160C0E90164C460C0E904458461C4612C
:10153000FFF746FD08B172B6FEE726482449016070
:10154000C0E90164C460C0E904458461C461FFF777
:1015500037FD08B172B6FEE71E481F4944300160EE
:10156000C0E90164C460C0E904458461C461FFF757
:1015700027FD08B172B6FEE71648184988300160A9
:10158000C0E90164C460C0E904458461C461FFF737
:1015900017FD08B172B6FEE70E481149CC30016064
:1015A000C0E90164C460C0E904458461C461FFF717
:1015B00007FD08B172B6FEE7FEE7000000540040E8
:1015C00010000020A0860100004C004000500040A8
:1015D0000010014044010020004400400048004049
:1015E000001401404FF04070E1EE100A7047000017
:1015F00000000000000001020304060708090000C3
:10160000000001020304000028160008000000206A
:1016100010000000C4010008381600081000002067
:10162000A8080000E0010008010000001000000010
:08163000000000000024F4009A
:040000050800018965
:00000001FF
